:100000000010002025030000AF160000AF1600000E
:10001000AF160000AF160000AF160000AF160000CC
:10002000AF160000AF160000AF160000AF160000BC
:10003000AF160000AF160000AF160000AF160000AC
:10004000AF160000AF160000AF160000AF1600009C
:10005000AF160000AF160000AF160000AF1600008C
:10006000AF160000AF160000AF160000AF1600007C
:10007000AF160000AF160000AF160000AF1600006C
:10008000AF160000AF160000AF160000AF1600005C
:10009000AF160000AF160000AF160000AF1600004C
:1000A000AF160000AF160000AF160000AF1600003C
:1000B000AF160000AF160000AF160000AF1600002C
:1000C000AF160000AF160000AF160000AF1600001C
:1000D000AF160000AF160000AF160000AF1600000C
:1000E000AF160000AF160000AF160000AF160000FC
:1000F000AF160000AF160000AF160000AF160000EC
:10010000AF160000AF160000AF160000AF160000DB
:10011000AF160000AF160000AF160000AF160000CB
:10012000AF160000AF160000AF160000AF160000BB
:04013000AF16000006
:100134000348044B834202D0034B03B11847704772
:100144003C1000203C10002000000000064B074932
:10015400C91A891048BF0131491003D0044B0BB1AF
:1001640001481847704700BF3C1000203C10002095
:100174000000000010B5064C237843B9FFF7D8FF00
:10018400044B13B10448AFF300800123237010BD66
:100194001C10002000000000801A000008B5054B68
:1001A4001BB105490548AFF30080BDE80840FFF7DF
:1001B400CDBF00BF0000000000100020801A000026
:1001C400A3F5803A704700BF174B002B08BF134BB1
:1001D4009D46FFF7F5FF00218B460F461348144A4E
:1001E400121A01F044FB0E4B002B00D098470D4B24
:1001F400002B00D098470020002104000D000D487A
:10020400002802D00C48AFF3008001F0F9F9200077
:10021400290001F01BFA01F0E1F900BF0000080019
:10022400000000000000000000100020001000206A
:1002340020100020000000000000000007B501A805
:1002440001F08AF89DF80530012B27D11E4A936DE1
:10025400DB0313D4536B23F4FF0323F4FE4343F46F
:10026400BC1343F4A0635363136B23F4704343F44C
:1002740040431363136B43F4E06313639DF804304A
:1002840063B94FF000531B68104B1B68104B1B687D
:10029400104B1B68104B1B68104B1B68104AD2F89C
:1002A400803043F00303C2F8803001F0BDFA00F05F
:1002B40023F801F0B7FA01F066FA01F02DF903B062
:1002C4005DF804EB00F00EB800C0005000400020C0
:1002D4000080002000C00020000001200040012018
:1002E4000080005008B5034801F054FABDE8084006
:1002F40001F0B6B9FC190000014801F04BBA00BF87
:10030400FC1900000348044A0449121A921001F02F
:10031400CDB900BF340100003401000020100020DA
:1003240008B500F02FF8FFF7EDFF124B12498B428E
:1003340012D30020114B12498B4218D3FFF744FF0C
:10034400186850F82240586840F8224001329868F2
:100354008242F5D30C33EAE70022F8E71C6844F83C
:10036400220001325C68A242F8D30833E4E7002299
:10037400F8E700BF881A0000941A0000941A0000DD
:10038400941A000070B5124B124A134D9A60D3F8B8
:10039400882005F5005442F47002C3F888206FF0F9
:1003A4000102226641F2FF7262660222C3F8D02083
:1003B400BFF34F8FBFF36F8F4FF44036032001F02C
:1003C400D7F80320E66001F0B9F82E6170BD00BFD4
:1003D40000ED00E00000000000800044014B1868BC
:1003E400704700BF24100020014B1860704700BF05
:1003F40024100020084B1B6F03F00703022B04D0CA
:10040400032B05D0012B05D0FEE7044B1868704779
:10041400034BFBE703487047008000502410002082
:100424002C100020002D310108B5FFF7E3FF054B28
:100434001B6FC3F301330133B0FBF3F0024B1860BD
:1004440008BD00BF00800050201000200048704705
:1004540000B4C404014B1868704700BF2C1000207E
:10046400054B1860054B1B6F03F00703032B01D1E9
:10047400FFF7DABF704700BF2C1000200080005047
:1004840000487047002D3101174B9868C0F30440B1
:100494000C280AD8DFE800F00B090909090907212B
:1004A40019091B1D1F0011487047002070479B68E5
:1004B40003F04073B3F1807F11D0B3F1007F10D00B
:1004C4000B4A002B08BF104670470A4870470A4879
:1004D40070470A4870470A4870470A4870470A48F4
:1004E40070470A48704700BF0040015A405DC6008B
:1004F40000093D00C0EA210180BA8C010048E801EE
:10050400005A62020024F40080841E0040420F005E
:10051400014B1868704700BF2810002013B5002451
:100524002948019401F036F90123042203212046CD
:1005340000F0CAFE204601F025F90122234B0520D4
:10054400C3F8442401A901F020F9002839D1204B33
:10055400D3F8F02042F00102C3F8F020D3F8FC20D5
:1005640042F08072C3F8FC201A4AA3F55D431A6076
:10057400019B194A03F5D52303F2FC43B3FBF2F3C1
:10058400164A013B13610223C2F8F0304FF4807322
:10059400C2F804334FF06043114AC3F8B02F114A34
:1005A400C3F8802ED3F8002E42F48072C3F8002ED4
:1005B400FF2283F82020D3F8002E22F48072C3F89F
:1005C400002E02B010BD00BFFC19000000D0035083
:1005D40000ED00E0FF030040F8590D00000004E0C6
:1005E40055CEACC50900010030B541F67133124A4D
:1005F400124DD469D3639368A84204F4803423F47D
:10060400401306D893600E4AD2F8183223F002033E
:100614000AE043F4801393600A4B9842F3D9084AE2
:10062400D2F8183243F00203C2F8183214B100228F
:10063400014BDA6330BD00BF00000350005A620270
:1006440000C0075080F0FA0208B5334B98424FD0EF
:1006540027D8324B984245D017D8314B98423ED0D8
:100664000AD838B12F4B984239D041F2A6312E48DE
:1006740001F030F8002034E02C4B98422FD02C4B62
:100684009842F2D12B4B586E2BE02B4B98422CD036
:1006940003F5371303F5D8639842E6D1254B986FD9
:1006A4001FE0264B98422FD00CD8254B984223D0DC
:1006B400244B984224D0244B9842D6D11D4BD3F8D6
:1006C40084000EE0214B984222D003F5740303F515
:1006D40010539842C9D1174BD3F8980001E0154B39
:1006E400986D08BD134B186FFBE7124B586FF8E772
:1006F400104BD3F88000F4E70E4BD3F88800F0E7F2
:100704000C4BD3F88C00ECE70A4BD3F89000E8E7E5
:10071400084BD3F89400E4E780BA8C01405DC6002E
:1007240080841E0040420F00B818000000093D00FC
:10073400C0CF6A000080E00F0024F400007E56035E
:1007440080D54302006CDC020048E8010090D0032D
:1007540038B50F4B0546D3F880300C4603F003033D
:10076400022B09D0032B0FD00A4841F2FF1100F0ED
:10077400B1FF0023184602E0FFF756FE0B2305B134
:10078400286004B1236038BDFFF77EFE0523F6E739
:1007940000800050B818000038B5164B0546D3F851
:1007A40020010C4600F00700042818D8DFE800F008
:1007B4001F030B0F1300FFF711FE042305B128607C
:1007C40004B1236038BDFFF745FE0323F6E7FFF7C6
:1007D4005BFE0523F2E7FFF753FE0223EEE706482C
:1007E40041F27C2100F076FF00231846E6E701235E
:1007F400E4E700BF00800050B818000073B500247F
:10080400144B0194D3F88031064603F00303022B02
:100814000D460FD0032B12D0012B15D1214601A870
:10082400FFF7BAFF0D240EB1019A326005B12C60B6
:1008340002B070BDFFF728FE05240190F3E7FFF72F
:100844001FFE02240190EEE741F2D131024800F08C
:1008540041FFE8E700800050B818000038B5104B9D
:100864000546D3F840310C4603F00303022B0BD0AA
:10087400032B0DD0012B0FD100F026FF082305B167
:10088400286004B1236038BDFFF742FE0723F6E772
:1008940000F01DFF0923F2E701230020EFE700BF6A
:1008A4000080005038B5104B0546D3F860310C4633
:1008B40003F00303022B0BD0032B0DD0012B0FD11C
:1008C40000F002FF082305B1286004B1236038BD9D
:1008D400FFF71EFE0723F6E700F0F9FE0923F2E70F
:1008E40001230020EFE700BF0080005038B5164B0D
:1008F4000546D3F800020C4600F00700042819D876
:10090400DFE800F020030B0F130000F0DDFE0823E6
:1009140005B1286004B1236038BDFFF7F9FD072352
:10092400F6E700F0D4FE0923F2E7FFF77DFD0C2380
:10093400800AEDE7054841F28F4100F0CBFE002329
:100944001846E5E70123E3E700800050B8180000EB
:1009540038B5164B0546D3F808020C4600F00700DC
:10096400042819D8DFE800F020030B0F130000F06F
:10097400ABFE082305B1286004B1236038BDFFF73E
:10098400C7FD0723F6E700F0A2FE0923F2E7FFF70D
:100994004BFD0C23800AEDE7054841F2C74100F006
:1009A40099FE00231846E5E70123E3E700800050A1
:1009B400B818000038B5124B0546D3F840320C463F
:1009C40003F00303022B0BD0032B0DD0012B0FD10B
:1009D40000F07AFE082305B1286004B1236038BD15
:1009E400FFF796FD0723F6E700F071FE0923F2E70F
:1009F400044841F21A4100F06DFE00231846EAE76C
:100A040000800050B818000038B5104B0546D3F8E4
:100A140000310C4603F00303022B0BD0032B0DD043
:100A2400012B0FD1FFF716FD032305B1286004B194
:100A3400236038BDFFF76CFD0723F6E700F042FEA4
:100A44000623F2E701230020EFE700BF00800050F7
:100A540010B503281BD005D8012805D0022810D0D2
:100A640000240CE00F28FBD10B4B1C6FC4F30134A2
:100A7400022C04D140F27D21084800F02BFE601CBA
:100A840010BD054BD3F89040C4F30464F7E7024B60
:100A94001C6FC4F38024F2E700800050B8180000F3
:100AA4001FB500230193252874D8DFE800F013193B
:100AB4001C262B353A50555A5F64696E73193F737F
:100AC400735519262B26351950266E3A3A3A3A268A
:100AD40026265A5FFFF78EFC0190019804B010BDE2
:100AE400FFF7A2FCF8E7FFF785FC04460220FFF7B6
:100AF400AFFFB4FBF0F40194EFE7FFF795FC044675
:100B04000320F4E7FFF790FC04460320FFF7A0FF5F
:100B1400B4FBF0F46408EEE7002101A8FFF76EFED1
:100B2400DBE7002101A8FFF737FED6E702934FF079
:100B3400E0231B695B0705D5FFF776FC0290029B57
:100B44000193CAE703A902A8FFF788FEF7E700218B
:100B540001A8FFF783FEC0E7002101A8FFF7A2FE6A
:100B6400BBE7002101A8FFF7C1FEB6E7002101A8F9
:100B7400FFF7EEFEB1E7002101A8FFF745FFACE760
:100B8400002101A8FFF7E4FDA7E7002101A8FFF772
:100B940011FFA2E74FF46C71014800F09BFD9CE744
:100BA400B818000008B50120FFF77AFFBDE8084037
:100BB4000349884294BF01210221032000F002B8B6
:100BC40080F0FA0210B503283DD00AD801280AD0D3
:100BD400022826D040F21631BDE81040224800F029
:100BE40079BD0F28F6D14C1E012C06D9042904D056
:100BF40040F2C7211C4800F06DFD00F094FD00F0A8
:100C04009AFD1A4A136F23F4405343EA04331367DB
:100C1400FFF70AFC0021FFF7E7FCBDE81040FFF7EF
:100C2400C1BF4C1E1F2C04D940F20A310E4800F0FB
:100C340051FD0E4AD2F8903023F0F85343EA04638E
:100C4400C2F8903010BD4C1E012C04D94FF44471ED
:100C5400054800F03FFD054A136F23F4806343EA1F
:100C640084231367EEE700BFB8180000008000502B
:100C74001FB50023019325286FD8DFE800F0136E19
:100C84006E6E6E2D354B50555A5F64696E6E3A6EBA
:100C94006E506E6E6E6E2D6E4B6E69353535356EDB
:100CA4006E6E555A2E4B1B6F03F00703013B032B4B
:100CB4000CD8DFE803F009020507042301930FE0D1
:100CC4000323FBE70623F9E70223F7E740F2CA41CF
:100CD400244800F0FFFC03E0002001A9FFF78EFD8B
:100CE400019805B05DF804FB002001A9FFF754FD4D
:100CF400F6E702934FF0E0231B695B0705D5FFF786
:100D040093FB0B230393039BD8E703A902A8FFF7E4
:100D1400A5FDF8E7002001A9FFF7A0FDE0E700200A
:100D240001A9FFF7BFFDDBE7002001A9FFF7DEFD06
:100D3400D6E7002001A9FFF70BFED1E7002001A9A7
:100D4400FFF762FECCE7002001A9FFF701FDC7E72A
:100D5400002001A9FFF72EFEC2E740F27D51B7E75C
:100D640000800050B8180000024A536A23F00103BF
:100D74005362704700C0075070B50546FFF764FC26
:100D8400431E0333044604D940F6CF11284800F02B
:100D9400A1FC284B5A68012A04D127494A609A6960
:100DA4009207FCD10020FFF763FF042803D100F071
:100DB400BAFC00F0C0FC214A24F04073954228D0CC
:100DC4001F4A954228D01F4CE26812F0060FFBD14F
:100DD400A668A360A268534013F4F81F1FD12846E5
:100DE400FFF702FB0020FFF743FF04281ED1FFF7A3
:100DF4001BFB8542044604D240F628210C4800F02F
:100E040069FC20460021FFF7EFFBBDE87040FFF7C7
:100E1400C9BE43F00073D6E743F08073D3E740F6CE
:100E24001721034800F056FCA660DBE770BD00BF45
:100E3400B818000000C0015000E0015040420F000B
:100E440080841E0000000150F8B5036804460F2B8F
:100E540004D940F67731694800F03CFC63680F2BF5
:100E640004D940F67A31654800F034FCA3680F2BAE
:100E740004D940F67D31614800F02CFC237B0F2B14
:100E840004D94FF438615D4800F024FC637B0F2BD8
:100E940004D940F68331594800F01CFCA37B3F2B56
:100EA40004D940F68631554800F014FCE37B3F2B0F
:100EB40004D940F68931514800F00CFC2369032B16
:100EC40004D940F68C314D4800F004FC6369032BCF
:100ED40004D940F68F31494800F0FCFBE369012B4B
:100EE40004D940F69231454800F0F4FB0020FFF7A6
:100EF400BFFE032800F0818045F60E030221404A1C
:100F0400C2F880303F4B9962012103F58053996206
:100F1400936DD903FCD4D4E900131B0543EA0163A0
:100F2400E17B94F820500B43217BE77E43EA0143A5
:100F3400617B6D0143EA0133A17B43EA81131361B1
:100F44009169D4E904031B0643EA806301F000417C
:100F54000B43A17E94F823000B43217E43EA014313
:100F6400617E43EA01239361136AE66923F00D036A
:100F740094F8221043EA870366BB1362966A94F8D6
:100F8400213045EA031326F033052B4343F00103D4
:100F940093621D4D1A4A936D35EA0303FBD1022572
:100FA400184B9D62936D5B00FCD41369A56823F410
:100FB400700343EA055313614FF00042114B9A61E9
:100FC40019B9022203F580539A6278B901220F4BB2
:100FD4009A620BE0334343F008031362936A23F0ED
:100FE400330303432B4343EA4103936294F82430CD
:100FF4001BB1034B064AC3F88020F8BDB8180000A3
:1010040000C0005000D000500300014000E0005038
:10101400F1A7FFFF014B93F9000070471D1000205A
:1010240010B543680446072B04D940F6D35127482A
:1010340000F050FBA368032B04D940F6D551234894
:1010440000F048FB2378032B04D940F6D7511F48FE
:1010540000F040FB94F90130002B04DA40F6D9513A
:101064001A4800F037FB4FF4D1510220184A637834
:10107400516218494F2B48604FF0010028BF4F239D
:1010840001F5805148601169C903FCD4217843EA11
:1010940001235361D4E901131B0143EA0123617B5A
:1010A4000B43217B43EA41039360E37BA17B1B0158
:1010B40043EA4113617C0B43217C43EA41035360BF
:1010C400A37C13B16FF4D153536210BDB818000060
:1010D4000000025000100250014B1880704700BFFE
:1010E40032100020014B1880704700BF30100020E0
:1010F40010B5454B0446984265D03BD8A3F5B703D9
:10110400A3F5586398425AD02DD8404B98424AD000
:1011140013D8002863D041F2C9113D4800F0DAFA2F
:1011240040F673713A4800F0D5FA384B9C4269D0C6
:10113400384B9C4258D1002332E0364B984226D09B
:10114400354B9842E7D1354BD3F8A040621E0332A9
:1011540024F0407404D940F673712D4800F0BAFAB3
:101164002F4A946010BD2F4B9842D4D12B4BD3F807
:10117400BC40EBE72C4B984229D02C4B98422AD008
:101184002B4B9842C7D1254BD3F8C840DEE7234BFD
:10119400D3F8A040621E033224F040742CD82346B6
:1011A40043F08074DCE71D4BD3F8A040621E033289
:1011B40024F040741AD8234643F00074D0E7174B48
:1011C400D3F8B840C2E7154BD3F8C040BEE7134B81
:1011D400D3F8CC40BAE7114BD3F8D040B6E740F689
:1011E40073710B4800F076FA0024B9E740F6737186
:1011F400074800F06FFADEE740F67371044800F028
:1012040069FACCE70023D7E7C0EA210140420F0086
:10121400B818000080841E0000093D000080E00F23
:101224000040015A0024F4000048E801005A620218
:1012340080BA8C01034A0179D36E23F030030B4347
:10124400D36670470040005038B5032804460D4665
:1012540004D80B4B1B5CCB40DB0704D440F22D417C
:10126400084800F037FA30220123544341F21002B7
:1012740004F1A044AB4004F57034A35038BD00BF62
:10128400B91900000D19000038B5032804460D46AD
:1012940004D80B4B1B5CCB40DB0704D440F2FE317B
:1012A400084800F017FA30220123544342F2100296
:1012B40004F1A044AB4004F57034A35038BD00BF22
:1012C400B91900000D190000F8B5032804460D46AD
:1012D40016461F4604D81C4B1B5CCB40DB0704D4CA
:1012E4004FF4B071194800F0F5F926B129462046AB
:1012F400CFB1FFF7A9FF04EB4403072D4FF00F0113
:101304004FEA031312D8A80006FA00F281401048ED
:10131400184400F028FAAEB92946204677B1BDE852
:10132400F840FFF791BFFFF7AFFFE4E7A5F108002E
:10133400800006FA00F281400648E9E7BDE8F8407B
:10134400FFF7A2BFF8BD00BFB91900006319000080
:1013540004C003500CC00350054B5B69C3F38512F2
:10136400827003F03F021B0B42700370704700BF92
:1013740000C0075030B58BB06D46604C0FCC0FC524
:1013840054F8043B68462B604FF07E6393F89C301E
:101394006D46FF2B08BF25238DF80130FFF740FE73
:1013A4003220FFF799FE0FCC0FC50FCC0FC594E880
:1013B400030085E80300524BD3F84C21110340F19C
:1013C4008380A3F5FE431C884FF6FF739C4208BF3D
:1013D40081248DF81940FFF71DFE044484F30804AA
:1013E40048488DF81840FFF73BF86846FFF72CFD96
:1013F4003220FFF777FE444C4448FFF7BDFC4448D5
:10140400FFF776FE00F09BF9236F002023F007031B
:1014140043F002032367236F23F4505343F48063A0
:10142400236700F093F93B4BD3F8FC20D2014FD44F
:10143400D4F8803023F0030343F00203C4F880306F
:10144400314BD3F8202122F0070242F00102C3F805
:101454002021D3F8802122F0030242F00102C3F8D4
:101464008021D3F8402122F0030242F00202C3F8A3
:101474004021D3F8602122F0030242F00202C3F8B3
:101484006021D3F8402222F0030242F00202C3F8A2
:101494004022D3F8002222F0070242F00202C3F8ED
:1014A4000022D3F8082222F0070242F00202C3F815
:1014B4000822FFF759FC4FF0E0220020136963F083
:1014C400040313610BB030BDD3F85041E4B280E79C
:1014D400D3F8FC2022F08072C3F8FC20D4F88020DA
:1014E40022F0030242F00202C4F88020D3F8FC2068
:1014F40042F08072C3F8FC20A2E700BFC0190000CC
:101504000080E00F00F049020080005000B4C404E1
:10151400C0EA210100ED00E013B50024064A684644
:10152400536F43F00103536700948DF80440FFF7B1
:1015340081FE204602B010BD0040005010B53D2889
:10154400044608D801236109074A04F01F04A34094
:1015540042F8213010BD4FF48A71044800F0BAF803
:10156400002CF7DBEEE700BF00E100E0001A00000A
:10157400002808DB01224309034900F01F008240D0
:10158400603341F82320704700E100E038B500F1F2
:1015940010034D2B04460D4604D94FF4E1710D4858
:1015A40000F098F81E2D04D940F2C311094800F048
:1015B40091F8002CACBF04F16044074B4FEA0515C9
:1015C400EDB2ABBF04F5614404F00F0484F800539A
:1015D4001D5538BD001A000014ED00E008B5064B97
:1015E400044613B10021AFF30080044B1B6803B120
:1015F4009847204600F07FF80000000018100020F3
:1016040070B50D4D00260D4C641BA410A64209D1E3
:101614000B4D00260B4C00F041F9641BA410A642AC
:1016240005D170BD55F8043B01369847EEE755F8EF
:10163400043B01369847F2E73410002034100020B0
:1016440034100020381000207047704708B500F0AF
:10165400F6F8FFF7F9FF00F0FFF8FFF7F6FFFAE7F7
:1016640000F011B808B5FEF759FFBDE8084000F0D6
:1016740013B800F006B8704770477047704770475A
:1016840070470F20704708B5042200231146032039
:10169400FFF71AFE002008BD08B5082000F02CF85A
:1016A400BDE80840082000F032B8FEE74AB110B5A2
:1016B400002350F8234041F8234001339342F8D1EA
:1016C40010BD7047002070474FF4004070474FF43E
:1016D4007A707047FEE7EFF3108072B6704700B976
:1016E40062B67047EFF31180302383F3118870479B
:1016F40080F311887047FEE74FF060420123D2F86F
:10170400001E83400B430020C2F8003E70474FF098
:1017140060410122D1F8003E824023EA0203002006
:10172400C1F8003E704708B5FEF790FEBDE80840DA
:101734000021FEF759BF02210320FFF743BA08B581
:10174400FFF7F1FFBDE80840FFF7F5BF10B5044609
:10175400FEF76AFE0021FEF747FF1CB1BDE810400A
:10176400FFF720BA10BD70B5054614460E46FFF7C4
:10177400B2FF2B685C4034405C402C60BDE8704094
:10178400FFF7ADBF704700F008B809B100F007B823
:1017940022207047012100F043B80020704770B543
:1017A40006460D46FFF79EFF04461C2E35D8DFE89B
:1017B40006F00F18341C1E20342224343434262816
:1017C400342A2C2E30343434343434343434320027
:1017D400FEF710FE002628602046FFF789FF3046FA
:1017E40070BD0120FFF75CF9F4E70320FAE7042059
:1017F400F8E70C20F6E70220F4E70620F2E70720DA
:10180400F0E70820EEE70520ECE70920EAE70A20E4
:10181400E8E70D20E6E71020E4E700202126DAE7D8
:1018240000207047FFF7A6BD10B56FF004042046F2
:1018340005210134FFF7AAFE3D2CF8D110BD08B5EF
:10184400FEF7FCFCFFF70EFFFFF713FFFFF713FF94
:10185400BDE80840FFF710BF08B5FFF70EFFFFF71C
:101864000DFFFFF70CFFBDE80840FFF709BF024476
:101874000346934200D1704703F8011BF9E70000C7
:101884000000000000000000000000000000000054
:10189400000000000000000000000000F8B500BFD8
:1018A400F8BC08BC9E467047F8B500BFF8BC08BC3D
:1018B4009E467047453A2F5448494F542F73696DDB
:1018C400706C69636974795F73646B5F7375697451
:1018D400655F76323032345F365F322F73696D70F4
:1018E4006C69636974795F73646B5F352F706C61C5
:1018F40074666F726D2F656D6C69622F7372632FDE
:10190400656D5F636D752E6300653A5C7468696F1D
:10191400745C73696D706C69636974795F73646B0B
:101924005F73756974655F76323032345F365F3267
:101934005C73696D706C69636974795F73646B5F00
:10194400355C706C6174666F726D5C656D6C696238
:101954005C696E635C656D5F6770696F2E680045D6
:101964003A2F5448494F542F73696D706C696369F9
:1019740074795F73646B5F73756974655F76323015
:1019840032345F365F322F73696D706C69636974CA
:10199400795F73646B5F352F706C6174666F726D01
:1019A4002F656D6C69622F7372632F656D5F67704D
:1019B400696F2E63007F033F1F00000001260000B3
:1019C400040000000000000000010000000000000E
:1019D4000B0000000B0000000200000000002020AB
:1019E40000000000030000008C8C3C00000000009C
:1019F4000000000000000000FFFFFFFF453A2F54E5
:101A040048494F542F73696D706C69636974795FC9
:101A140073646B5F73756974655F76323032345FFB
:101A2400365F322F73696D706C69636974795F73A3
:101A3400646B5F352F706C6174666F726D2F7365A4
:101A440072766963652F696E746572727570745FFE
:101A54006D616E616765722F7372632F736C5F695A
:101A64006E746572727570745F6D616E61676572B4
:0C1A74005F636F727465786D2E63000074
:081A800044E7FF7F01000000B4
:0C1A8800941A000020100020070000004D
:101A9400C0EA2101C0EA21010080000000F04902EF
:0C1AA400FFFFFFFFA1010000790100001E
:0400000300000325D1
:00000001FF
