S00A00004932432E7333372C
S11300000010002089070000C14A0000C14A000016
S1130010C14A0000C14A0000C14A0000C14A0000B0
S1130020C14A0000C14A0000C14A0000C14A0000A0
S1130030C14A0000C14A0000C14A0000C14A000090
S1130040C14A0000C14A0000C14A0000C14A000080
S1130050C14A0000C14A0000C14A0000C14A000070
S1130060C14A0000710F0000C14A0000C14A0000EB
S113007065050000E9490000C14A0000C14A0000CA
S1130080C14A0000C14A0000C14A0000C14A000040
S1130090C14A0000C14A0000C14A0000C14A000030
S11300A0C14A0000C14A0000C14A0000C14A000020
S11300B0C14A0000C14A0000C14A0000953A00004C
S11300C0C14A0000C14A0000C14A0000C14A000000
S11300D0C14A0000C14A0000C14A0000C14A0000F0
S11300E0C14A0000C14A0000C14A0000C14A0000E0
S11300F0C14A0000C14A0000C14A000000000000DB
S1130100013800D0FCE77047000000000000000048
S113011001F0FF01102A2BDB10F0070F08D010F8B4
S1130120013B013A8B422DD010F0070F42B3F6D1B8
S1130130F0B441EA012141EA014122F007047FF0D1
S113014000070023F0E80256083C85EA010586EA28
S1130150010685FA47F5A3FA87F586FA47F6A5FA64
S113016087F68EB9EED1F0BC01F0FF0102F0070270
S113017032B110F8013B013A83EA010313B1F8D11B
S11301800020704701387047002D06BF35460338FC
S1130190073815F0010F07D1013015F4807F02BF35
S11301A0013015F4C03F0130F0BC0138704700BF86
S11301B00348044B834202D0034B03B118477047F2
S11301C0A0100020A0100020000000000548064BED
S11301D01B1AD90F01EBA301491002D0034B03B141
S11301E018477047A0100020A01000200000000055
S11301F010B5064C237843B9FFF7DAFF044B13B16B
S11302000448AFF300800123237010BD1C140020A8
S1130210000000004C59000008B5054B1BB105490E
S11302200548AFF30080BDE80840FFF7CFBF00BF2B
S113023000000000A01000204C590000A3F5803AF3
S1130240704700BF174B002B08BF134B9D46FFF7A9
S1130250F5FF00218B460F461348144A121A04F086
S113026044FE0E4B002B00D098470D4B002B00D0C2
S113027098470020002104000D000D48002802D0FA
S11302800C48AFF3008003F085FF2000290000F044
S113029013F803F0C5FD00BF0000080000000000D3
S11302A00000000000100020A010002048140020CE
S11302B0000000000000000080B588B004F09CFD40
S11302C004F050FB2B4F2C4EDFF8C48004F0A1FD4A
S11302D004F049FBF5238DF807300DF1070304936F
S11302E030680397012303A9ADF8143000F01CFC17
S11302F040F22D1402AD4FF00309013C09D03068DF
S1130300ADF8149003A9CDE9038500F00DFC002895
S1130310F3D10221284604F032FB9DF80A30174C31
S1130320834221D104F062FB04F061FB144920688C
S113033004F08BFC284604F017FB0546032000F06C
S113034017F960B10F49206804F07FFC04F04EFBFC
S113035004F04DFB0C4920682A4604F076FC4FF467
S1130360FA5003F029FAAFE704F040FB04F03FFB36
S11303700649DCE780000100181000201C11002051
S113038020530000465300004B5300003953000033
S11303908000020038B501F0E3FA0E480E4C01214A
S11303A000F0B0FE01221146002001F00BFA0225F4
S11303B001221146C4F88050002001F003FA012202
S11303C0C4F884501146002001F0FCF9C4F88850A8
S11303D0002038BD30253E0000400E4007B51D4BBF
S11303E001225A641A6842F480721A6001A802F069
S11303F00DFB9DF80530012B03D89DF80430022B2A
S11304000DD9154B4FF41872C3F88C22134AC3F854
S11304109022134AC3F8F022124AC3F8F822124A6F
S1130420D2F8A43143F4F843C2F8A43102F014FD25
S113043000F01AF902F0ACFC02F0FAFC02F0BEFC87
S1130440FFF7A8FF04F0A8FB03B05DF804EB00F08D
S1130450FBB800BF00000E4000400E409A6F05003C
S1130460180100040084320800300E4008B5044826
S1130470012100F047FEBDE80840024800F0B6BA8A
S113048000350A000010002030B597B0264D0FCD7E
S11304900FAC0FC495E80700302384E80700234A13
S11304A08DF85530224BCDE903234FF0807305932B
S11304B003F1022306934FF0F0511E23CDE90713F5
S11304C00E2200210DF12E0004F00FFD194B4FF404
S11304D04020CDE909030C238DF82C300D238DF831
S11304E02D30154B0C9320230D9301238DF83930B7
S11304F0124B0093124803AB0FAA09A902F076FF2E
S1130500044618B10F48882104F0E1FA9DF83A3006
S1130510002B0CBF032100214FF4E13004F0C1FA99
S1130520204617B030BD00BF9853000000000140C2
S1130530003204001C0001401D140020B8100020EB
S1130540041100206753000008B5FFF79DFF28B190
S1130550BDE808400248B82104F0B9BA08BD00BF9C
S113056067530000014804F0E5BB00BF04110020FC
S11305700B4B1B78024683B10A4B1B78834234BF72
S113058000200120084B1B7833B1084B1B78134122
S113059013F0010F08BF002070470120F2E700BFED
S11305A096100020951000203D1400209410002087
S11305B008B5084B01221A70074B00221A70074B2A
S11305C004221A70064B1F221A7002F06FFC054BAE
S11305D0186008BD961000203D14002095100020DE
S11305E0941000201C11002008B508280ADC0028FB
S11305F00EDD013807280BD8DFE800F00C140A1AC6
S11306000A0A0A1C202819D0402819D0102813D00F
S1130610D82108E00320012304220F2101F0F8FD72
S1130620002008BD9221074804F051FA0E20F8E793
S11306309F21F8E7AC21F6E7B921F4E7C621F2E7F8
S1130640D321F0E7B453000008B50648012100F0B7
S113065059FD04F0ACF90120FFF7C6FFBDE80840DE
S113066000F014B800350A000148012100F04ABD29
S113067000350A00014B1022DA60704700A00046E2
S1130680014B1022DA60704700A0004470B588B0B6
S1130690374D384E0FCD01AC0FC495E8070084E800
S11306A00700354C3548012100F02CFD304601216E
S11306B000F028FD0125324B039301A920468DF853
S11306C0125002F011FB2B4604220621022001F0F5
S11306D09FFD2A4600230721022001F099FD2B46A5
S11306E004220821022001F093FD042211462B4626
S11306F0002001F08DFD234BA3670B2363674FF4A8
S1130700487003F0EBF91420FFF7BAFF03F0E6F9A1
S11307102320FFF7AFFF03F0E1F9B9212046FFF7EB
S1130720AFFF04F02AFAFFF7A5FF00231A460621BB
S1130730022001F06DFD00231A460721022001F07A
S113074067FD2B4600220821022001F061FD0022F2
S113075010462B46042101F05BFD204602F034FADA
S11307600021A1673046616700F0CCFC08B070BD81
S113077008540000004204000004014000350A004F
S113078000127A000B0B000B08B500F083F8124B33
S113079012498B4212D3124B124900208B4218D3B8
S11307A0FFF750FD186850F82240586840F822407E
S11307B0013298688242F5D30C33EAE70022F8E765
S11307C01C6844F8220001325C68A242F8D3083362
S11307D0E4E70022F8E700BF545900006059000024
S11307E060590000605900000048704700F0490259
S11307F0104AD2F8943003F00703023B032B13D8BA
S1130800DFE803F00C14020E0B4B1B68D2F8000156
S1130810C0F304200130B3FBF0F07047074BF4E75A
S1130820074B1B685B08F1E7054BEEE74FF4004309
S1130830ECE700BF00400E402410002028100020E8
S11308401C10002008B5FFF7D3FF054BD3F808317F
S1130850C3F308230133B0FBF3F0024B186008BD67
S113086000400E4020100020014B1868704700BF64
S113087028100020054B1860054BD3F8943003F082
S11308800703022B01D1FFF7DDBF704728100020BA
S113089000400E40044B054A9A60D3F8882042F485
S11308A07002C3F88820704700ED00E000000000EB
S11308B0014B1868704700BF24100020054A064900
S11308C00346106803448B4294BF13604FF0FF301B
S11308D0704700BF2C1000200000012008B52948F3
S11308E0012100F00FFC012304220221052001F064
S11308F08FFC002001F076FC234B0122C3F8102862
S11309001146042000F05EFF204800F089FD204BD2
S1130910D3F8F02042F00102C3F8F020D3F8FC2011
S113092042F08072C3F8FC20A3F55D43194A1A60B3
S113093000F5D520184B00F2FC40B0FBF3F0174B48
S1130940013802221861C3F8F0204FF48072C3F812
S113095004234FF06043124AC3F8B02F114AC3F87E
S1130960802ED3F8002E42F48072C3F8002EFF22AA
S113097083F82020D3F8002E22F48072C3F8002ECE
S1130980002008BD00350A000080144206000E0055
S113099000ED00E0FF030040F8590D00000004E002
S11309A055CEACC50900010030B54FF06043D3F813
S11309B0802ED20715D501240B4D8440D5F8FC2098
S11309C042F08072C5F8FC20D3F8002E2243C3F80D
S11309D0002E53F82020002AF0D003F82010002025
S11309E030BD1120FCE700BF00ED00E02DE9FF471A
S11309F0044618B94448392104F069F843480121F0
S1130A0000F080FB2368424A93420AD002F58062D8
S1130A10934276D03C484F2104B0BDE8F04704F03F
S1130A2056B83C483C4FDFF8FC80012100F06AFBDB
S1130A306179207901230A2201F0EAFBE179A079A6
S1130A4001230A2201F0E4FB0A25012694F804A0FC
S1130A5094F80590BAF1050F05D838F81A3023FA3E
S1130A6009F3DA0704D440F2FE31384604F02FF8D3
S1130A700C21302313FB0A1303F1884303F52043AD
S1130A8006FA09F21A60642003F028F894F804A026
S1130A9094F80590BAF1050F06D8204B33F81A30B4
S1130AA023FA09F3DB0704D440F22D41384604F05D
S1130AB00EF80C21302313FB0A1303F18C4303F5C6
S1130AC0204306FA09F21A60642003F007F8013D96
S1130AD0BCD120680323436423895BBA9BB283643B
S1130AE040F20113ADF8003023690293E3680193E7
S1130AF06946237D8DF80C3001F076FC04B0BDE826
S1130B00F08707488EE700BF2454000040410500E9
S1130B1000C000400062040074540000BA54000095
S1130B2000720400BA54000038B5054601F08AFD8D
S1130B30044C012801D1013C00D138BD284601F004
S1130B407FFCF6E7E19304002DE9F04F85B09A4667
S1130B50544BDDF83C901B789DF844B0DDF8508090
S1130B6006460F461546002B00F09680072A00F231
S1130B7095800E9B002B00F09180B9F1000F00F0DE
S1130B808D80129BB3F5006F00F38880012803D198
S1130B90109B002B00F08280434B03EB05131B7B5F
S1130BA0002B7DD0414C10220021684604F09DF9B1
S1130BB004EB451410229FBB3946204604F095F9F6
S1130BC043F210036380BBF1000F03D1E37843F0D9
S1130BD00303E370354A0E9BCDF800A002EB451CDD
S1130BE0CCE90193129B581E9DF84C30690103F027
S1130BF00303C0F30A009B0643EA001E53582C4823
S1130C0018404EEA0003012E535017D0B8F1000FDC
S1130C102ED19CF8023068F304138CF8023027E0DC
S1130C200021204604F061F94FF444736380BBF162
S1130C30000FCFD1E37843F03003CAE71323CCF895
S1130C400C309CE80F000CF1100E8EE80F00DCF85D
S1130C501C20109BCCF814306FF0030161F39F0249
S1130C60012FCCF81C2003D1CCF81890CCF8043018
S1130C700D4A290102EB051342F80180159A5A60C6
S1130C8000272846224669469F605E7301F0AAFD4C
S1130C90384605B0BDE8F08F0648FAE70648F8E79D
S1130CA00648F6E73E140020201200202011002000
S1130CB00F80FFF3028000F0018000F0078000F055
S1130CC038B5124B1B780546DBB1E0B103F03DFFAC
S1130CD00F4A00231146147B54B92B601A0101EB0F
S1130CE0031301258C501D7303F035FF204638BDD6
S1130CF00133082B02F11002EDD103F02CFF05485B
S1130D00F5E70548F3E70548F1E700BF3E14002086
S1130D1020120020048000F0028000F0018000F026
S1130D2038B503F012FF0C4A05460023147B6CB956
S1130D300133082B02F11002F8D101F0DFFC074B5C
S1130D4028461C7003F007FF204603E0284603F002
S1130D5002FF034838BD00BF201200203E140020CB
S1130D60058000F010B50D4B1B78044693B107289D
S1130D7012D803F0EAFE0A4B03EB04131A7B2AB1E0
S1130D8000241C7303F0E7FE204610BD03F0E3FECD
S1130D900448FAE70448F8E70448F6E73E1400205C
S1130DA020120020068000F0028000F0018000F094
S1130DB013B5164B1868019000238DF8043003F026
S1130DC0C4FE134B1C7824B103F0C5FE114802B0D5
S1130DD010BD01221A7003F0BEFE0F4B1C731C776A
S1130DE083F82C4083F83C4083F84C4083F85C4003
S1130DF083F86C4083F87C4004230DEB03008DF8EA
S1130E00073001F0ADFC2046E1E700BFC654000006
S1130E103E140020038000F02012002008B50A4A86
S1130E2012785AB107280BD8084A02EB00131B7B2F
S1130E3043B1002101F078FC002008BD0448FCE720
S1130E400448FAE70448F8E73E1400202012002082
S1130E50028000F0018000F0078000F008B50A4A23
S1130E6012785AB107280BD8084A02EB00131B7BEF
S1130E7043B1012101F058FC002008BD0448FCE7FF
S1130E800448FAE70448F8E73E1400202012002042
S1130E90028000F0018000F0078000F008B50A4AE3
S1130EA0127852B107280AD8084A02EB00131B7BB8
S1130EB03BB101F019FD002008BD0548FCE70548D9
S1130EC0FAE70548F8E700BF3E140020201200208E
S1130ED0028000F0018000F0078000F00D4B1B78C9
S1130EE093B1072812D889B10B4B03EB00131B7B7A
S1130EF073B10A4B1A6E01238340134214BF0123BA
S1130F0000230B7000207047054870470548704760
S1130F10054870473E1400202012002000200E4097
S1130F20028000F0018000F0078000F010B50B4A49
S1130F3012780C4662B107280CD859B1084A02EB62
S1130F4000131B7B43B101F0EFFC2070002010BDA7
S1130F500448FCE70448FAE70448F8E73E14002094
S1130F6020120020028000F0018000F0078000F0D1
S1130F702DE9F041DFF86480D8F86070D8F86C305F
S1130F801F4000D5FEE7134C01260025374218D038
S1130F902368C8F86860A3B1A16862680131A160E0
S1130FA028469847637B012B0BD150B90A4B03EBBE
S1130FB045131A7B60F341021A731A7F60F34102EE
S1130FC01A770135082D4FEA460604F11004DDD1E5
S1130FD0BDE8F081201200202011002000200E40E6
S1130FE00C4B984205D90C4B984210D8012201238E
S1130FF001E00022134609490B640949D1F8003184
S113100023F0807343EA0263C1F80031704702227F
S1131010EDE700BF0048E8010090D0030000C8439A
S113102000400E4038B5114B5B68114B00221C4642
S1131030C9B21D798D4202D11D6885420BD201329D
S1131040052A03F10803F4D141F61401094803F019
S11310503EFD032102E004EBC2046179034A5368B4
S113106023F0407343EA0163536038BD00000E402F
S113107010550000CA54000038B5074C41F67133CE
S1131080256C2364FFF7B0FBADB20021FFF7CAFF64
S11310900DB10023236438BD00000E40044BDB6B0C
S11310A05B0604D4034AD2F8C830002BFBD1704746
S11310B000300E400000C64308B5FFF7EFFF024BB7
S11310C05868C0F3014008BD00300E40044BD3F80B
S11310D04421D20703D4D3F840211042FBD17047F6
S11310E000400E4038B5064C256C41F6713323643C
S11310F0ADB2FFF797FF0DB10023236438BD00BFE5
S113110000000E4038B5C0F30323013B092B06D879
S1131110DFE803F00C2E0505322924051C18BDE870
S11311203840174841F6B05103F0D1BC154DC0F317
S1131130043405F1424505F5801504EBC500800033
S1131140016038BD104DC0F30434F2E70F4DC0F315
S113115004344FF48030FFF7B9FFEAE7C0F30434F6
S11311600B4D1020F7E7C0F304340A4D0120F2E7D9
S1131170094DC0F30434DCE7084DC0F30434D8E768
S1131180CA54000000400E4050410E40F0400E4052
S1131190E8400E40E0400E40C0400E40B0400E40DB
S11311A008B5C0F30313013B092B60D8DFE803F053
S11311B0050B0F195F5F1F233C532E4BD3F800011F
S11311C0C0F3042008BD2B4BD3F81401F8E7294BD6
S11311D0D3F80031C3F30063013301209840013890
S11311E0F0E7244BD3F80C01C0F30820EAE7214BC5
S11311F0D3F80801F8E7204B984209D01F4B9842D6
S11312000CD041F654711E4803F061FC0020D9E76C
S1131210184BD3F8203103F00F03DEE7154BD3F856
S11312202031C3F30113D8E7164B984208D003F5D5
S1131230B01303F58053984206D041F67871E2E783
S11312400C4BD3F82831ECE70A4BD3F82831C3F31D
S113125001230433C1E70C4B984205D1054BD3F865
S1131260300100F00300ADE741F68771CBE741F6AA
S1131270AC71C8E700400E408006160080162E00B0
S1131280CA54000090171A00A009140008B500F011
S11312900F000138072852D8DFE800F00415225166
S11312A0313B51432E4BD3F8943003F00703023BF8
S11312B0052B06D8DFE803F0502B2903054A0B2041
S11312C008BD0520FCE7264BD3F8803003F0070364
S11312D0013B042B17D8DFE803F01A18163B3D0036
S11312E01F4BD3F8843003F00703013B042B0AD8C7
S11312F0DFE803F00D0B032E30000620E0E7184B67
S1131300D3F88830E2E70120DAE70220D8E70320A7
S1131310D6E7134B1B6F13F0010F0CBF07200920F6
S1131320CEE70F4BD3F85C3103F03003202B13D0FE
S1131330302B13D0102B0CBF07200120C0E7094825
S113134042F2013103F0C3FB0020B9E70C20B7E7F8
S11313500A20B5E70D20B3E70420B1E70820AFE782
S113136000400E40CA54000010B5284B9842044671
S11313700DD1FFF78BFF264BD3F8844004F007040C
S1131380052C3BD8DFE804F03F2428302C24214BE3
S1131390984205D1FFF77AFF1D4BD3F88840EDE75B
S11313A01D4B984205D1FFF771FF194BD3F88040CC
S11313B0E4E741F61311194803F089FB2046FFF7CF
S11313C065FF41F642110446144803F080FBD7E759
S11313D0BDE8104003F075BBBDE81040FFF768BAE4
S11313E0BDE8104003F070BBFFF702FA084BD3F8D6
S11313F00031C3F300630133D84005E0074841F6E8
S1131400941103F064FB002010BD00BF0300200012
S113141000400E400500240002001E00CA540000D3
S113142038B500F47813B3F5B01F05467DD02ED837
S1131430B3F5402F67D011D8B3F5802F52D006D81A
S113144043B1B3F5003F58D04FF4F7511AE0B3F568
S1131450202FF9D1BDE83840FFF7CAB9B3F5801F92
S113146000F09880B3F5A01F55D0B3F5602FEBD1F1
S11314705748FFF70BFF072800F08C800928E9D0B4
S113148041F2D661534803F022FB002034E0B3F567
S1131490381F53D013D8B3F5001F58D00AD8B3F56A
S11314A0D01F56D0B3F5F01FCED14B48BDE838401D
S11314B0FFF75ABFB3F5101FC6D14848F6E7B3F596
S11314C0481F4DD0B3F5781F78D0B3F5401FBBD17A
S11314D04348FFF749FF434BD3F82831C3F30123B3
S11314E0043320E0FFF784F93E4BD3F80C31C3F307
S11314F008230133B0FBF3F038BDFFF779F9394B1A
S1131500D3F80831F3E7FFF773F9364BD3F8143106
S1131510C3F30423EDE73148FFF726FF314BD3F83B
S1131520303103F00303D840E6E72B48FFF71CFFF4
S11315302C4BD3F8203103F00F03F4E72648FFF7D0
S113154013FF284BD3F82031C3F30113EBE72448EE
S1131550ACE72348FFF708FF224BD3F82831F3E721
S11315602148FFF793FE0138072824D801A353F834
S113157020F000BF8B140000B7150000B715000061
S11315809B150000B7150000B71500009515000065
S1131590A3150000154B1868AEE7BDE83840FFF707
S11315A063B9FFF725F90F4BD3F80031C3F30423D4
S11315B003FB0000A0E741F20D7163E7FFF718F9A0
S11315C00446284603F0B5FAB4FBF0F094E700BFF4
S11315D006000E00CA54000002001E00050024008C
S11315E00300200000400E40B800320030100020FC
S11315F0014B1880704700BF92100020014B1880E7
S1131600704700BF9010002038B50C4604287BD8E2
S1131610DFE800F06403451B3000B1F5007F04D31C
S11316203D4842F6B44103F052FA3C4AC4F308047C
S1131630D2F86838002BFBD1394A136A23F4FF73BC
S113164023F001032343136238BD7F2904D93248B0
S113165042F6C14103F03BFA304A04F07F04D2F869
S11316606038002BFBD12E4A136923F07F031C43FF
S11316701461E9E77F2904D9274842F6DC4103F0E5
S113168026FA264A04F07F04D2F86438002BFBD1F2
S1131690234A936923F07F031C439461D4E7204DCC
S11316A0D5F890305B0704D51B4842F6EC4103F0B3
S11316B00EFA6B6A23F0300343F010036B62296B5C
S11316C0184BC4F3C31203320F2A03EA010328BFE1
S11316D00F22234343EA02732B63B5E77F2904D91E
S11316E00D4842F6075103F0F2F94F2C0B4A28BF7C
S11316F04F24D2F87438002BFBD1094A936B23F0A2
S11317007F03234393639FE7BDE83840024842F6D2
S1131710155103F0DCB900BFCA5400000020C843CF
S113172000400E4000F8FF0F38B502280C4604D0E4
S1131730134842F62D5103F0CAF9124D6B6A13F0A7
S1131740300F1AD0202C15D0302C16D0ACB10C4848
S113175042F6485103F0BBF90B4BD5F8902033EA1D
S11317600202FAD15B024ABFD5F8A0000120C0F3FF
S1131770802038BD4FF40003EFE74FF44003ECE75B
S1131780CA54000000400E40FFF3E17F08B5022870
S11317900CD129B1094B4FF48060C3F8A8005966F5
S11317A04AB1BDE808400220FFF7BEBF044842F634
S11317B07E5103F08CF9012008BD00BF00400E40AB
S11317C0CA5400002DE9F34180460C461746072809
S11317D031D8DFE800F0383F4B504530300401A8E1
S11317E001F014F99DF80530012B0AD89DF8043056
S11317F0022B06D8564C42F6EB31204603F067F92B
S1131800F9E7002C40F085804FF400420E240F23AA
S113181050490A660122A240D1F890001042FBD13F
S1131820002F73D001224B4902FA03F3D1F8902020
S11318301A42FBD16AE0464842F6F93102B0BDE8EB
S1131840F04103F044B9002969D14FF4007208242F
S11318500923DDE7002967D1802206240723D7E77F
S1131860002965D1202204240523D1E741B90822A7
S113187002240323CCE700295ED102220123C7E717
S1131880344D6B6A13F0300F5AD1334BDB6B5A056E
S113189004D42F4842F6084103F019F96B6ADB07B8
S11318A041BF6B6A23F0300343F010036B620426DC
S11318B002230321274A1666284A13449B0018680A
S11318C00028FCD017B311448D002B68002BFCD0EA
S11318D0B8F1020F1AD1CCB11E4C616A11F00101AA
S11318E032D0012220214046FFF750FFD4F89C70EB
S11318F0012200210220FFF765FFC7F30A0102203D
S1131900FFF782FE26662B68002BFCD002B0BDE8F0
S1131910F0814FF480460E230F210024CAE74FF4D0
S1131920807608230921F8E7402606230721F4E7F7
S1131930102604230521F0E7012600233146ECE7B5
S1131940042602230321E8E74046FFF7EDFECDE736
S1131950CA54000000400E4000300E408004F210D3
S113196038B5FEF781FF0021044600F061F9124802
S1131970FFF736FB012211460220FFF723FFFFF792
S11319807BFB0CB1FFF78AFB0C4B02225A67FEF774
S11319902FFFFFF725FBFEF755FF0546FFF78CFBEE
S11319A001462846FFF79EFB2CB920460121BDE8DD
S11319B0384000F03DB938BD0148E80100400E4010
S11319C010B504461120FFF761FC042804D1214816
S11319D042F6732103F07BF8012200210220FFF775
S11319E0F1FE237C012B04D11A4842F6B02103F006
S11319F06EF8194A217C536A23F00103022908BFB7
S1131A0043F001035362154B2178C3F8A014637AA1
S1131A10A18843EAC123D362136BA07A217A03F02D
S1131A207F630343E08843EAC02343EAC1130331DD
S1131A300F2928BF0F2143EA01731363A37B617B42
S1131A401B0143EA0133E17B0B43217B43EA01435E
S1131A50536310BDCA54000000400E400000C84348
S1131A6070B505461120FFF711FC022804D10F4878
S1131A7042F62B3103F02BF80D4E0E4CB26B6B7803
S1131A8014402A78144344EAC324AB7844EA036438
S1131A90EB7844EA0324B36BA34205D0002101226E
S1131AA00846FFF78FFEB46370BD00BFCA54000040
S1131AB000400E4080E4FFF8034BD86B80F04000F8
S1131AC0C0F38010704700BF00300E4010B542EAEA
S1131AD00322B2F5007F194C29D00AD8B2F5807FD1
S1131AE022D040F201139A4215D062B9D4F81C32C4
S1131AF00BE0B2F5407F1DD040F201339A4210D082
S1131B00D4F8283201E0D4F82432C3F30722DBB23C
S1131B1003600A6010BDD4F824321A0EC3F30743DD
S1131B20F6E7D4F82832F8E7D4F81C32F5E7D4F80D
S1131B302032EAE7D4F82032EFE700BF0081E00F5B
S1131B4008B5FFF7B9FF20B1024AD2F8C830002B1C
S1131B50FBD108BD0000C6430E4A0379916921F008
S1131B603F010B43017843EA8103417843EA41038F
S1131B70817843EAC103C178012908BF43F0010316
S1131B8093611368417923F4403343EA01431360BA
S1131B90704700BF00300E402DE9F04104460F4667
S1131BA0FFF78AFFC8B3DFF88480FFF7C9FFD8F8CE
S1131BB00430C3F301439C422FD0194BD3F8006186
S1131BC0FEF716FE022C054617D1164BC6F3042663
S1131BD006FB00069E4204D9134840F2AD7102F0A0
S1131BE076FF02212846FFF77DFA104B10221A6176
S1131BF09FB1BDE8F041FFF7A3BFC4F10202102377
S1131C009340C8F810300FB1FFF79AFF2CB9214662
S1131C102846BDE8F041FFF765BABDE8F08100BF92
S1131C2000400E40002D31013855000000300E40B8
S1131C3038B505460C46FFF73FFFB8B145B90C4B24
S1131C40D3F80051FEF7D4FDC5F3042505FB0005C8
S1131C50084B1B7821463BB1074B9D4204D8022018
S1131C60BDE83840FFF798BF0020F9E738BD00BF52
S1131C7000400E403F140020002D310110B5174BD9
S1131C804AF6E852596B5A639A6FD407FCD41B6C1A
S1131C9013F0030306D0124A01249842C2F8B44A4E
S1131CA005D110BD18B90E4BC3F8B40AF9E70B4BB4
S1131CB09A6FD207FCD41A6C22F0030202431A640E
S1131CC09A6F12F00102FBD10038054C18BF0120B5
S1131CD00129C4F8B40A08BF5A63E2E700300E4091
S1131CE00000C6432DE9F04F8BB00023CDE9043347
S1131CF0CDE90633CDE90833A0F5E163B3F5966F7A
S1131D0005460191934608D94FF441616E4802F0AB
S1131D10DEFE00200BB0BDE8F08F6C4BDFF8B08125
S1131D20D3F81842B0F5E16F15BF4FEA146AC4F353
S1131D30072AC4F30744E4B20694CDF824A0D8F8E3
S1131D404C60C6F301768CBF01220022334607A9FA
S1131D5004A815BF4FF4E1674FF496674FF49669F2
S1131D604FF416790392FFF7B1FED8F8E030039AE6
S1131D70C3F3012308A905A80293FFF7A7FEA5EB67
S1131D80070CAAEB04020CFB02F2B2FBF9F21444B6
S1131D905445079F0498089A05991ED8A2EB010E92
S1131DA00CFB0EFEBEFBF9FE11EB0E012CBF4FF037
S1131DB0010E4FF0000E8A420FD3BEF1000F0CD17A
S1131DC03A1A0CFB02F2B2FBF9F280182CBF012282
S1131DD00022874201D3029B12B140F65E4195E78F
S1131DE0BBF1000F0FD0D8F85C20B5F5E16722F401
S1131DF0FE4218BF012722F0020242EA470242EAE9
S1131E000422C8F85C20019A0AB9012082E72F4A0B
S1131E10022ED2F8302212D0032E13D0012E14BF7A
S1131E20D2B2C2F30722120312F4702F0CD040F680
S1131E301621254802F04BFE40F66D4166E7C2F3D9
S1131E400742F0E7120EEEE7214EF46E24F47044DC
S1131E502243F2661D4A022BD2F8302212D0032B01
S1131E6013D0012B14BFD2B2C2F30722120312F40F
S1131E70702F0CD040F62221134802F028FE40F6C1
S1131E80754143E7C2F30742F0E7120EEEE7104C48
S1131E90D4F8E03023F470431343C4F8E030636EA5
S1131EA0884238BF084623F4FF73E72823F0010370
S1131EB028BFE720B5F5E16F18BF43F0010343EAFB
S1131EC040036366A1E700BF385500000081E00FBE
S1131ED000300E4008B5324A136FD16C11F0010F77
S1131EE003F0060342D0002B40D0132855D91438F0
S1131EF013288CBF102308232949013BCA6C1803FB
S1131F0022F47F4240EA03231343CB64254BCA6C7B
S1131F101B88C2F303222833013202EB820003EB55
S1131F205303B3FBF0F3C86C013B072B28BF072313
S1131F3020F0EE6040EA036343F48013CB641A4B51
S1131F40B3F90030002B10DB2833500800EB4202B9
S1131F5003EB5303B3FBF2F30A6D072B28BF0723EC
S1131F6022F0700242EA03130B6508BDD16C01F044
S1131F700101194304D109280FD90A380928B8E7FF
S1131F80D26CD20702D50BB92728B2E7074840F62E
S1131F90B34102F09CFD0023AEE70423ACE700BF8D
S1131FA000300E401814002014140020385500008E
S1131FB010B50C4BD3F88039044633B9012804D941
S1131FC0094840F6D14102F082FD084A136F23F01C
S1131FD0070323431367064BBDE810401888FFF737
S1131FE079BF00BF0000C6433855000000300E40E2
S1131FF01614002038B50389C82B044604D9514867
S113200040F6B52102F063FDA28823899A4204D9DF
S11320104C4840F6B62102F05AFDB4F90C30C82BF6
S113202004DD484840F6B72102F051FD6378012BE6
S113203055D1A388C82B04D940F6BB21414802F0EE
S113204046FDE28842F210739A4204D93D4840F6B4
S1132050C82102F03CFDE2884A2A48D9B2F5FA7F49
S113206047D340F6C3139A428CBF4FF040524FF00F
S113207000523549B4F90C00CB6C23F0405323F0E3
S113208001030028A8BF43F001031343CB64D1F834
S1132090E030A28843F44073C1F8E0302B4B1A803F
S11320A0CB6E43F08073CB66294BD3F8800900B123
S11320B00420FFF77DFF274B21891980264BB4F9B3
S11320C00C20A0881A80FFF705FFA37BA3B1012B86
S11320D023D01C4840F6C71102F0F9FC0FE0022B94
S11320E0AFD1A3880A2BACD94FF42C61A6E7002208
S11320F0BFE74FF08052BCE7134B184A9A650122A0
S113210060881146FFF7EEFD054648B90D4840F6D4
S1132110FF2102F0DCFC284638BD0B4B104AEDE7EA
S1132120094AD36B43F48063D3636078FFF7A6FD59
S1132130A37AA3F1200253425341054AC2F89437CB
S1132140E9E700BF3855000000300E4016140020A7
S11321500000C643181400201414002077402057B0
S1132160372110B738B5052804460D4605D80B4B62
S113217033F81030CB40DB0704D4094840F22D413A
S113218002F0A5FC30230C2113FB041303F18C4350
S1132190012203F52043AA401A6038BDC45500004B
S11321A07454000038B5052804460D4605D80B4B79
S11321B033F81030CB40DB0704D4094840F2FE3139
S11321C002F085FC30230C2113FB041303F1884334
S11321D0012203F52043AA401A6038BDC45500000B
S11321E07454000010B51F28044603D90648522130
S11321F002F06DFC054AD2F8443423F00303234370
S1132200C2F8443410BD00BF7D55000000A000405A
S1132210F8B5052804460D4616461F4605D81C4B3E
S113222033F81030CB40DB0704D41A484FF4B071B4
S113223002F04DFC26B129462046CFB1FFF792FFAC
S113224004EB4403072D4FEA03134FF00F0112D898
S1132250A80006FA00F281400F48184402F07EFC00
S1132260AEB92946204677B1BDE8F840FFF77ABFFA
S1132270FFF798FFE4E7A5F10800800006FA00F2F2
S113228081400648E9E7BDE8F840FFF78BBFF8BD99
S1132290C45500007D55000004A0004008A0004083
S11322A0F8B506460F461546002A6AD003F0030423
S11322B0036823F44073036002F040FC326882EA4E
S11322C0042303F440735340336002F03BFC37B9FA
S11322D02D4B9E420DD12D48FFF7A2F807463368D7
S11322E09A0717D5012C1BD0022C27D064B9284B90
S11322F017E0284B9E4201D12748EDE7274840F2DA
S11323002F1102F0E4FB336824484FF4B27102F059
S1132310DEFB08E0012C13D0022CE7D1204B00E0B7
S1132320204B9F42F0D9204B1B5D6B430AD140F2F6
S11323307511BDE8F840194802F0C9BB1B4BF0E722
S11323401B4BEEE7A3EBC504013C3C44B4FBF3F4A4
S1132350013C0CD5114840F27B1102F0B8FB0F4848
S11323604FF4BE7102F0B3FB33683461F8BDB4F5C9
S1132370007FF4D233689B07F7D5002C08BF0124F3
S1132380F3E740F21511D4E700C0004000620400F6
S113239080841E0000C4004000720400D055000078
S11323A0002D3101404B4C0015560000809FD50094
S11323B04054890038B50A4B984204460D4608D06B
S11323C003F58063984204D0064840F2951102F068
S11323D07EFB04F1424404F580146401256038BD99
S11323E000C00040D055000038B5124B9842044656
S11323F00D4608D003F58063984204D00E484FF48C
S1132400D57102F064FB002323640C4BE3636A7808
S1132410630103F1844382F001025A60D5E9011299
S113242020462B7BFFF73CFF29782046BDE8384047
S1132430FFF7C0BF00C00040D0550000FFFF0700F9
S113244070B57C4B98420BD003F5806398421DD045
S1132450794840F2012102F03AFB6FF0030070BDAD
S1132460764B9968426B12F4C06F15D091050FD565
S1132470FD225A7009221A700022026493F9011095
S1132480012900D15A7093F90100E8E76C4BE8E7A1
S11324905605EFD5FE22ECE71C78082C00F2C68026
S11324A0DFE814F009001F0041004D006A007600C7
S11324B094009D00BD004C880A88E5060AD5120ADE
S11324C002F0060242F0F00201211970C26241607A
S11324D00120C4E702F0FE02A10748BF42F0010256
S11324E0F2E7160606D58022C2634FF608721A80F8
S11324F0022316E05506EBD54022C2634A88D4066F
S113250004D502221A700B78C362E1E7960764D5FA
S113251007221A701B7901EBC3031B89012BD7D146
S113252008234360D4E71506DDD45406D0D54022F1
S1132530C2634A88920750D503221A7092E74C88E6
S11325400A88E60643BF120A02F0060242F0F002CD
S113255002F0FE02650709D51C7901EBC40142F0C3
S113256001020989012904BF08214160042119706D
S113257001234360C262ABE71406B4D45206A7D564
S11325804022C2634A88560727D507221A709FE75C
S11325901A795D8801EBC2042689AE420FD8013254
S11325A0D2B200241A715C804C886507C4D4E40755
S11325B002D4012A7FF656AF08221A7098E762689F
S11325C0691C5980525DC2620622DFE716068AD46E
S11325D055067FF57DAF4022C2630522ADE7940620
S11325E07FF576AF1A795C88C56901EBC2010A8967
S11325F0A24281BF4968661C5E800D5559888A4293
S1132600DAD90424012A446004D0013A914201D168
S1132610082242601A78092A3FF42EAF58E7D205FF
S11326207FF556AF4FF48072C26323E74FF6093249
S11326301A8021E700C00040D0550000A0120020FD
S1132640AC12002038B5274B984204460D4607D1FA
S113265021B9254840F26A3102F039FA234B12E0DD
S1132660234B98420DD0204840F2693102F02FFAF2
S113267025B91D4840F26A3102F029FA6FF00300CF
S113268038BD31B31B4BA268D00744BF202262601F
S11326906A88910702D529890029EFD0520702D50B
S11326A02A8A002AEAD04FF480721A6000221A7132
S11326B09D60C0236360E368DB0510D40E4BE363C5
S11326C0236C43F4FC6323642046BDE83840FFF7E1
S11326D0B7BE054840F26A3102F0F9F9D2E7E3697E
S11326E0E9E700BF00C00040D0550000A012002060
S11326F000C40040AC120020FFFF0700084B4FF459
S11327000072C3F88020BFF34F8FBFF36F8F054B68
S11327100021D9664FF4AA401962FEF7F3BC00BF4A
S113272000E100E000200E4038B5072805460C46BD
S113273003DD0848772102F0CAF91F2D84F0010453
S113274003D90548912102F0C2F9044B2B449B00A4
S11327501C6038BD195600005F560000A001F1103E
S113276010B5044618B91C48912102F0B0F9237839
S11327701B0613F0784F03D01748922102F0A7F9F3
S1132780E378072B03D91448952102F0A0F901211D
S11327904FF4AA40FEF7B6FCB4F8013022785BBAD5
S11327A09BB243EA02630D4A136000231362D362AF
S11327B053634FF00043D3664FF0FF339366084AE8
S11327C04FF40071C2F88011E3785B01DBB282F848
S11327D00933116010BD00BF1956000000200E40DF
S11327E000E100E02DE9F041C3B2012607280546C7
S11327F00C46904606FA03F603DD3848DE2102F063
S113280066F91CB93548DF2102F061F9236823F425
S11328107C1323F00F031BB13048E42102F057F975
S1132820A37A1B0413F47C0F03D02C48E72102F095
S11328304EF9E37A1B0513F07E6F03D02748E92194
S113284002F045F9237B5B0513F0FE5F03D02348B8
S1132850EB2102F03CF9224F3022BE6602FB0570E8
S11328602368C0F88030637BC0F88830E37AA27AAA
S11328701B0543EA0243227B43EA4253C0F88430F7
S113288028F00303C0F8983002F05FF9FB6E33437D
S1132890FB66237A13B17B6B33437B63637A13B197
S11328A0FB6A3343FB6223793A6823B1DB431B029F
S11328B063F47F431A4063790BB142EA0322A3799C
S11328C00BB122EA0302E3791343054A1360054B73
S11328D09E62D663BDE8F04102F03DB9195600008E
S11328E000200E4000200E4410B5C3B20124072876
S11328F004FA03F404DD094840F2731102F0E7F826
S113290002F023F9064AD36E23EA0403D366054B87
S11329101C62BDE8104002F01EB900BF1956000049
S113292000200E4000200E4410B5C3B20124072835
S113293004FA03F404DD0B4840F2911102F0C7F8E5
S113294002F003F9084B1A6A224208D19B6A9C439D
S11329500CBF0124002402F0FEF8204610BD002420
S1132960F9E700BF1956000000200E4038B50228D0
S113297004460D4603D911484C2102F0A8F86B799E
S11329801F2B03D90D484F2102F0A1F8AB786A78C8
S11329909B0143EA82032A781343EA7843EA021349
S11329A02A7943EAC2236A7943EA0233AA790434CE
S11329B043EA42432401024A135138BDA45600009D
S11329C000200440014B1860704700BF000084429F
S11329D0437882789B0043EA021302781343C27857
S11329E043EA4213027943EA0223427943EA023377
S11329F0827943EAC233C27943EA0243027A43EA60
S1132A004243014A136070470020044010B5044655
S1132A1018B91048572102F05AF80F4AD2F8E43096
S1132A20D2F8E0109B0003F03C03C1F381110B4387
S1132A30A370D2F8E03003F03F036370D2F8E830BB
S1132A40D2F8EC2003F0F003C2F303121343237013
S1132A5010BD00BFEA56000000FF0FE0F8B50746BE
S1132A600C461D4616464AB932484FF4A17102F08D
S1132A702EF824B1402D08D1062327E019B92E4899
S1132A80FEF7CEFC0446402D42D0402D09D87DB13E
S1132A90202D17D0BDE8F840264840F2891102F0F5
S1132AA016B8602DF6D1B6EB940F3CD804230DE094
S1132AB0B6EB141F04D91F484FF4BA7102F007F89B
S1132AC0102303E0B6EBD40F1CD808235E4373082D
S1132AD003EB4413B3FBF6F3184E203BB6EBC30FE2
S1132AE04FEAC30404D213484FF4D07101F0EFFF4E
S1132AF03B6823F060033B603B6834401D433D600A
S1132B007C61F8BD0B4840F2791101F0E0FFDCE78D
S1132B100623B4FBF3F3B342AED206484FF4BF71BD
S1132B2001F0D5FFA8E7034840F2831101F0CFFF7D
S1132B30BCE700BF3257000040410500F8FF7F00AA
S1132B4070B506460C46154622B90D4840F28E2152
S1132B5001F0BDFF1CB90B48FEF762FC04460A4BAA
S1132B606D00013CB4FBF5F413EA04234FEA042599
S1132B7004D0034840F2B32101F0A9FF756170BD90
S1132B803257000040410500070080FF38B50C4B68
S1132B90984204460D460CD003F58063984208D051
S1132BA003F58063984204D006484FF4337101F072
S1132BB08EFFEB435B0003F00A03E360E56038BD7E
S1132BC0000001403257000010B51A4B98420446E9
S1132BD00CD003F58063984208D003F580639842D3
S1132BE004D0154840F2424101F071FF40F6AA6357
S1132BF0E36041F205020023236062600F4AA36090
S1132C006361E364A2640B4A236694426367A36727
S1132C10E3670DD002F58062944205D002F580622C
S1132C20944205D0A36502E02365A365E36510BD66
S1132C302365F7E70000014032570000F9FF010067
S1132C4038B5274B984204460D460CD003F58063F3
S1132C50984208D003F58063984204D0214840F29A
S1132C60FD2101F034FF2046FFF7AEFFAB7C1BB122
S1132C70236843F080432360EB7C1BB12B7D43F03E
S1132C808003A3652A8A6B7B1343EA891343636039
S1132C902B7BD5E901122046FFF7E0FE6B7D1BB1CB
S1132CA0236843F480332360AB7D1BB1236843F472
S1132CB000432360EB7D2A7E1B07120502F4E00229
S1132CC003F0E04313432366636F23F03003636729
S1132CD0626F6B7E134363672B78E36038BD00BF7C
S1132CE0000001403257000038B5274B9842044693
S1132CF00D460CD003F58063984208D003F5806339
S1132D00984204D0214840F2693101F0E0FE2046A7
S1132D10FFF75AFF2B8A226843F001031343AA7B6F
S1132D2043EA8223236023682A7D43EA42732360B3
S1132D30AB7C1BB1EB7C43F08003A3652B7B43F49A
S1132D4080536360D5E901122046FFF7F9FE6B7BDF
S1132D500BB11023E3606B7D1BB1236843F4803314
S1132D602360AB7D1BB1236843F400432360EB7DF8
S1132D702A7E1B07120503F0E04302F4E00213432A
S1132D8023662B78E36038BD000001403257000011
S1132D907FB5094B6A4603F1100615461868596851
S1132DA0144603C40833B3422246F7D12846FFF73A
S1132DB021F9002004B070BD7A57000070B586B0C8
S1132DC0184B01AA03F110061546186859681446F1
S1132DD003C40833B3422246F7D11B882380124B25
S1132DE0D3F8B420120317D5A3F500434FF6FF71AF
S1132DF01A8840F24F138A4218BF13460B48ADF8A5
S1132E000A30FDF737FD2846FEF7DAFD3220FEF7DB
S1132E10F5FB002006B070BDD3F8B830C3F3080347
S1132E20ECE700BF8A5700000081E00F00F0490280
S1132E3007B5084B18680190202301A88DF80430C9
S1132E40FEF70EFE3220FEF7D3FB002003B05DF840
S1132E5004FB00BF9C57000010B50C480C4C6FF0ED
S1132E600403A02113F0800F03F1010207D12344CE
S1132E702F2A83F800131346F4D1002010BD03F069
S1132E800F03043B034419761346EBE700ED00E01F
S1132E9000E100E010B5044601F050FE024B1C6056
S1132EA001F050FE002010BDB812002010B501F052
S1132EB045FE034B1C6801F045FE204610BD00BFD3
S1132EC0B812002010B50020144601F073FE022849
S1132ED004D018B10248C32101F0F9FD204610BD09
S1132EE0A0570000034B186800238068022219468B
S1132EF001F04CB84010002038B5037A3022534317
S1132F0003F1804303F562230446D3F89450D0E9D7
S1132F10032313449D4201D8AA4204D905484FF41F
S1132F203E7101F0D4FDD4E9030303449D4218BF6C
S1132F30284638BD0458000030B587B0144605460D
S1132F401046FFF7D9FF636983423CBFD4E90331DC
S1132F505B181B1A0246ABB1124903910021CDE95B
S1132F600131012304940093D4E90013284601F0AD
S1132F70C6FD20B10C484FF4347101F0A8FD0020C7
S1132F8007B030BD0122627694F82D20002AF6D0D5
S1132F9084F835301321E36920469847636A204654
S1132FA09847ECE7392F0000045800002DE9F0475A
S1132FB088B004460F461646984601F0C6FD814681
S1132FC0002E00F0AD80237E03F0FF02002B00F002
S1132FD0E0802046FFF790FF63699842824606D15D
S1132FE0637E23B96C4840F27F3101F070FD65695E
S1132FF0AA459DBFD4E903329B185D1BAAEB0505C6
S1133000B54228BF354601F0A0FD94F82D30824624
S1133010002B40F0968061692A46384601F070FF23
S113302063692B4463612E462CE06069037803F0E6
S1133030FD01112940F08280216B884205D1A3F162
S113304011014B424B4184F83430013E6369216BDA
S11330508B4203F1010308BF23636361013295428C
S1133060E3D1D4E90323216B1344994208BF2263BB
S1133070216B8A4201D88B4204D847484FF46D71C2
S113308001F025FDD4E9032361691344994208BF83
S1133090626161698A4201D88B4204D83E484FF488
S11330A0717101F014FD0023207A6376FDF7B6FEFA
S11330B020B1394840F2113101F009FD2046FFF7F3
S11330C01BFF636983423FD10023237694F82D309C
S11330D0E568656103B12563636A204698472F4B11
S11330E0039300230494029323690193012300931F
S11330F063682168207A2A4601F001FD20B1264840
S113310040F22D3101F0E3FC207AFDF7A7FE20B157
S1133110214840F2513101F0DAFC504601F01BFD28
S11331204846C8F8006001F016FDD8F80030002BBE
S11331300CBF1B20002008B0BDE8F08707F8013B56
S113314084E72E4600228AE70123207A23760DF1B4
S11331501E01FDF7EBFE20B10F484FF4507101F052
S1133160B6FC9DF81E30207A002BCDD00DF11F0146
S1133170FDF7B4FE20B1084840F2463101F0A7FC47
S11331809DF81F10207A0029BED12246FFF7D4FEF5
S1133190BAE71646C4E700BF04580000392F000000
S11331A070B504460568FFF781FE844202D1002011
S11331B0FFF770FE95F93630002B11DB03F01F0189
S11331C05B099B0003F1604303F5614301228A40DC
S11331D0C3F88021C3F88020BFF34F8FBFF36F8FF4
S11331E0287AFDF75BFE20B111484FF4ED7101F030
S11331F06EFC287AFDF7B6FD20B10D484FF4EF714F
S113320001F065FCFDF78CFD38B10A4B984204D0FF
S113321007484FF4F17101F05AFC0023C4E900336C
S1133220C4E90433A3602846AB6ABDE8704018477C
S113323004580000058000F02DE9F84390F82C8034
S1133240DFF8AC9004460D468E18AE4228D094F8B0
S11332502D3083B101F079FC237E07461BBB226B22
S113326063699A4204D040F2F911484601F02FFCF8
S1133270384601F070FC94F83430002BE5D0B8F1F6
S1133280000F06D02B780A2B03D1E3690D212046C9
S11332909847E36915F8011B204698470028D4D0C5
S11332A00020BDE8F8832046FFF726FEE168D4F845
S11332B030C0013888423EBF206900F1FF30401819
S11332C003469C450BD013F80129112A01D0132A77
S11332D007D1A2F111035A425A4184F834202063E1
S11332E0C6E7994282BF236903F1FF335B18E8E71D
S11332F004580000F0B587B00C4606461546002178
S1133300382220461F4601F0F0FD002395E8030013
S11333102A692376EB68E360C4E904232A7D84F8F0
S11333202C20AA7D2363012384F8343084F83530BB
S11333300C9B236284E803000D9B63620E9B84F85C
S11333402D20E761A3622B7A84F83630204B73601A
S1133350204BB360204B3361204B7361204B3460AE
S1133360F360FDF725FD30B11E4B984203D01024C5
S1133370204607B0F0BD002104F10800FDF7A0FCD1
S11333800028F4D1184B0494CDE9020301272369E2
S1133390019300976368E2682168207A01F0AFFB2B
S11333A004460028E3D195F90830002B0BDB03F029
S11333B01F025B099B0003F1604303F561439740DF
S11333C0C3F880711F603046FFF764FDD0E700BF8B
S11333D039320000AD2F0000994C00009F4C0000D2
S11333E0A1310000038000F0392F00002DE9F041E5
S11333F086B01C46524B0C9D0293524B01930126FE
S113340000230093CDE903664F4B90460A462946B4
S1133410FFF770FF0746002856D12368AB63636843
S1133420EB63637A85F84130237A85F84030E37A98
S113343085F84330A37A85F84230637B85F84530BC
S1133440237B85F84430E37B85F84730A37B85F8FC
S113345046303E483146FDF755FE3D483146FDF7BE
S113346051FE617A207A33460422FEF7D1FE3346B8
S11334700222E17AA07AFEF7CBFE60683146FDF7BE
S113348041FE88F8007041462068FFF7D9FB2268A6
S1133490536F43F003035367936F617C23F4F85332
S11334A023F01F0343EA0123A17C0B439367032307
S11334B0536785F8487098F81920202A28D007D82F
S11334C0E2B1102A38D02327384606B0BDE8F0818F
S11334D0302AF8D185F8483002220023617B207B12
S11334E0FEF796FE2368E27CDA675A6E42F0040225
S11334F05A665A6F42F010025A6766B9AA6B20687E
S1133500D36C43F00403D3640521FFF73FFBDBE7EF
S1133510022385F84830E17BA07B00230422FEF7D8
S113352077FE2368217DDA6F42EA0122DA675A6F57
S113353042F020025A67E1E733463E46CAE700BF3D
S1133540B14C0000A54C0000294D0000404105008D
S113355000350A0030B50E4C416123688BB92060F8
S113356083600DE0891A9A6841611D466AB1134669
S11335705A698A42F6D935B1A860521A83605A61F1
S113358030BD0025F4E72060F7E798608260F7E734
S1133590C412002038B500F01BFA094C094B1A6814
S11335A023680025C31A2AB123B15169994203D370
S11335B0C91A5161206038BD55615B1A9268F2E7FF
S11335C0C0120020C412002038B5134D2B685B696B
S11335D093B1124A146802201C4400F02DFA2046CC
S11335E000F0FCF90E492A6800230B70D08880078C
S11335F009D501230B7038BD022000F01DFA02200A
S113360000F040FAEEE79268002AF4D050690344CF
S1133610012BEBD9EFE700BFC4120020C012002039
S11336204114002070B516469DF814200271049AC6
S11336300260C0E903360022BDF8183082600446F7
S11336400D46C380EEB900F0C3F92844A0619DB1D2
S11336502E4601F073FA0546FFF79CFF31462046DB
S1133660FFF778FF104B1B68A34201D1FFF7ACFFB3
S1133670284601F067FA02E0E36865617BB900203F
S113368070BD00F0A5F93044A061002DE0D1E368DD
S11336906561002BDDD0216820469847D9E7216871
S11336A020469847EBE700BFC41200200C490B6882
S11336B000227BB183420AD183687AB19360836824
S11336C01BB15A6941690A445A61002070471A467D
S11336D09B68EEE70028EFD0022070470B60EEE70E
S11336E0C412002070B5154E01F02FFA3478054647
S11336F0FCB9134B1C60134B1C60134B1C8000F073
S113370021F9012000F098F900F0DCF90F4B024692
S1133710186020B9284601F01EFA232070BD234604
S11337200B4840F2E73100F003FA0A4B186001231A
S11337303370284601F00FFA0020EFE7421400200E
S1133740C4120020C01200201A140020C812002045
S113375018FCFFFFBC12002038B50C460546A8B182
S1133760A1B100230B7001F0F0F9094B1B68012192
S113377033B901F0F0F9002038BD9D4204D1217025
S11337802278002AF9D0F4E79B68F1E72220F3E7D6
S1133790C412002038B5074B1D680446002140F2CE
S11337A0E7304FF47A720023E5FB040100F0C0F91E
S11337B038BD00BFC812002000B58DB001238DF8BC
S11337C00F30FFF7E7FF0023CDE900330146074A36
S11337D00DF10F0304A801F0E9FA18B99DF80F30B0
S11337E0002BFBD10DB05DF804FB00BFA74D00001A
S11337F02DE9F843C20704460BD54E4A138801331A
S11338009BB21380FFF7C6FE4B4B1B680BB1FFF74F
S1133810DBFEA30740F18B8001F097F90546FFF723
S1133820B9FE4FF00008444F46463C680CB163694A
S11338308BB1424B0022012E1A7003D118F0020FF3
S113384018BF1E70002C6ED0FFF7BEFE2846BDE8E0
S1133850F84301F080B923465A693AB91A792179B3
S1133860914288BF1C469B68002BF5D1284601F085
S113387072F92569DDB100F0ABF8A269A0EB02088A
S11338804FEAE873A84573F1000311DB236913447D
S1133890A361E368B4F80680013613B121682046B9
S11338A0984701F052F90546FFF774FEBDE7A846B4
S11338B001F04BF981462046FFF7F8FE484601F037
S11338C04AF92369002BE4D0B5EB08054FEAE87305
S11338D063EB4303012D73F1000304DA184840F24B
S11338E02B5101F0F4F8A38B33B1E28B13449BB258
S11338F0B3F57A7F0FD2E38301F027F92946804696
S11339002046FFF727FEA36922691344A3614046BA
S113391001F021F9BDE7A3F57A73E383A369013BC1
S1133920013DA361E8E7022000F094F88EE7BDE8CA
S1133930F88300BF1A140020C41200204014002091
S11339405E58000010B586B01D4B1868596803AA6C
S113395003C2197AD3F8090011700024B3F80D20BA
S11339600190DB7B1748ADF8082001218DF80A305F
S1133970FDF7C8FB8DF80C4001F03CFA8DF81000FF
S113398003A8FFF725F801A901208DF80440FEF7EC
S1133990EDFF0D4A536A23F4FF6323F007035362D8
S11339A040F2FF73136201209460FFF70BF8074B9A
S11339B04FF00042C3F880211A6006B010BD00BF6A
S11339C0B7580000A00914000020044000E100E002
S11339D0014B9868704700BF0020044010B50446AE
S11339E001F0ACF8124A9368516D9269520704D4FD
S11339F0CA1A032A01D88B420DD1E21A022A98BFAF
S1133A00DC1C0B4BB4F1FF3F38BF013C5C655A6AC8
S1133A1042F004025A6201F095F8064A137833B171
S1133A2003490B6D43F002030B650023137010BDB3
S1133A3000200440971000208207054A00F001038B
S1133A40516A48BF43F004030B435362704700BFFD
S1133A5000200440820700F0010309D5074A012130
S1133A60117007490A6D22F0030243F004030A654A
S1133A7003494A6A22EA03034B6270479710002005
S1133A8000200440830742BF014B0422DA617047DF
S1133A900020044010B501F058F8094A936904461F
S1133AA0590703F0010003F0070348BF40F0020088
S1133AB01362FFF79DFE2046BDE8104001F04BB8AD
S1133AC00020044008B50448FDF7AAFC034601F0B1
S1133AD091F923FA00F008BDA009140010B50446BA
S1133AE0FCF7B0FE4FF47A729042B0FBF2F105D2CB
S1133AF03621BDE810400B4800F0E9BF0A4BB3FB88
S1133B00F1F30A49884201D93C21F2E702FB04F0AF
S1133B10B0FBF3F0032804D9BDE810408008FCF79B
S1133B20EFBA10BDC758000040420F00E7CD9A3BE2
S1133B3053B94AB9002908BF00281CBF4FF0FF3110
S1133B404FF0FF3000F06AB9ADF1080C6DE904CE16
S1133B5000F006F8DDF804E0DDE9022304B0704764
S1133B602DE9F047089D0C46002B4ED194468C4518
S1133B708646B2FA82F262D94AB1C2F12003914078
S1133B8020FA03F30CFA02FC194300FA02FE4FEA8E
S1133B901C471FFA8CF6B1FBF7F44FEA1E4307FBF0
S1133BA0141143EA014304FB06F199420AD91CEBC0
S1133BB0030304F1FF3080F01381994240F2108135
S1133BC0023C6344591A1FFA8EF3B1FBF7F007FB6A
S1133BD0101143EA014300FB06F69E420AD91CEB8E
S1133BE0030300F1FF3180F0FD809E4240F2FA8031
S1133BF0634402389B1B40EA044000211DB1D340BA
S1133C000022C5E90032BDE8F0878B4205D90DB129
S1133C10C5E9000100210846F5E7B3FA83F100295C
S1133C2046D1A34202D39042C0F0F180861A64EBDD
S1133C3003030120002DE6D0C5E90063E3E7002A71
S1133C4040F09180A1EB0C044FEA1C481FFA8CF75A
S1133C500121B4FBF8F64FEA1E4308FB164443EA7D
S1133C60044307FB06F0984208D91CEB030306F152
S1133C70FF3402D2984200F2CE8026461C1A1FFA64
S1133C808EF3B4FBF8F008FB104443EA044300FB52
S1133C9007F79F4208D91CEB030300F1FF3402D25B
S1133CA09F4200F2B1802046DB1B40EA0640A5E7B4
S1133CB0C1F120068B4022FA06F71F4320FA06FCC6
S1133CC004FA01F343EA0C03F44000FA01F8380C57
S1133CD04FEA1349B4FBF0FE1FFA87FC00FB1E44B5
S1133CE049EA04440EFB0CF9A14502FA01F20AD98F
S1133CF03C190EF1FF3A80F08580A14540F28280A4
S1133D00AEF1020E3C44A4EB09041FFA83F9B4FBA0
S1133D10F0F300FB134449EA044403FB0CFCA44500
S1133D2007D93C1903F1FF3068D2A44566D9023B98
S1133D303C4443EA0E40A0FB0293A4EB0C049C42D7
S1133D40CE469C4652D34FD055B1B8EB0E0364EB2C
S1133D500C0404FA06F6CB40CC401E43C5E90064CB
S1133D600021BDE8F087C2F1200320FA03F10CFA28
S1133D7002FC24FA03F394400C434FEA1C4800FA73
S1133D8002FE1FFA8CF7B3FBF8F008FB1031230C8A
S1133D9043EA014300FB07F1994208D91CEB0303F2
S1133DA000F1FF362CD299422AD9023863445B1AB7
S1133DB0A4B2B3FBF8F108FB113344EA034401FB5A
S1133DC007F3A34208D91CEB040401F1FF3613D214
S1133DD0A34211D902396444E41A41EA004138E7A4
S1133DE00446EFE6084605E7C845ADD2B9EB020E36
S1133DF063EB070C0138A7E73146EDE7034698E784
S1133E003046D4E7D6467EE7634402384CE706469C
S1133E10234608460EE7023E63442FE7704700BF7F
S1133E2008B5064B044613B10021AFF30080044BE0
S1133E301B6803B19847204600F016FF00000000FD
S1133E4004140020002310B50446C0E90033C0E97F
S1133E500433836081814366C281836119460822E9
S1133E605C3001F042F80D4B63620D4BA3620D4BC5
S1133E70E3620D4B23630D4B24629C4206D003F195
S1133E806802944202D0D0339C4205D104F1580018
S1133E90BDE8104001F031B810BD00BF654E000010
S1133EA0874E0000BF4E0000E34E0000CC120020FD
S1133EB0024A0349034800F0B7BF00BF3410002092
S1133EC0515100004410002041680C4B994210B538
S1133ED0044601D001F03CF9A168094B994202D093
S1133EE0204601F035F9E168064B994204D020469A
S1133EF0BDE8104001F02CB910BD00BFCC12002069
S1133F00341300209C13002010B50B4B0B4C0C4AAF
S1133F101A60204600220421FFF794FF04F1680090
S1133F2001220921FFF78EFF04F1D0000222BDE82F
S1133F3010401221FFF786BF04140020CC12002089
S1133F40B13E0000014800F0D9BF00BF4414002076
S1133F50014800F0D4BF00BF4414002010B504464B
S1133F60FFF7F0FF236A1BB1BDE81040FFF7F0BF75
S1133F70044B2362044B1B68002BF5D1FFF7C4FFED
S1133F80F2E700BFC93E0000041400202DE9F74306
S1133F901D46574B1F6804460E46904627B13B6AA0
S1133FA013B93846FFF7DAFFB8F1020F06D0B8F1BB
S1133FB0010F00F29A80002DC0F29780636ED9073A
S1133FC005D4A3899A0502D4A06D00F097FF214679
S1133FD0384601F0BDF8616B41B104F144039942E4
S1133FE002D0384600F0FAF8002363630023A3618B
S1133FF06360A3891B0603D52169384600F0EEF8F7
S1134000A38923F44A6323F00303B8F1020FA381C5
S113401061D001AB6A462146384601F0C1F8A38954
S11340201843A0812DBB009D284600F021F90646C7
S1134030002852D1DDF80090A94540D14FF0FF355A
S1134040B4F90C3043F00202A2810022A26004F110
S113405047022260226101226261626ED60704D4A3
S1134060980502D4A06D00F04AFF284603B0BDE8CD
S1134070F083002ED8D03B6A13B93846FFF76EFFA1
S1134080B8F1010F08BFA389266004BF43F0010300
S1134090A381B4F90C3013F00802C4E904651ED0FE
S11340A0D90741BF00226D42A260A56158BFA56037
S11340B0626ED20701D49B0513D50025D5E7484687
S11340C000F0D6F806460028B8D0A38943F0800350
S11340D0A3814D46CFE70025B2E7A946F5E7A260E4
S11340E0E6E7A06D00F00BFFE7E74FF0FF35BCE714
S11340F0401000200B46034902460868816800F01E
S113410065B900BF4010002038B5064D00230446B1
S113411008462B6000F0A6FD431C02D12B6803B1B6
S1134120236038BD0814002038B5074D04460846FE
S1134130114600222A601A4600F09EFD431C02D15B
S11341402B6803B1236038BD0814002038B5074D2F
S113415004460846114600222A601A4600F08EFDE5
S1134160431C02D12B6803B1236038BD081400201E
S113417038B5074D04460846114600222A601A46FF
S1134180FEF7A0FE431C02D12B6803B1236038BDA7
S11341900814002070B50D4D0D4C641BA4100026AE
S11341A0A64209D10B4D0C4C01F09AF8641BA410E3
S11341B00026A64205D170BD55F8043B9847013648
S11341C0EEE755F8043B98470136F2E798100020D3
S11341D098100020981000209C10002038B5054647
S11341E0002941D051F8043C0C1F002BB8BFE4183F
S11341F000F0E0F81D4A136833B963601460284680
S1134200BDE8384000F0DCB8A34208D92068211882
S11342108B4201BF19685B6809182160EDE71A46F3
S11342205B680BB1A342FAD911685018A0420BD1B4
S113423020680144501883421160E0D118685B681B
S1134240536008441060DAE702D90C232B60D6E7E8
S1134250206821188B4204BF19685B68636004BF3F
S1134260091821605460CAE738BD00BF101400204B
S1134270024B0146186800F025B800BF401000202A
S113428070B50F4E0C463168054611B900F05AFB63
S113429030602146284600F055FB431C03D14FF003
S11342A0FF34204670BDC41C24F00304A042F8D09F
S11342B0211A284600F046FB0130F2D1EFE700BF97
S11342C00C1400202DE9F041CD1C25F00305083520
S11342D00C2D38BF0C25002D064601DBA94204D95C
S11342E00C2333600020BDE8F081314F00F062F808
S11342F03B681C4644BB29463046FFF7C1FF431CBC
S1134300044650D13C682146002941D1002C44D0B8
S11343102368304604EB030800F014FB80453CD1CD
S113432021686D1A29463046FFF7AAFF013034D0C0
S113433023682B4423603B68002B36D05A68A24282
S113434029D100225A600EE02268521B1DD40B2A88
S113435016D96119A342256018BF5960636808BF64
S1134360396062514B60304600F02AF804F10B00CA
S1134370231D20F00700C21AB5D01B1AA350B2E7C0
S1134380A3426268DED13A60EDE723466468B1E790
S11343900C464968B8E71346CEE70C233360304631
S11343A000F00EF89EE70560DDE75B60FFDE00BF0E
S11343B010140020014800F0A1BD00BF43140020E8
S11343C0014800F09CBD00BF431400202DE9F04FCC
S11343D00D469DB014469846064618B1036A0BB9BB
S11343E0FFF7BCFD6B6ED90705D4AB899A0502D4DF
S11343F0A86D00F083FDAB891B0701D52B699BB920
S11344002946304600F026FA70B16B6EDC0704D5FD
S11344104FF0FF301DB0BDE8F08FAB899805F7D49D
S1134420A86D00F06CFDF3E70023099320238DF8B9
S11344302930CDF80C803023DFF8AC818DF82A3098
S11344404FF0010923469A4613F8012B0AB1252A95
S1134450F9D1BAEB040B0BD05B4622462946304611
S113446000F073FD013000F0A780099A5A440992C4
S11344709AF80030002B00F09F8000234FF0FF32A9
S1134480CDE905230AF1010A049307938DF853300B
S11344901A935446052214F8011B5348FBF738FEBF
S11344A0049AD8B9D10644BF20238DF8533013079A
S11344B044BF2B238DF853309AF800302A2B15D0A3
S11344C0079A544600204FF00A0C214611F8013B8C
S11344D0303B092B4BD9B0B1079214E0A0EB080391
S11344E009FA03F313430493A246D2E7039B191D6D
S11344F01B680391002BBBBF5B4242F0020207938F
S11345000793B8BF049223782E2B0AD163782A2B01
S113451032D1039B1A1D1B68039243EAE3730234EE
S11345200593DFF8D4A0217803225046FBF7F0FD71
S113453038B1049BA0EB0A004022824013430134AB
S1134540049314F8011B29488DF828100622FBF760
S1134550DFFD00283FD0264B1BBB039B073323F012
S1134560070308330393099B3B4409936AE70CFB55
S113457002320C460120A8E70023013405931946B2
S11345804FF00A0C204610F8012B303A092A03D9BF
S1134590002BC6D00591C4E70CFB0121044601237E
S11345A0F0E703AB00932A46124B04A93046AFF35D
S11345B000800746781CD6D16B6ED90705D4AB8929
S11345C09A0502D4A86D00F09AFCAB895B063FF50E
S11345D01FAF09981EE703AB00932A46054B04A9B5
S11345E0304600F00BF8E4E71859000022590000A7
S11345F0000000004B4F00001E5900002DE9FF474A
S11346000F7E0C9E782F914680460C469A4601F107
S1134610430207D8622F0AD8002F00F0DD80582FFC
S113462000F0C38004F1420684F842703AE0A7F136
S11346306303152BF6D801A151F823F09546000029
S1134640A946000025460000254600002546000036
S113465025460000A9460000254600002546000026
S11346602546000025460000BF47000037470000EC
S1134670774700002546000025460000E14700007A
S11346802546000037470000254600002546000067
S11346907F47000033681A1D1B68326004F142062C
S11346A084F842300123A8E031682368081D306093
S11346B01E0601D50D6803E05D06FBD5B1F9005077
S11346C06168002D78DA2D20002984F84300A16068
S11346D02DDA5E486D420A231646B5FBF3F103FB5F
S11346E01157C75D06F8017D2F46BB420D46F4D92C
S11346F0082B0BD12368DF0708D523696168994229
S1134700DEBF302306F8013C06F1FF36921B22611E
S1134710CDF800A04B4603AA2146404600F027FCF2
S113472001306FD14FF0FF3004B0BDE8F08723F0C3
S113473004032360CDE721683368080653F8045B5B
S113474002D4490648BFADB26F2F4048336014BF4E
S11347500A230823002184F843106668A660002E0B
S1134760BADB216821F004012160002DB4D1002EB0
S1134770B2D11646BCE7236843F0200323603448D3
S1134780782784F84570236831681F0651F8045B64
S113479002D45F0648BFADB23160D90744BF43F0CD
S11347A0200323601DB11023D4E72848E9E72368D8
S11347B023F020032360F6E724480A23CDE7336877
S11347C025686169181D30602E061B6801D51960C3
S11347D002E06806FBD5198000232361164697E79B
S11347E033681A1D32601E68626800213046FBF788
S11347F08FFC08B1801B606063682361002384F828
S1134800433085E72369324649464046D047013064
S113481088D023689B0714D4E068039B9842B8BFF0
S1134820184681E70123324649464046D0470130C5
S11348303FF478AF0135E36803995B1AAB42F1DCCE
S1134840EAE7002504F11906F5E700BF295900003D
S11348503A59000038B5294B054618680C4618B17A
S1134860036A0BB9FFF77AFBB4F90C30190722D4A9
S1134870DA0607D409222A6043F04003A3814FF0EB
S1134880FF3033E0580712D5616B41B104F14403A2
S1134890994202D02846FFF7A1FC00236363A38951
S11348A023F02403A3810023636023692360A38985
S11348B043F00803A38123694BB9A38903F420734C
S11348C0B3F5007F03D02146284600F08FFCB4F9ED
S11348D00C3013F001020AD00022A2606269524235
S11348E0A261226942B913F08000C5D138BD99078D
S11348F058BF6269A260F4E70020F7E74010002087
S113490038B5074D00230446084611462B6000F0D5
S1134910ACF9431C02D12B6803B1236038BD00BF3E
S11349200814002038B5064D0023044608462B60C1
S113493000F0A0F9431C02D12B6803B1236038BDF9
S11349400814002038B5064D0023044608462B60A1
S1134950FBF7B4FF431C02D12B6803B1236038BDBD
S113496008140020704770470378407800F0FE0078
S113497000EB03207D235843000C0638704710B524
S11349800246014400208A4200D110BD12F8013BC6
S11349900824584010F0800F4FEA400318BF83F0FA
S11349A03103D8B2631E13F0FF04F3D1EBE700F038
S11349B02AB808B5FBF792FFFBF758FDBDE808409D
S11349C000F066B808B500F01CF8FEF78BFEFEF7A1
S11349D089FABDE80840FBF7B7BD7047FBF7E8BDAF
S11349E07047704770477047FBF7BCBD704770470E
S11349F008B50123042205210020FDF709FC00204D
S1134A0008BDFFF7F5BF08B50023184604220521A9
S1134A10FDF7FEFB002008BD70B5002506462C46B8
S1134A20052C20D8DFE804F003070B0F13175B21D4
S1134A300820FBF7B9FF0C210820FBF7B5FFD121B3
S1134A400820FBF7B1FF80210820FBF7ADFF002110
S1134A500820FBF7A9FF294608206C1CFBF7A4FFDC
S1134A60E4B225460624A4F10E03012B05D85A21ED
S1134A700820FBF799FF0134D2E7102C05D1BDE8DB
S1134A8070405D210820FBF78FBFB31F195DEFE76E
S1134A9008B5082000F01CF8BDE80840082000F024
S1134AA022B807B520F07F4040EA817001230190CD
S1134AB068468DF80030FFF7AFFF03B05DF804FBE4
S1134AC0FEE74FF4004070474FF47A707047FEE7FA
S1134AD04FF060420123D2F8001E83400B43C2F81A
S1134AE0003E002070474FF060410122D1F8003EA3
S1134AF0824023EA0203C1F8003E0020704710B54B
S1134B0088B004460E9807900D9806909DF83000E2
S1134B1005900B9804909DF8280003900020CDE99F
S1134B20013000920B4622460121FCF70DF808B033
S1134B3010BD08B5FCF734FB013008BDEFF310805D
S1134B4072B6704700B962B67047EFF31180602304
S1134B5083F31188704780F31188704770B5054658
S1134B600E461446FFF7EAFF2B685C4034405C4075
S1134B702C60BDE87040FFF7E5BF03695A06FCD519
S1134B80416303699B06FCD5C069C0B270470369E1
S1134B905B06FCD54163704713B5684600240223C5
S1134BA000948DF804408DF80530FCF7D5FF2046BD
S1134BB002B010BD70B50C46154610B9FEF776F973
S1134BC038B143682BB12A4621460068BDE87040DD
S1134BD01847232070BDF7B50D4616461C4648B14C
S1134BE003B901AC87685FB12346324629460068A1
S1134BF0B84706E0FEF75AF904B901AC0028F1D130
S1134C00232003B0F0BDF8B50C461546064658B946
S1134C10FEF74CF920462946FFF76CFA0446002CAF
S1134C20D4BF37200020F8BDFEF740F9864207467E
S1134C30F0D03046FEF72EF929462046FFF75AFAFF
S1134C4004463846FEF726F9E9E70EB403B503AA8D
S1134C5052F8041B0192FFF7D6FF02B05DF804EB93
S1134C6003B0704700207047FEE74FF400534B60D9
S1134C7000207047012070470020704707B501AB42
S1134C8000200190FFF7A7FF0198002808BF4FF00C
S1134C90FF3003B05DF804FB80F82C10704790F8E7
S1134CA02C007047826BD36C43F00403D3647047C9
S1134CB010B5826B044613695906FCD500231A46C5
S1134CC094F8411094F84000FDF7A2FA00231A4624
S1134CD094F8431094F84200FDF79AFA94F8483097
S1134CE0DA0707D5002394F8451094F844001A46CF
S1134CF0FDF78EFA94F848309B0707D5002394F803
S1134D00471094F846001A46FDF782FAA06BC36C6C
S1134D1023F00403C3640021FDF738FFE06B002196
S1134D20FCF7F0F9002010BD08B5806BFFF72FFFEA
S1134D30002008BD38B50468237EA06B33B9C36C6A
S1134D4023F00403C3640123237638BD637E2BB3AD
S1134D5094F82D3013B3002584F835501321FFF750
S1134D6016FFA36BDA6C42F00402DA64DB69DBB28F
S1134D70112B0ED1012384F83430237A302253438B
S1134D8003F1804303F56223D3F89430013B23639A
S1134D90DBE7132BD9D184F83450EEE7C36C23F04E
S1134DA00403C364D1E700230B707047F0B587B0E8
S1134DB01F4600230D4616468DF817300446A8B149
S1134DC0C3610DF11701FEF7C7FC9DF817207AB9EE
S1134DD0BDF8343002939DF830302946CDE9007394
S1134DE020463346FEF71EFC07B0F0BD2220FBE749
S1134DF00320F9E70020704708B5FBF7EFFAFFF747
S1134E00D8FDFFF7DFFDFFF7E8FDBDE80840FFF739
S1134E10E5BD08B5FFF7E4FDFFF7E3FDFFF7E2FDAD
S1134E20BDE80840FFF7DFBD2DE9F8430746884693
S1134E3014460026D4E90195B9F1010905D5246881
S1134E40002CF7D13046BDE8F883AB89012B07D994
S1134E50B5F90E30013303D029463846C04706431E
S1134E606835E9E710B50C46B1F90E10FFF76EF995
S1134E700028ABBF636DA3891B1823F48053ACBF18
S1134E806365A38110BD2DE9F0411F468B89DB05C5
S1134E9005460C46164605D5B1F90E10022300222C
S1134EA0FFF742F9A389B4F90E1023F48053A381C8
S1134EB032463B462846BDE8F041FFF759B910B5E4
S1134EC00C46B1F90E10FFF72FF9431CA38915BF47
S1134ED0606523F4805343F48053A38118BFA381F6
S1134EE010BDB1F90E10FFF70FB902440346934207
S1134EF000D1704703F8011BF9E77047704770470A
S1134F000A44914200F1FF3300D1704710B511F803
S1134F10014B03F8014F9142F9D110BD9368013B55
S1134F20002B10B4936008DA9469A34201DB0A29C8
S1134F3003D15DF8044B00F095B91368581C106058
S1134F40197008465DF8044B7047F8B506460F46DD
S1134F501446D518AC4201D1002007E014F8011B17
S1134F603A463046FFF7DAFF431CF3D1F8BD2DE98A
S1134F70F047164698468A680B69DDF820909342FC
S1134F80B8BF1346336091F8432007460C460AB174
S1134F90013333602368990642BF336802333360B8
S1134FA0256815F0060506D104F1190AE36832688C
S1134FB09B1AAB4226DC94F843302268003B18BFAE
S1134FC0012392062BD404F1430241463846C847D4
S1134FD001301ED02368226903F00603042B02BFAC
S1134FE0E5683368ED1AA3680CBF25EAE57500256A
S1134FF09342C4BF9B1AED1800261A34B5421AD145
S1135000002008E00123524641463846C847013093
S113501003D14FF0FF30BDE8F0870135C6E7E11852
S11350205A1C302081F84300224494F8451082F839
S113503043100233C7E70123224641463846C84796
S11350400130E6D00136D9E7B1F90C202DE9F04161
S1135050170705460C4656D44B68002B02DC0B6C34
S1135060002B3DDDE66A002E3AD0002312F4805274
S11350702F68216A2B6025D0626DA389580705D556
S11350806368D21A636B0BB1236CD21A216AE66A85
S113509000232846B047411C24D0002363602369C1
S11350A02360A389DA0400D56065616B2F60B9B110
S11350B004F14403994202D02846FFF78FF80023F5
S11350C063630DE001232846B047461C0246D4D151
S11350D02B68002BD1D01D2B01D0162B2BD12F6088
S11350E000202FE02A68B4F90C3042B11D2A01D007
S11350F0162A22D10023636023692360D5E7626006
S113510022692260CEE70F69002FE9D093070E6869
S113511008BF4B690F6018BF0023A6EB07088B601C
S1135120B8F1000FDCDD216AA66A43463A462846F8
S1135130B047002808DCB4F90C3043F04003A381E5
S11351404FF0FF30BDE8F0810744A8EB0008E7E723
S113515038B50B6905460C4613B90025284638BDF9
S113516018B1036A0BB9FEF7F9FEB4F90C30002B41
S1135170F3D0626ED00704D4990502D4A06DFFF772
S1135180BDFE28462146FFF75FFF636EDA0705463A
S1135190E4D4A3899B05E1D4A06DFFF7B0FEDDE75D
S11351A070B50C46B1F90E10002996B015461E468E
S11351B00DDAA38913F0800F4FF0000114BF4023D0
S11351C04FF48063002031602B6016B070BD6A46D6
S11351D0FFF796FB0028ECDB019901F47041A1F57F
S11351E00053594259414FF48063EBE78B89F7B57B
S11351F09D0706460C4607D504F147032360236147
S11352000123636103B0F0BD01AB6A46FFF7C8FF39
S1135210009F054639463046FFF754F848B9B4F9BB
S11352200C309A05EED423F0030343F00203A38168
S1135230E2E7A389206043F08003A381019BC4E9D2
S113524004075BB1B4F90E103046FFF76BFB28B1CD
S1135250A38923F0030343F00103A381A3891D431E
S1135260A581CFE7F8B50E461446054618B1036A82
S11352700BB9FEF773FEA369A360A3891A0701D5CE
S1135280236943B921462846FFF7E4FA18B14FF0E1
S1135290FF373846F8BD23682269981A6369F6B265
S11352A08342374605DC21462846FFF751FF002894
S11352B0EDD1A368013BA36023685A1C22601E70D1
S11352C06269431C9A4204D0A389DB07E1D50A2E04
S11352D0DFD121462846FFF73BFF0028D9D0D6E787
S11352E0F8B500BFF8BC08BC9E467047F8B500BFCF
S11352F0F8BC08BC9E467047000000000000000097
S11353000000000000000000000000000000000099
S11353100000000000000000000000000000000089
S113532043524320484D206D656173757265206951
S11353307320747275650D0A004352432046414937
S11353404C45440D0A005B495D200052656C617454
S11353506976652048756D6964697479203D2025F6
S11353606C6425250D0A002E2E2F6175746F6765F8
S11353706E2F736C5F696F73747265616D5F696EB4
S113538069745F75736172745F696E7374616E635F
S113539065732E630000000005000000000000009B
S11353A000C2010000050000001000000000000021
S11353B000000000453A2F5448494F542F67656355
S11353C06B6F5F73646B5F345F345F352F67656346
S11353D06B6F5F73646B5F345F345F352F6861722A
S11353E064776172652F626F6172642F7372632FC9
S11353F0736C5F626F6172645F636F6E74726F6C03
S11354005F6770696F2E63000500000000000000F4
S113541040420F00050100000000000000000000F1
S113542000000000453A2F5448494F542F676563E4
S11354306B6F5F73646B5F345F345F352F676563D5
S11354406B6F5F73646B5F345F345F352F706C61B7
S113545074666F726D2F6472697665722F69326338
S113546073706D2F7372632F736C5F693263737023
S11354706D2E6300653A5C7468696F745C6765637C
S11354806B6F5F73646B5F345F345F355C67656358
S11354906B6F5F73646B5F345F345F355C706C613A
S11354A074666F726D5C656D6C69625C696E635C79
S11354B0656D5F6770696F2E68003F0000F8C00F6C
S11354C000FE0000FF0007000003453A2F5448493E
S11354D04F542F6765636B6F5F73646B5F345F3426
S11354E05F352F6765636B6F5F73646B5F345F3425
S11354F05F352F706C6174666F726D2F656D6C69AA
S1135500622F7372632F656D5F636D752E63000088
S113551040787D0100000000005A62020001000092
S1135520C0CF6A0002000000809FD5000201000085
S1135530002D310102020000453A2F5448494F54CE
S11355402F6765636B6F5F73646B5F345F345F35C4
S11355502F6765636B6F5F73646B5F345F345F35B4
S11355602F706C6174666F726D2F656D6C69622F3C
S11355707372632F656D5F656D752E6300453A2FF9
S11355805448494F542F6765636B6F5F73646B5F57
S1135590345F345F352F6765636B6F5F73646B5F74
S11355A0345F345F352F706C6174666F726D2F6574
S11355B06D6C69622F7372632F656D5F6770696FBD
S11355C02E6300003F0000F8C00F00FE0000FF0043
S11355D0453A2F5448494F542F6765636B6F5F7387
S11355E0646B5F345F345F352F6765636B6F5F7324
S11355F0646B5F345F345F352F706C6174666F72F7
S11356006D2F656D6C69622F7372632F656D5F69B1
S113561032632E630008091108453A2F5448494F54
S1135620542F6765636B6F5F73646B5F345F345FC4
S1135630352F6765636B6F5F73646B5F345F345FD3
S1135640352F706C6174666F726D2F656D6C696255
S11356502F7372632F656D5F6C646D612E630065DB
S11356603A5C7468696F745C6765636B6F5F7364DD
S11356706B5F345F345F355C6765636B6F5F736466
S11356806B5F345F345F355C706C6174666F726D30
S11356905C656D6C69625C696E635C656D5F6275A7
S11356A0732E6800453A2F5448494F542F67656359
S11356B06B6F5F73646B5F345F345F352F67656353
S11356C06B6F5F73646B5F345F345F352F706C6135
S11356D074666F726D2F656D6C69622F7372632FC0
S11356E0656D5F727463632E6300453A2F544849B5
S11356F04F542F6765636B6F5F73646B5F345F3404
S11357005F352F6765636B6F5F73646B5F345F3402
S11357105F352F706C6174666F726D2F656D6C6987
S1135720622F7372632F656D5F73797374656D2E69
S11357306300453A2F5448494F542F6765636B6F94
S11357405F73646B5F345F345F352F6765636B6FC2
S11357505F73646B5F345F345F352F706C617466A4
S11357606F726D2F656D6C69622F7372632F656D37
S11357705F75736172742E630000000108070F00E7
S11357800A00C8002000A000010000000000A000E2
S113579068010A200706020A040700000002070045
S11357A0453A2F5448494F542F6765636B6F5F73B5
S11357B0646B5F345F345F352F6765636B6F5F7352
S11357C0646B5F345F345F352F706C6174666F7225
S11357D06D2F736572766963652F696F7374726573
S11357E0616D2F7372632F736C5F696F737472656D
S11357F0616D5F72657461726765745F7374646907
S11358006F2E6300453A2F5448494F542F67656300
S11358106B6F5F73646B5F345F345F352F676563F1
S11358206B6F5F73646B5F345F345F352F706C61D3
S113583074666F726D2F736572766963652F696F15
S113584073747265616D2F7372632F736C5F696F0C
S113585073747265616D5F756172742E6300453A8D
S11358602F5448494F542F6765636B6F5F73646BA4
S11358705F345F345F352F6765636B6F5F73646B91
S11358805F345F345F352F706C6174666F726D2F97
S1135890736572766963652F736C65657074696D81
S11358A065722F7372632F736C5F736C65657074AC
S11358B0696D65722E6300010000000500000000A0
S11358C002000003000000453A2F5448494F542F6A
S11358D06765636B6F5F73646B5F345F345F352F31
S11358E06765636B6F5F73646B5F345F345F352F21
S11358F0706C6174666F726D2F736572766963651F
S11359002F7564656C61792F7372632F736C5F7587
S113591064656C61792E6300232D302B2000686C44
S11359204C006566674546470030313233343536BE
S113593037383941424344454600303132333435F7
S10F594036373839616263646566000024
S10B594CF0A8FF7F0100000038
S10F595460590000001000202800000032
S113596000C00040020A020B0E10000000000000FC
S1135970606701000000000000C00040C0EA21018F
S1135980C0EA21010080000000F049024814002010
S1135990C0EA21010000000003000000CC12002036
S11359A04410002000000000CC120020341300201A
S11359B09C13002000000000000000000000000014
S11359C000000000000000000000000000000000D3
S11359D000000000000000000000000000000000C3
S11359E000000000000000000000000000000000B3
S11359F0FFFFFFFF1F04010119020000F101000075
S90307896C
