S00C000075736172742E733337B9
S11300000010002005040000AD1B0000AD1B000023
S1130010AD1B0000AD1B0000AD1B0000AD1B0000BC
S1130020AD1B0000AD1B0000AD1B0000AD1B0000AC
S1130030AD1B0000AD1B0000AD1B0000AD1B00009C
S1130040AD1B0000AD1B0000AD1B0000AD1B00008C
S1130050AD1B0000AD1B0000AD1B0000AD1B00007C
S1130060AD1B0000AD1B0000AD1B0000AD1B00006C
S1130070AD1B0000AD1B0000AD1B0000AD1B00005C
S1130080AD1B0000AD1B0000AD1B0000AD1B00004C
S1130090AD1B0000AD1B0000AD1B0000AD1B00003C
S11300A0AD1B0000AD1B0000AD1B0000AD1B00002C
S11300B0AD1B0000AD1B0000AD1B0000AD1B00001C
S11300C0AD1B0000AD1B0000AD1B0000AD1B00000C
S11300D0AD1B0000AD1B0000AD1B0000AD1B0000FC
S11300E0AD1B0000AD1B0000AD1B0000AD1B0000EC
S11300F0AD1B0000AD1B0000AD1B0000AD1B0000DC
S1130100AD1B0000AD1B0000AD1B0000AD1B0000CB
S1130110AD1B0000AD1B0000AD1B0000AD1B0000BB
S1130120AD1B0000AD1B0000AD1B0000AD1B0000AB
S1070130AD1B0000FF
S11301340348044B834202D0034B03B1184770476E
S11301443C1000203C10002000000000064B07492E
S1130154C91A891048BF0131491003D0044B0BB1AB
S113016401481847704700BF3C1000203C10002091
S11301740000000010B5064C237843B9FFF7D8FFFC
S1130184044B13B10448AFF300800123237010BD62
S11301941C100020000000002C20000008B5054BB2
S11301A41BB105490548AFF30080BDE80840FFF7DB
S11301B4CDBF00BF00000000001000202C20000070
S11301C4A3F5803A704700BF174B002B08BF134BAD
S11301D49D46FFF7F5FF00218B460F461348144A4A
S11301E4121A01F0CEFD0E4B002B00D098470D4B94
S11301F4002B00D098470020002104000D000D4876
S1130204002802D00C48AFF3008001F03BFC20002E
S1130214290000F04DF801F023FC00BF00000800A1
S11302240000000000000000001000200010002066
S11302342010002000000000000000000123024AF6
S11302448340C2F8A030704700F003500123024AEF
S11302548340C2F8A030704700E0035000B589B071
S113026405234FF4E1328DF8043000234FF4A061E8
S1130274CDE902324FF48052CDE904124FF4A022A6
S11302840693ADF81C30084B0848C3F8C4254FF452
S1130294C022C3F8BC25142201A9C3F8AC2501F07B
S11302A419FA09B05DF804FB00C00350008005503E
S11302B410B501F04EFD01F009FC01F009FCFFF753
S11302C4CDFF01F01AFC144C01F050FD01F0FFFBCA
S11302D4204601F0D7FC01460028F9D0431E052B23
S11302E407D8DFE803F0030D0A0F16130220FFF703
S11302F4A5FF204601F0CCFCE6E70220FFF79EFFB1
S11303040320F4E70220FFF7A1FFF2E70220FFF73E
S11303149DFF0320F7E700BF0080055007B501A83F
S113032401F0F8F89DF80530012B27D11E4A936D8E
S1130334DB0313D4536B23F4FF0323F4FE4343F48A
S1130344BC1343F4A0635363136B23F4704343F467
S113035440431363136B43F4E06313639DF8043065
S113036463B94FF000531B68104B1B68104B1B6898
S1130374104B1B68104B1B68104B1B68104AD2F8B7
S1130384803043F00303C2F8803001F0D7FC00F05E
S113039423F801F0D1FC01F080FC01F0FFFA03B072
S11303A45DF804EB00F00EB800C0005000400020DB
S11303B40080002000C00020000001200040012033
S11303C40080005008B5034801F06EFCBDE8084005
S11303D401F0C5BBA81F0000014801F065BC00BFC3
S11303E4A81F00000348044A0449121A921001F099
S11303F4DCBB00BF340100003401000020100020E5
S113040408B500F02FF8FFF7EDFF124B12498B42A9
S113041412D30020114B12498B4218D3FFF7D4FE98
S1130424186850F82240586840F82240013298680D
S11304348242F5D30C33EAE70022F8E71C6844F857
S1130444220001325C68A242F8D30833E4E70022B4
S1130454F8E700BF342000004020000040200000E2
S11304644020000070B5124B124A134D9A60D3F821
S1130474882005F5005442F47002C3F888206FF014
S11304840102226641F2FF7262660222C3F8D0209E
S1130494BFF34F8FBFF36F8F4FF44036032001F047
S11304A4A9FA0320E66001F08BFA2E6170BD00BF47
S11304B400ED00E00000000000800044014B1868D7
S11304C4704700BF24100020014B1860704700BF20
S11304D424100020084B1B6F03F00703022B04D0E5
S11304E4032B05D0012B05D0FEE7044B1868704795
S11304F4034BFBE70348704700800050241000209E
S11305042C100020002D310108B5FFF7E3FF054B43
S11305141B6FC3F301330133B0FBF3F0024B1860D8
S113052408BD00BF00800050201000200048704720
S113053400B4C404014B1868704700BF2C10002099
S1130544054B1860054B1B6F03F00703032B01D104
S1130554FFF7DABF704700BF2C1000200080005062
S113056400487047002D3101174B9868C0F30440CC
S11305740C280AD8DFE800F00B0909090909072146
S113058419091B1D1F0011487047002070479B6800
S113059403F04073B3F1807F11D0B3F1007F10D026
S11305A40B4A002B08BF104670470A4870470A4894
S11305B470470A4870470A4870470A4870470A480F
S11305C470470A48704700BF0040015A405DC600A6
S11305D400093D00C0EA210180BA8C010048E80109
S11305E4005A62020024F40080841E0040420F007A
S11305F4014B1868704700BF2810002013B500246D
S11306042948019401F050FB0123042203212046CC
S113061400F038FF204601F034FB0122234B05206F
S1130624C3F8442401A901F03AFB002839D1204B32
S1130634D3F8F02042F00102C3F8F020D3F8FC20F0
S113064442F08072C3F8FC201A4AA3F55D431A6091
S1130654019B194A03F5D52303F2FC43B3FBF2F3DC
S1130664164A013B13610223C2F8F0304FF480733D
S1130674C2F804334FF06043114AC3F8B02F114A4F
S1130684C3F8802ED3F8002E42F48072C3F8002EEF
S1130694FF2283F82020D3F8002E22F48072C3F8BA
S11306A4002E02B010BD00BFA81F000000D00350EC
S11306B400ED00E0FF030040F8590D00000004E0E1
S11306C455CEACC50900010030B541F67133124A68
S11306D4124DD469D3639368A84204F4803423F498
S11306E4401306D893600E4AD2F8183223F002035A
S11306F40AE043F4801393600A4B9842F3D9084AFE
S1130704D2F8183243F00203C2F8183214B10022AA
S1130714014BDA6330BD00BF00000350005A62028B
S113072400C0075080F0FA0208B5334B98424FD00A
S113073427D8324B984245D017D8314B98423ED0F3
S11307440AD838B12F4B984239D041F2A6312E48F9
S113075401F03FFA002034E02C4B98422FD02C4B6C
S11307649842F2D12B4B586E2BE02B4B98422CD051
S113077403F5371303F5D8639842E6D1254B986FF4
S11307841FE0264B98422FD00CD8254B984223D0F7
S1130794244B984224D0244B9842D6D11D4BD3F8F1
S11307A484000EE0214B984222D003F5740303F530
S11307B410539842C9D1174BD3F8980001E0154B54
S11307C4986D08BD134B186FFBE7124B586FF8E78D
S11307D4104BD3F88000F4E70E4BD3F88800F0E70D
S11307E40C4BD3F88C00ECE70A4BD3F89000E8E701
S11307F4084BD3F89400E4E780BA8C01405DC6004A
S113080480841E0040420F00B81D000000093D0012
S1130814C0CF6A000080E00F0024F400007E560379
S113082480D54302006CDC020048E8010090D00348
S113083438B50F4B0546D3F880300C4603F0030358
S1130844022B09D0032B0FD00A4841F2FF1101F007
S1130854C0F90023184602E0FFF756FE0B2305B146
S1130864286004B1236038BDFFF77EFE0523F6E754
S113087400800050B81D000038B5164B0546D3F867
S113088420010C4600F00700042818D8DFE800F023
S11308941F030B0F1300FFF711FE042305B1286097
S11308A404B1236038BDFFF745FE0323F6E7FFF7E1
S11308B45BFE0523F2E7FFF753FE0223EEE7064847
S11308C441F27C2101F085F900231846E6E701236F
S11308D4E4E700BF00800050B81D000073B5002495
S11308E4144B0194D3F88031064603F00303022B1E
S11308F40D460FD0032B12D0012B15D1214601A88C
S1130904FFF7BAFF0D240EB1019A326005B12C60D1
S113091402B070BDFFF728FE05240190F3E7FFF74A
S11309241FFE02240190EEE741F2D131024801F0A6
S113093450F9E8E700800050B81D000038B5104BAA
S11309440546D3F840310C4603F00303022B0BD0C5
S1130954032B0DD0012B0FD101F035F9082305B178
S1130964286004B1236038BDFFF742FE0723F6E78D
S113097401F02CF90923F2E701230020EFE700BF7B
S11309840080005038B5104B0546D3F860310C464E
S113099403F00303022B0BD0032B0DD0012B0FD137
S11309A401F011F9082305B1286004B1236038BDAE
S11309B4FFF71EFE0723F6E701F008F90923F2E71F
S11309C401230020EFE700BF0080005038B5164B28
S11309D40546D3F800020C4600F00700042819D891
S11309E4DFE800F020030B0F130001F0ECF80823F8
S11309F405B1286004B1236038BDFFF7F9FD07236E
S1130A04F6E701F0E3F80923F2E7FFF77DFD0C2391
S1130A14800AEDE7054841F28F4101F0DAF800233A
S1130A241846E5E70123E3E700800050B81D000001
S1130A3438B5164B0546D3F808020C4600F00700F7
S1130A44042819D8DFE800F020030B0F130001F089
S1130A54BAF8082305B1286004B1236038BDFFF750
S1130A64C7FD0723F6E701F0B1F80923F2E7FFF71E
S1130A744BFD0C23800AEDE7054841F2C74101F020
S1130A84A8F800231846E5E70123E3E700800050B3
S1130A94B81D000038B5124B0546D3F840320C4655
S1130AA403F00303022B0BD0032B0DD0012B0FD126
S1130AB401F089F8082305B1286004B1236038BD26
S1130AC4FFF796FD0723F6E701F080F80923F2E720
S1130AD4044841F21A4101F07CF800231846EAE77D
S1130AE400800050B81D000038B5104B0546D3F8FB
S1130AF400310C4603F00303022B0BD0032B0DD05F
S1130B04012B0FD1FFF716FD032305B1286004B1AF
S1130B14236038BDFFF76CFD0723F6E701F051F8B5
S1130B240623F2E701230020EFE700BF0080005012
S1130B3410B503281BD005D8012805D0022810D0ED
S1130B4400240CE00F28FBD10B4B1C6FC4F30134BD
S1130B54022C04D140F27D21084801F03AF8601CCB
S1130B6410BD054BD3F89040C4F30464F7E7024B7B
S1130B741C6FC4F38024F2E700800050B81D000009
S1130B841FB500230193252874D8DFE800F0131956
S1130B941C262B353A50555A5F64696E73193F739A
S1130BA4735519262B26351950266E3A3A3A3A26A5
S1130BB426265A5FFFF78EFC0190019804B010BDFD
S1130BC4FFF7A2FCF8E7FFF785FC04460220FFF7D1
S1130BD4AFFFB4FBF0F40194EFE7FFF795FC044690
S1130BE40320F4E7FFF790FC04460320FFF7A0FF7B
S1130BF4B4FBF0F46408EEE7002101A8FFF76EFEED
S1130C04DBE7002101A8FFF737FED6E702934FF094
S1130C14E0231B695B0705D5FFF776FC0290029B72
S1130C240193CAE703A902A8FFF788FEF7E70021A6
S1130C3401A8FFF783FEC0E7002101A8FFF7A2FE85
S1130C44BBE7002101A8FFF7C1FEB6E7002101A814
S1130C54FFF7EEFEB1E7002101A8FFF745FFACE77B
S1130C64002101A8FFF7E4FDA7E7002101A8FFF78D
S1130C7411FFA2E74FF46C71014800F0AAFF9CE74E
S1130C84B81D000008B50120FFF77AFFBDE808404D
S1130C940349884294BF01210221032000F002B8D1
S1130CA480F0FA0210B503283DD00AD801280AD0EE
S1130CB4022826D040F21631BDE81040224800F044
S1130CC488BF0F28F6D14C1E012C06D9042904D060
S1130CD440F2C7211C4800F07CFF00F0A3FF00F0A1
S1130CE4A9FF1A4A136F23F4405343EA04331367E6
S1130CF4FFF70AFC0021FFF7E7FCBDE81040FFF70B
S1130D04C1BF4C1E1F2C04D940F20A310E4800F016
S1130D1460FF0E4AD2F8903023F0F85343EA046398
S1130D24C2F8903010BD4C1E012C04D94FF4447108
S1130D34054800F04EFF054A136F23F4806343EA29
S1130D4484231367EEE700BFB81D00000080005041
S1130D541FB50023019325286FD8DFE800F0136E34
S1130D646E6E6E2D354B50555A5F64696E6E3A6ED5
S1130D746E506E6E6E6E2D6E4B6E69353535356EF6
S1130D846E6E555A2E4B1B6F03F00703013B032B66
S1130D940CD8DFE803F009020507042301930FE0EC
S1130DA40323FBE70623F9E70223F7E740F2CA41EA
S1130DB4244800F00EFF03E0002001A9FFF78EFD94
S1130DC4019805B05DF804FB002001A9FFF754FD68
S1130DD4F6E702934FF0E0231B695B0705D5FFF7A1
S1130DE493FB0B230393039BD8E703A902A8FFF700
S1130DF4A5FDF8E7002001A9FFF7A0FDE0E7002026
S1130E0401A9FFF7BFFDDBE7002001A9FFF7DEFD21
S1130E14D6E7002001A9FFF70BFED1E7002001A9C2
S1130E24FFF762FECCE7002001A9FFF701FDC7E745
S1130E34002001A9FFF72EFEC2E740F27D51B7E777
S1130E4400800050B81D0000024A536A23F00103D5
S1130E545362704700C0075070B50546FFF764FC41
S1130E64431E0333044604D940F6CF11284800F046
S1130E74B0FE284B5A68012A04D127494A609A696A
S1130E849207FCD10020FFF763FF042803D100F08C
S1130E94C9FE00F0CFFE214A24F04073954228D0C5
S1130EA41F4A954228D01F4CE26812F0060FFBD16A
S1130EB4A668A360A268534013F4F81F1FD1284600
S1130EC4FFF702FB0020FFF743FF04281ED1FFF7BE
S1130ED41BFB8542044604D240F628210C4800F04A
S1130EE478FE20460021FFF7EFFBBDE87040FFF7D2
S1130EF4C9BE43F00073D6E743F08073D3E740F6EA
S1130F041721034800F065FEA660DBE770BD00BF4F
S1130F14B81D000000C0015000E0015040420F0021
S1130F2480841E0000000150F8B5036804460F2BAA
S1130F3404D940F67731694800F04BFE63680F2BFF
S1130F4404D940F67A31654800F043FEA3680F2BB8
S1130F5404D940F67D31614800F03BFE237B0F2B1E
S1130F6404D94FF438615D4800F033FE637B0F2BE2
S1130F7404D940F68331594800F02BFEA37B3F2B60
S1130F8404D940F68631554800F023FEE37B3F2B19
S1130F9404D940F68931514800F01BFE2369032B20
S1130FA404D940F68C314D4800F013FE6369032BD9
S1130FB404D940F68F31494800F00BFEE369012B54
S1130FC404D940F69231454800F003FE0020FFF7AF
S1130FD4BFFE032800F0818045F60E030221404A37
S1130FE4C2F880303F4B9962012103F58053996222
S1130FF4936DD903FCD4D4E900131B0543EA0163BC
S1131004E17B94F820500B43217BE77E43EA0143C0
S1131014617B6D0143EA0133A17B43EA81131361CC
S11310249169D4E904031B0643EA806301F0004197
S11310340B43A17E94F823000B43217E43EA01432E
S1131044617E43EA01239361136AE66923F00D0385
S113105494F8221043EA870366BB1362966A94F8F1
S1131064213045EA031326F033052B4343F00103EF
S113107493621D4D1A4A936D35EA0303FBD102258D
S1131084184B9D62936D5B00FCD41369A56823F42B
S1131094700343EA055313614FF00042114B9A6104
S11310A419B9022203F580539A6278B901220F4BCD
S11310B49A620BE0334343F008031362936A23F008
S11310C4330303432B4343EA4103936294F82430E8
S11310D41BB1034B064AC3F88020F8BDB81D0000B9
S11310E400C0005000D000500300014000E0005054
S11310F4F1A7FFFF014B93F9000070471D10002076
S113110410B543680446072B04D940F6D351274845
S113111400F05FFDA368032B04D940F6D55123489E
S113112400F057FD2378032B04D940F6D7511F4808
S113113400F04FFD94F90130002B04DA40F6D95144
S11311441A4800F046FD4FF4D1510220184A63783E
S1131154516218494F2B48604FF0010028BF4F23B8
S113116401F5805148601169C903FCD4217843EA2C
S113117401235361D4E901131B0143EA0123617B75
S11311840B43217B43EA41039360E37BA17B1B0173
S113119443EA4113617C0B43217C43EA41035360DA
S11311A4A37C13B16FF4D153536210BDB81D000076
S11311B40000025000100250014B1880704700BF19
S11311C432100020014B1880704700BF30100020FB
S11311D410B5454B0446984265D03BD8A3F5B703F4
S11311E4A3F5586398425AD02DD8404B98424AD01C
S11311F413D8002863D041F2C9113D4800F0E9FC3A
S113120440F673713A4800F0E4FC384B9C4269D0D0
S1131214384B9C4258D1002332E0364B984226D0B6
S1131224354B9842E7D1354BD3F8A040621E0332C4
S113123424F0407404D940F673712D4800F0C9FCBD
S11312442F4A946010BD2F4B9842D4D12B4BD3F822
S1131254BC40EBE72C4B984229D02C4B98422AD023
S11312642B4B9842C7D1254BD3F8C840DEE7234B18
S1131274D3F8A040621E033224F040742CD82346D1
S113128443F08074DCE71D4BD3F8A040621E0332A4
S113129424F040741AD8234643F00074D0E7174B63
S11312A4D3F8B840C2E7154BD3F8C040BEE7134B9C
S11312B4D3F8CC40BAE7114BD3F8D040B6E740F6A4
S11312C473710B4800F085FC0024B9E740F6737190
S11312D4074800F07EFCDEE740F67371044800F032
S11312E478FCCCE70023D7E7C0EA210140420F0091
S11312F4B81D000080841E0000093D000080E00F3A
S11313040040015A0024F4000048E801005A620233
S113131480BA8C01034A0179D36E23F030030B4362
S1131324D36670470040005070B51F2904460D462B
S1131334164603D99121064800F04BFC2EB104F55E
S113134480540123AB40236070BD04F50054F8E7D6
S11313540D1E000038B5032804460D4604D80B4B73
S11313641B5CCB40DB0704D440F22D41084800F059
S113137430FC30220123544341F2100204F1A0440E
S1131384AB4004F57034A35038BD00BF0E1F0000F9
S1131394621E000038B5032804460D4604D80B4BDE
S11313A41B5CCB40DB0704D440F2FE31084800F058
S11313B410FC30220123544342F2100204F1A044ED
S11313C4AB4004F57034A35038BD00BF0E1F0000B9
S11313D4621E00002DE9F84F032806460D46144604
S11313E498469DF828A09DF82C9004D81D4B1B5CAE
S11313F4CB40DB0703D4BF211B4800F0EAFB85EA9A
S11314040403032B03D9C121174800F0E2FB072C82
S113141412D803274FEA840B07FA0BF7394613480B
S113142406FA0BF205F0030500F01CFC39461048DB
S113143405FA0BF200F016FC424621460D48FFF76C
S113144473FF524621460C48FFF76EFF01230B4AF3
S1131454A340C2F8203421464A46BDE8F84F084860
S1131464FFF762BF0E1F0000B81E000000C4035043
S113147408C4035010C4035014C4035000E00350C0
S113148424C40350F8B5032804460D4616461F46E3
S113149404D81C4B1B5CCB40DB0704D44FF4B07161
S11314A4194800F096FB26B129462046CFB1FFF730
S11314B451FF04EB4403072D4FF00F014FEA0313CC
S11314C412D8A80006FA00F281401048184400F02B
S11314D4C9FBAEB92946204677B1BDE8F840FFF709
S11314E439BFFFF757FFE4E7A5F10800800006FAC7
S11314F400F281400648E9E7BDE8F840FFF74ABF37
S1131504F8BD00BF0E1F0000B81E000004C0035045
S11315140CC00350054B5B69C3F38512827003F05E
S11315243F021B0B42700370704700BF00C007509A
S11315340D4B984208D1A3F50033C3F88411C36D4D
S113154443F08003C3657047084B984204D1A3F564
S11315541033C3F89411F2E7054B984204BFA3F582
S11315642033C3F8A411EAE70080055000C00550F5
S113157400000650F8B507460C461D4616464AB9FF
S11315844FF4A171314800F024FB24B1402D08D15B
S1131594062327E019B90320FFF7F2FA0446402D85
S11315A442D0402D09D87DB1202D17D040F28911A5
S11315B4BDE8F840254800F00CBB602DF6D1B6EB2D
S11315C4940F3CD804230DE0B6EB141F04D94FF454
S11315D4BA711E4800F0FDFA102303E0B6EBD40FF1
S11315E41CD808235E43730803EB4413B3FBF6F3DC
S11315F4174E203BB6EBC30F4FEAC30404D24FF497
S1131604D071124800F0E5FABB68344023F060035B
S1131614BB60BB681D43BD60FC61F8BD40F2791139
S11316240A4800F0D6FADCE70623B4FBF3F3B3422A
S1131634AED24FF4BF71054800F0CBFAA8E740F2EC
S11316448311024800F0C5FABCE700BF121F000072
S1131654F8FF7F0010B51B4B044698420CD003F5E9
S11316648043984208D003F58043984204D040F262
S11316744241154800F0ADFA012204F580535A6042
S113168440F6AA6341F20502636100230F49A36093
S1131694E365E26004F500522361E361E364916469
S11316A40849A3658C4203D123650023636506E0DE
S11316B407498C42F8D001F580418C42F4D00123CF
S11316C4536010BD00800550121F0000FFFF01008D
S11316D400C0055070B5444B044698420D460CD0E6
S11316E403F58043984208D003F58043984204D01C
S11316F440F2FD213D4800F06CFA2046FFF7AAFFB2
S1131704012304F580567360AB7C1BB1A36843F0DA
S11317148043A360EB7C1BB12046297DFFF708FFBF
S11317242A8A6B7B20461343EA891343E3602B7BA9
S1131734D5E90112FFF71EFF6B7D1BB1A36843F4C7
S11317448033A360AB7D1BB1A36843F40043A3605F
S1131754EB7D2A7E1B07120502F4E00203F0E0434A
S11317641343A365697E204A8B1E012B204B1DD88D
S1131774944217D002F58042944215D002F5804277
S113178494420CBF02224FF0FF3203EB42130220B7
S113179441F2AC520329985020D10423F3652B78E9
S11317A4636170BD0022F0E70122EEE7944211D098
S11317B4104A944210D002F5804294420CBF022293
S11317C44FF0FF3203EB4213022042F2AC520129E0
S11317D49850E1E70022F5E70122F3E7042204F537
S11317E40053DA65DBE700BF00800550121F0000D8
S11317F400C0035000C0055030B58BB06D46604C3A
S11318040FCC0FC554F8043B68462B604FF07E633D
S113181493F89C306D46FF2B08BF25238DF80130C7
S1131824FFF76EFC3220FFF7C7FC0FCC0FC50FCCBB
S11318340FC594E8030085E80300524BD3F84C2108
S1131844110340F18380A3F5FE431C884FF6FF7314
S11318549C4208BF81248DF81940FFF74BFC0444D3
S113186484F3080448488DF81840FEF769FE684676
S1131874FFF75AFB3220FFF7A5FC444C4448FFF71A
S1131884EBFA4448FFF7A4FC00F0D8F9236F0020D6
S113189423F0070343F002032367236F23F4505315
S11318A443F48063236700F0D0F93B4BD3F8FC2066
S11318B4D2014FD4D4F8803023F0030343F002035D
S11318C4C4F88030314BD3F8202122F0070242F0CF
S11318D40102C3F82021D3F8802122F0030242F04C
S11318E40102C3F88021D3F8402122F0030242F01C
S11318F40202C3F84021D3F8602122F0030242F02B
S11319040202C3F86021D3F8402222F0030242F019
S11319140202C3F84022D3F8002222F0070242F064
S11319240202C3F80022D3F8082222F0070242F08C
S11319340202C3F80822FFF787FA4FF0E0220020DE
S1131944136963F0040313610BB030BDD3F8504141
S1131954E4B280E7D3F8FC2022F08072C3F8FC20C0
S1131964D4F8802022F0030242F00202C4F880205A
S1131974D3F8FC2042F08072C3F8FC20A2E700BF35
S11319846C1F00000080E00F00F04902008000504A
S113199400B4C404C0EA210100ED00E013B500243E
S11319A4064A6846536F43F00103536700948DF865
S11319B40440FFF7AFFC204602B010BD00400050C5
S11319C410B53D28044608D801236109074A04F0E8
S11319D41F04A34042F8213010BD4FF48A71044817
S11319E400F0F7F8002CF7DBEEE700BF00E100E0BD
S11319F4AC1F0000002808DB01224309034900F05E
S1131A041F008240603341F82320704700E100E066
S1131A1438B500F110034D2B04460D4604D94FF498
S1131A24E1710D4800F0D5F81E2D04D940F2C3111C
S1131A34094800F0CEF8002CACBF04F16044074B15
S1131A444FEA0515EDB2ABBF04F5614404F00F048D
S1131A5484F800531D5538BDAC1F000014ED00E09C
S1131A6408B5064B044613B10021AFF30080044BC0
S1131A741B6803B19847204600F0BCF8000000003E
S1131A841810002070B50D4D00260D4C641BA410D5
S1131A94A64209D10B4D00260B4C00F07FF9641BC0
S1131AA4A410A64205D170BD55F8043B01369847ED
S1131AB4EEE755F8043B01369847F2E7341000206A
S1131AC43410002034100020381000207047704770
S1131AD410B50123042205210020FFF7D3FC0023C1
S1131AE4012218460621FFF7CDFCBDE8104004226C
S1131AF4012311460320FFF7C5BC13B501230322B8
S1131B0418460021FFF7BEFC012303221946184698
S1131B14FFF7B8FC0023042202210320FFF7B2FCE0
S1131B240321002308460422FFF7ACFC1A20FFF724
S1131B3447FF1920FFF744FF0124002320461A46D7
S1131B441946CDE90044FFF745FC0023224621460B
S1131B542046CDE90044FFF73DFC02B010BD00F07F
S1131B6411B808B5FEF74AFDBDE8084000F013B803
S1131B7400F006B870477047704770477047704765
S1131B840F20704708B50422002311460320FFF7F1
S1131B9479FC002008BD08B5082000F02CF8BDE845
S1131BA40840082000F032B8FEE74AB110B500231B
S1131BB450F8234041F8234001339342F8D110BD37
S1131BC47047002070474FF4004070474FF47A7018
S1131BD47047FEE7EFF3108072B6704700B962B63F
S1131BE47047EFF31180302383F31188704780F337
S1131BF411887047FEE74FF060420123D2F8001EBB
S1131C0483400B430020C2F8003E70474FF060410C
S1131C140122D1F8003E824023EA02030020C1F8E5
S1131C24003E704708B5FEF781FCBDE8084000217A
S1131C34FEF74ABD02210320FFF734B808B5FFF7C5
S1131C44F1FFBDE80840FFF7F5BF10B50446FEF701
S1131C545BFC0021FEF738FD1CB1BDE81040FFF722
S1131C6411B810BD70B5054614460E46FFF7B2FF11
S1131C742B685C4034405C402C60BDE87040FFF746
S1131C84ADBF704783691B06FCD5406AC0B2704778
S1131C9483695B06FCD5C163704700F008B809B1D9
S1131CA400F007B822207047012100F043B8002057
S1131CB4704770B506460D46FFF793FF04461C2E85
S1131CC435D8DFE806F00F18341C1E2034222434DF
S1131CD434342628342A2C2E3034343434343434F2
S1131CE434343200FEF7F6FB002628602046FFF762
S1131CF47EFF304670BD0120FEF742FFF4E7032067
S1131D04FAE70420F8E70C20F6E70220F4E70620BB
S1131D14F2E70720F0E70820EEE70520ECE70920C6
S1131D24EAE70A20E8E70D20E6E71020E4E70020CC
S1131D342126DAE700207047FFF75EBD10B56FF087
S1131D440404204605210134FFF762FE3D2CF8D13A
S1131D5410BD08B5FEF7E2FAFFF703FFFFF708FF2B
S1131D64FFF708FFBDE80840FFF705BF08B5FFF714
S1131D7403FFFFF702FFFFF701FFBDE80840FFF789
S1131D84FEBE02440346934200D1704703F8011B8C
S1131D94F9E700000000000000000000F8B500BFEF
S1131DA4F8BC08BC9E467047F8B500BFF8BC08BC34
S1131DB49E467047453A2F5448494F542F73696DD2
S1131DC4706C69636974795F73646B5F7375697448
S1131DD4655F76323032345F365F322F73696D70EB
S1131DE46C69636974795F73646B5F352F706C61BC
S1131DF474666F726D2F656D6C69622F7372632FD5
S1131E04656D5F636D752E6300653A5C7468696F14
S1131E14745C73696D706C69636974795F73646B02
S1131E245F73756974655F76323032345F365F325E
S1131E345C73696D706C69636974795F73646B5FF7
S1131E44355C706C6174666F726D5C656D6C69622F
S1131E545C696E635C656D5F6275732E6800653AD8
S1131E645C7468696F745C73696D706C69636974BC
S1131E74795F73646B5F73756974655F763230324E
S1131E84345F365F325C73696D706C69636974794D
S1131E945F73646B5F355C706C6174666F726D5CE8
S1131EA4656D6C69625C696E635C656D5F677069BE
S1131EB46F2E6800453A2F5448494F542F73696D67
S1131EC4706C69636974795F73646B5F7375697447
S1131ED4655F76323032345F365F322F73696D70EA
S1131EE46C69636974795F73646B5F352F706C61BB
S1131EF474666F726D2F656D6C69622F7372632FD4
S1131F04656D5F6770696F2E63007F033F1F453AF9
S1131F142F5448494F542F73696D706C6963697405
S1131F24795F73646B5F73756974655F763230329D
S1131F34345F365F322F73696D706C6963697479C9
S1131F445F73646B5F352F706C6174666F726D2F91
S1131F54656D6C69622F7372632F656D5F75736150
S1131F6472742E63000000000126000004000000C7
S1131F740000000000010000000000000B0000004D
S1131F840B000000020000000000202000000000FC
S1131F94030000008C8C3C000000000000000000E2
S1131FA400000000FFFFFFFF453A2F5448494F54F7
S1131FB42F73696D706C69636974795F73646B5FA3
S1131FC473756974655F76323032345F365F322FED
S1131FD473696D706C69636974795F73646B5F357D
S1131FE42F706C6174666F726D2F7365727669639A
S1131FF4652F696E746572727570745F6D616E615C
S11320046765722F7372632F736C5F696E74657284
S1132014727570745F6D616E616765725F636F7210
S10B20247465786D2E63000061
S10B202C98E1FF7F01000000B0
S10F2034402000002010002007000000E5
S1132040C0EA2101C0EA21010080000000F0490239
S10F2050FFFFFFFFA10100007901000068
S9030405F3
