:020000021000EC
:10200000C00A0020592F0100891003008910030025
:10201000852503008910030089100300891003003F
:102020008910030089100300891003008910030040
:102030008910030050C703003327030089100300F1
:102040008910030089100300891003008910030020
:102050008910030089100300891003008910030010
:102060008910030089100300CD7C0100B12E01000E
:10207000C30F0300891003008910030089100300B7
:1020800089100300891003008910030089100300E0
:1020900089100300F936010089100300891003003C
:1020A00089100300891003008910030089100300C0
:1020B0008910030089100300891003008DF50200C8
:1020C00029AF030025AF030021ED020035AF030067
:1020D0002DAF030051F5020031AF030085D202009D
:1020E000CDF5020089100300891003008910030058
:1020F0008910030089100300891003008910030070
:10210000891003008910030089100300891003005F
:10211000891003008910030089100300891003004F
:10212000891003008910030089100300891003003F
:04213000891003000F
:10213400F0B5114A114C124E00F00105E3695F0736
:1021440013D40DB9334213D103EA00078F4207D1E8
:102154000B4A1A40002A0CBF00206FF00100F0BDAA
:10216400013AEBD16FF00200F9E74FF0FF30F6E7E8
:102174006FF00100F3E700BF809698000000035061
:10218400020001000B4B70B5D96911F480310DD1F7
:1021940001244FF48072084E084DF46020462C64EC
:1021A4001A61FFF7C5FF3464EC6070BD6FF0010085
:1021B400FBE700BF00000350001003500020035051
:1021C40038B541F6713301220C4C0021E569E36313
:1021D4000B4B05F48035DA60022360612120236112
:1021E400FFF7A6FF10B92120FFF7A2FF0122054B3C
:1021F400DA600DB10023E36338BD00BF0000035073
:10220400001003500020035070B5134C6061E36963
:102214005B071ED40E4656F8043B8D18A361AE42EC
:102224000BD10423002121202361FFF781FF58B93A
:10223400BDE870402120FFF77BBF08210846FFF767
:1022440077FF10B10423236170BD56F8043BA361EA
:10225400E5E74FF0FF30F7E7000003502DE9F843BE
:10226400154641F67132164B8946DF69DA6301225D
:10227400064603F58053DFF8508007F48037DA60B0
:1022840055B9284601220F4BDA601FB10022A3F58D
:102294000053DA63BDE8F88306F5005404EA080441
:1022A400A41BAC4228BF2C46494622463046FFF7C1
:1022B400ABFF0028E6D12644A1442D1BE0E700BF74
:1022C400000003500020035000E0FFFF0000000066
:1022E000013800D0FCE77047002370B5404C05462C
:1022F0008AB0E36318B1008823600BF08FFF3D487C
:1023000028F048F93C4E3D4B304633603C4B7360FF
:1023100023F0F9FF0021304616F02EFC32A3D3E95A
:102320000023A062C4E9062323F0F8FFD4E90623C2
:1023300019431043C4E90601CDE900014FF0FF3312
:102340004FF0FF32A06A28F079F902224FF0FF31F6
:10235000A06A28F078F901200BF0BCFB4FF4007361
:1023600000222849A06A28F0BFF9B0F5007F38D1D3
:1023700000239422CDE9073309933C23CDE90332AE
:1023800005939623A06A03A9069316F0DDFC35B3E6
:10239000287C0BF0E3FF0546F0B9A06A28F080FA2C
:1023A0000BF08AFF0BF078FB20B14FF48070002116
:1023B00008F000FC0BF080FB20B14FF4006000211E
:1023C00008F0F8FB24F0D0F8012016F02BFC0E4AA0
:1023D0000E49A06A23F095FF28460AB070BDFF2081
:1023E000D7E70725F8E700BF0DD50155200000000D
:1023F000300B0020690345EC5C1D002059D9010019
:102400006C1D00205C1B0020AB620300EB6203002C
:102410000348044B834202D0034B03B11847704773
:10242000943200209432002000000000064B07493F
:10243000C91A891048BF0131491003D0044B0BB1B0
:1024400001481847704700BF9432002094320020A2
:102450000000000010B5064C237843B9FFF7D8FF01
:10246000044B13B10448AFF300800123237010BD67
:102470007025002000000000D0F6030008B5054BD1
:102480001BB105490548AFF30080BDE80840FFF7E0
:10249000CDBF00BF00000000980D0020D0F6030063
:1024A000A3F5803A704700BF174B002B08BF134BB2
:1024B0009D46FFF7F5FF00218B460F461348144A4F
:1024C000121A28F0D8FD0E4B002B00D098470D4B68
:1024D000002B00D098470020002104000D000D487B
:1024E000002802D00C48AFF300801DF011FC200042
:1024F000290000F0D7FB1DF027FA00BF00000800FC
:102500000000000000000000C00A0020C00A0020F7
:10251000A02E002000000000000000002DE9F04384
:10252000284CADB0154689461F4680461EF05FFD1B
:10253000002000F029F9204600F08EF900266FF007
:102540007F432046C4E901361EF0BCFA20461E49EE
:102550001EF01CFC434632211C4ACDF8009005A811
:102560001DF05CFB2B460097052501273221184AF8
:1025700012A81DF053FB349B3221164A1FA81DF0F0
:102580004DFB3346324605A92046CDE9015700955B
:102590001EF00FFC33463A4612A92046CDE90157FA
:1025A00000951EF006FC334602221FA92046CDE905
:1025B000015700951EF0FDFB00F00EF92DB0BDE8AF
:1025C000F08300BFB00D002078BE030048BE0300BA
:1025D00059BE030066BE03000123054A411100F005
:1025E0001F00834052F82100034342F82130704716
:1025F000DC0D0020044B1B681BB1044B0360002062
:1026000070470120704700BFEC0D0020142500200A
:1026100070B50D4C246884B10C4C85182688B542E1
:102620000DDC6688CD18B54209DC52B14BB1A080F3
:102630000020E1802281638170BD0120FCE704203D
:10264000FAE70520F8E700BFEC0D00201425002074
:102650002DE9F74F9946494B1B68002B00F08A8003
:10266000B9F1000718BF01274FF0010BDFF814A1E3
:102670007F42BAF80650BAF80A300D9E2B449BB23E
:102680000D440093FFB2ADB21EB9304603B0BDE8B1
:10269000F08F009AABB29A426ED9BAF80840BAF8F5
:1026A0000430241AB44228BF34461844344B361B35
:1026B00080B203EB0512B9F1000F0AD0072C26D81F
:1026C0000444A04216D32846FFF786FF01350020B8
:1026D000DAE7072C1BD80444A042F4D2C108535CAB
:1026E00000F0070C0BFA0CFC23EA0C0301305354E6
:1026F00080B2F1E7C10812F801C000F007030BFA3D
:1027000003F343EA0C030130535480B2D9E74FEA94
:10271000D00C02EBD00810F007000BD1E2083946CC
:102720004046019228F0A7FC14F00704019ACAD091
:10273000904412E00BFA00F312F80CE0DBB2591EE1
:102740005B420EEA01013B4008381943044402F899
:102750000C10E20808F10108E1D10BFA04F498F832
:102760000030E4B26242013C13403C40234388F80D
:102770000030A8E7012688E7042686E7EC0D002054
:10278000712500201425002037B5114D2B68EBB9B9
:1027900000F03AF9044610B1012003B030BD00F05A
:1027A00027F928600028F7D002884188094B204685
:1027B0001A801A814A43598059819C80DC802146C5
:1027C000CDE9004223462246FFF742FF0020E4E71E
:1027D000EC0D0020142500202DE9F84300230125ED
:1027E0001A461A4FDFF86C803C68DFF86490D8F81E
:1027F0000000D61841888E4207D3FBB91022002171
:10280000124828F038FC002012E0E10708D5013317
:10281000D118C9060ABF57F8254064080135E6E714
:1028200053B109EB021100F0B1F8034610B10720D3
:10283000BDE8F883721CEBE70132E9E7044901EBDC
:10284000021100F0A3F80028D8D0F0E7DC0D00203A
:1028500071250020EC0D002030B5054687B000B38F
:1028600000226FF07F43C0E9012301A8FFF7C2FEF9
:10287000044698B9019BCDE902001A882B605B8859
:10288000013A013B284602A9049205931EF045F93E
:10289000044618B9284604491EF078FA204607B0C5
:1028A00030BD0524FAE700BFA8C103000122014B97
:1028B0001A61704700F0035013B5044605F068F83C
:1028C00000230122217BCDE900324900B0FBF1F168
:1028D000024A03481FF09AFE02B010BDAD28010065
:1028E000040E0020F7B508260E4C054604F580536B
:1028F0001E67407B05F028FA04230B4F02220DF1DE
:1029000006013846ADF806301EF082FA38461EF051
:1029100090FAA87B05F018FA002004F50054266709
:1029200003B0F0BD00C003504030002070B5064633
:1029300012481FF019FBB1680022114800F074F82A
:10294000002304220321022001F0ECFC0023354681
:102950000C4C04221946184601F0E4FC0FCD0FC4BC
:1029600001222B6830462360074B1A70FFF7A4FF43
:102970003046FFF7B7FF002070BD00BF4CC9030011
:1029800040300020F00D0020712D00202DE9F34192
:10299000144608221D46144B06461A67407B0F4614
:1029A00005F0D2F9DFF844802544A54203D8002081
:1029B00002B0BDE8F081230243F0010302220DF1D1
:1029C00006014046ADF806301EF022FA328839463C
:1029D000D20840461EF01CFA40461EF02AFA338800
:1029E000013407EBD307E0E700D00350403000206C
:1029F000034B04481B78002B08BF0020704700BF22
:102A0000712D0020F00D002030B5064D87B001ACCF
:102A10000FCD0FC42B6801A82360FFF787FF07B015
:102A200030BD00BFD8C403002DE9F04F04462D4E41
:102A300089B001AD894690460FCE0FC596E80700D4
:102A4000D4F800B0284B85E807009B4545D003F536
:102A500080439B4543D0254DAB450CBF02254FF02D
:102A6000FF35DFF890A022480AEB4517D7F8AC6590
:102A70001FF07AFA60681FF077FA617B207B0023F1
:102A8000042201F04FFC0422617A207A002301F035
:102A900049FC0123584601A98DF81230CDF80C905D
:102AA000ADF814801EF0D9FB0020627A237A2E350F
:102AB00043EA02430AEB451ACAF80430627B237BDF
:102AC00006F0040643EA024346F01806C7F8C0358C
:102AD000C7F8AC6509B0BDE8F08F0025C1E7012556
:102AE000BFE700BFECC403000080055000000650A3
:102AF0004CC9030000C0035000234FF4E13230B54D
:102B000089B0CDE902324FF4A0614FF4805205251F
:102B1000CDE904124FF4A0220693ADF81C300B4B04
:102B20008DF80450C3F8C4254FF4C022C3F8BC2567
:102B30001422074CC3F8AC25204601A901F01EFE63
:102B4000294620461EF07AFB09B030BD00C0035074
:102B500000800550014601481EF0C7BB00800550AB
:102B60000228F7B510D0032819D001280AD12A4825
:102B70001EF0B5FB044628481EF0B1FB274B40EA87
:102B80000420186003B0F0BD23481EF0A8FB0446E3
:102B900021481EF0A4FB224B40EA0420F1E701216A
:102BA00008461EF075F9012108461EF090F900282C
:102BB000E8D0012108461EF0AAF901210646084680
:102BC0001EF0A5F90121074608461EF0A0F90121D3
:102BD000044608461EF09BF90121054608461EF0F2
:102BE00096F9F31923442B449842CBD12046FFF7A2
:102BF000B1FF2846FFF7AEFF3046FFF7ABFF384680
:102C0000FFF7A8FF054B32461B6829460093204674
:102C10003B46FFF783FCB5E70080055054300020A9
:102C200050300020F7B5012108461EF031F901218E
:102C300008461EF04CF988B3012108461EF067F9DA
:102C40000121064608461EF062F9012107460846A2
:102C50001EF05DF90121044608461EF058F90121D5
:102C6000054608461EF053F9F31923442B449842B5
:102C700014D12046FFF76EFF2846FFF76BFF304662
:102C8000FFF768FF3846FFF765FF054B32461B68C4
:102C90002946009320463B46FFF740FC03B0F0BDB9
:102CA0005430002038B51FF02CFD1EF0D4F8FFF78B
:102CB00023FF094C094D636A313BDBB2022B04D878
:102CC00020461EF00CFBFFF74BFFFFF7ABFF2888F9
:102CD00004F076FEEFE700BF00800550543000207E
:102CE00007B501A801F09AFC9DF80530012B27D10A
:102CF000214A936DDB0313D4536B23F4FF0323F4B6
:102D0000FE4343F4BC1343F4A0635363136B23F4F7
:102D1000704343F440431363136B43F4E063136362
:102D20009DF8043063B94FF000531B68134B1B68C8
:102D3000134B1B68134B1B68134B1B68134B1B680F
:102D4000134AD2F8803043F00303C2F8803003F016
:102D5000DBFA00F0D9F81FF089F91FF0F9F803F059
:102D60009DFD00F0C7F800F00BFA00F0FFFC03B087
:102D70005DF804EB04F09ABA00C000500040002057
:102D80000080002000C00020000001200040012041
:102D90000080005030B5204D95B00DAC0FCD0FC464
:102DA00095E80700032384E8070001248DF84D30DF
:102DB0001A4A1B4B0021CDE903231A4B0E220DF1B9
:102DC0002600CDE9053428F056F94FF48021164B42
:102DD0000DAACDE907130B238DF824300C238DF8B1
:102DE0002530124B07A90A9320230B93104B11484F
:102DF000009303AB8DF8314003F092FC04469DF83C
:102E000032304FF4E130002B0CBF032100211EF0C3
:102E10002CF9204615B030BD34C7030000800550A2
:102E2000210005000600040224800550722D0020B8
:102E3000240E0020740E0020831E012B10B512D822
:102E4000012922D8114B04221B6905210020C3F35C
:102E5000401301F067FA0E4B1B681868A8B1BDE873
:102E60001040436A18478B1E012B0CD801280CD840
:102E7000BDE810400022054B05211B691046C3F335
:102E8000401301F04FBA0129E5D910BD00C003502D
:102E90005830002008B50449044804F0C1FABDE8E0
:102EA0000840FFF777BF00BF5C300020980E00207D
:102EB00001481FF08EBA00BF740E0020012208B531
:102EC000074B1A700022074B1A700422064B1A7027
:102ED0001F22064B1A7003F083FA054B186008BDD9
:102EE0006C320020922D00206B3200206A320020CC
:102EF000A00E002008B503481FF036F8BDE80840D2
:102F00001EF034B84CC9030001481FF02DB800BFB3
:102F10004CC9030007B508201EF0E2F802238DF823
:102F20000030054B684601931EF063F8082003B09B
:102F30005DF804EB1EF0DFB8006A18100348044A7D
:102F40000449121A92101EF0A0B800BF34210100EB
:102F5000D4220100A02E002008B500F02FF8FFF7C2
:102F6000EDFF124B12498B4212D30020114B124934
:102F70008B4218D3FFF798FA186850F82240586827
:102F800040F82240013298688242F5D30C33EAE7D8
:102F90000022F8E71C6844F8220001325C68A24273
:102FA000F8D30833E4E70022F8E700BFD8F60300BF
:102FB000E4F60300E4F60300E4F60300124B134AC0
:102FC00070B59A60D3F88820114D42F47002C3F8AE
:102FD00088206FF0010205F50054226641F2FF726D
:102FE00062660222C3F8D020BFF34F8FBFF36F8F0A
:102FF0004FF44036032003F0C5F90320E66003F0E8
:10300000B3F92E6170BD00BF00ED00E000200100AB
:1030100000800044014B1868704700BF68300020F2
:10302000014B1860704700BF68300020084B1B6FD1
:1030300003F00703022B04D0032B05D0012B05D08E
:10304000FEE7044B18687047034BFBE703487047E3
:10305000008000506830002070300020002D3101C9
:1030600008B5FFF7E3FF054B1B6FC3F301330133D3
:10307000B0FBF3F0024B186008BD00BF00800050A9
:10308000643000200048704700B4C404014B186845
:10309000704700BF70300020054B1860054B1B6F58
:1030A00003F00703032B01D1FFF7DABF704700BF1E
:1030B000703000200080005000487047002D310122
:1030C000174B9868C0F304400C280AD8DFE800F0DA
:1030D0000B0909090909072119091B1D1F001148BE
:1030E0007047002070479B6803F04073B3F1807F06
:1030F00011D0B3F1007F10D00B4A002B08BF10464F
:1031000070470A4870470A4870470A4870470A489B
:1031100070470A4870470A4870470A48704700BF1E
:103120000040015A405DC60000093D00C0EA21018F
:1031300080BA8C010048E801005A62020024F400C1
:1031400080841E0040420F00014B1868704700BF8A
:103150006C30002000239B6AB3F5903F03D21968BE
:10316000064A914203D00023037083607047012216
:1031700002709A689B694260F7E700BF07B0CD5EB6
:1031800000239B6A10B5B3F5903F11D219680A4A23
:1031900091420DD1094C227812F0FD0F01D0002090
:1031A00010BDDB6998470028FAD101232370F6E7A8
:1031B0004FF48170F4E700BF07B0CD5E932D00207F
:1031C00013B50024294801941EF0CEFE01230422E9
:1031D0000321204601F0A6F820461EF017F8012230
:1031E000234B0520C3F8442401A91EF0B3FE002898
:1031F00039D1204BD3F8F02042F00102C3F8F0207F
:10320000D3F8FC2042F08072C3F8FC201A4AA3F5E0
:103210005D431A60019B194A03F5D52303F2FC4371
:10322000B3FBF2F3164A013B13610223C2F8F030FC
:103230004FF48073C2F804334FF06043114AC3F86F
:10324000B02F114AC3F8802ED3F8002E42F48072BA
:10325000C3F8002EFF2283F82020D3F8002E22F49A
:103260008072C3F8002E02B010BD00BF4CC903002D
:1032700000D0035000ED00E0FF030040F8590D00BE
:10328000000004E055CEACC5090001004FF06043DA
:10329000D3F8802E30B5D20715D501240B4D8440CC
:1032A000D5F8FC2042F08072C5F8FC20D3F8002E3F
:1032B0002243C3F8002E53F82020002AF0D003F850
:1032C0002010002030BD1120FCE700BF00ED00E021
:1032D0002DE9F04F9A46564B85B01B7806460F46AF
:1032E0001546DDF83C909DF844B0DDF85080002B89
:1032F00000F09780072A00F296800E9B002B00F0CA
:103300009280B9F1000F00F08E80129BB3F5006F30
:1033100000F38980012803D1109B002B00F08380EB
:10332000444B03EB05131B7B002B7ED0424C102239
:103330000021684627F09FFE04EB45141022A7BB2E
:103340003946204627F097FE43F210036380BBF115
:10335000000F03D1E37843F00303E370364A0E9B7A
:1033600002EB451CCCE90193129B6901581E9DF8A4
:103370004C30C0F30A0003F003039B0643EA001E2F
:1033800053582E48012E00EA03004EEA0003CDF800
:1033900000A0535017D0B8F1000F2ED19CF8023086
:1033A00068F304138CF8023027E00021204627F050
:1033B00062FE4FF444736380BBF1000FCED1E3781B
:1033C00043F03003C9E713230CF1100ECCF80C3096
:1033D0009CE80F008EE80F006FF00301DCF81C2062
:1033E000109B61F39F02012FCCF81C20CCF8143005
:1033F00003D1CCF81890CCF8043000270D4A2901ED
:1034000002EB051342F80180159A28465A60694676
:1034100022469F605E7301F009F8384605B0BDE8AA
:10342000F08F0748FAE70748F8E70748F6E700BFD4
:10343000942D0020A40F0020A40E00200F80FFF385
:10344000028000F0018000F0078000F038B5124BD8
:1034500005461B78DBB1E0B11DF032FE0F4A0023B8
:103460001146147B54B92B6001251A0101EB03139B
:103470001D738C501DF02AFE204638BD0133082BE9
:1034800002F11002EDD11DF021FE0548F5E70548D7
:10349000F3E70548F1E700BF942D0020A40F0020BA
:1034A000048000F0028000F0018000F038B51DF0CB
:1034B00007FE002305460B4A147B6CB90133082B29
:1034C00002F11002F8D100F06DFF074B28461C7086
:1034D0001DF0FCFD204603E028461DF0F7FD0348E3
:1034E00038BD00BFA40F0020942D0020058000F0FF
:1034F0000D4B10B51B78044693B1072812D81DF068
:10350000DFFD0A4B03EB04131A7B2AB100241C7362
:103510001DF0DCFD204610BD1DF0D8FD0448FAE783
:103520000448F8E70448F6E7942D0020A40F002093
:10353000068000F0028000F0018000F0154B13B50A
:103540001868002301908DF804301DF0B9FD124B6E
:103550001C7824B11DF0BAFD104802B010BD012244
:103560001A701DF0B3FD0E4B01A81C731C7783F875
:103570002C4083F83C4083F84C4083F85C4083F84F
:103580006C4083F87C4008238DF8073000F026FF5C
:103590002046E2E7A0C70300942D0020038000F03E
:1035A000A40F00200A4A08B512785AB107280BD890
:1035B000084A02EB00131B7B43B1002100F000FF1F
:1035C000002008BD0448FCE70448FAE70448F8E78F
:1035D000942D0020A40F0020028000F0018000F054
:1035E000078000F00A4A08B512785AB107280BD8AC
:1035F000084A02EB00131B7B43B1012100F0E0FEFF
:10360000002008BD0448FCE70448FAE70448F8E74E
:10361000942D0020A40F0020028000F0018000F013
:10362000078000F00A4A08B5127852B107280AD874
:10363000084A02EB00131B7B3BB100F043FF002064
:1036400008BD0548FCE70548FAE70548F8E700BF6C
:10365000942D0020A40F0020028000F0018000F0D3
:10366000078000F00D4B1B7893B1072812D889B161
:103670000B4B03EB00131B7B73B10A4B1A6D012339
:103680008340134214BF0123002300200B707047B6
:10369000054870470548704705487047942D00203D
:1036A000A40F002000000450028000F0018000F010
:1036B000078000F00B4A10B512780C4662B107285B
:1036C0000CD859B1084A02EB00131B7B43B100F040
:1036D0000BFF2070002010BD0448FCE70448FAE707
:1036E0000448F8E7942D0020A40F0020028000F089
:1036F000018000F0078000F0184B2DE9F0411F6DAC
:103700005B6D1F4000D5FEE701260025144CDFF855
:103710005880374218D02368C8F85060A3B1A16818
:10372000284601316268A1609847637B012B0BD169
:1037300050B90C4B03EB45131A7B60F341021A732B
:103740001A7F60F341021A770135082D4FEA4606C9
:1037500004F11004DDD1BDE8F08100BF0000045089
:10376000A40F0020A40E002000200450024B196872
:10377000024B186814F00CBE743000209430002006
:1037800070B59400224605460E4628F059FB431CAE
:103790000AD058B922463146284627F042FC002874
:1037A000034808BF002070BD0248FCE70248FAE762
:1037B00010E000F021E000F024E000F010B5044635
:1037C00028F03AFB431C10D088B900F04FFF234685
:1037D00020F003002044984201D1002010BD53F88E
:1037E000042B0132F7D00348F8E70348F6E7034813
:1037F000F4E700BF0EE000F021E000F024E000F06C
:1038000008B51DF056FC014B186008BD14170020C8
:10381000014B18681DF051BC1417002041F671339C
:10382000124A30B5D469124DD3639368A84204F4A8
:10383000803423F4401306D893600E4AD2F818322D
:1038400023F002030AE043F4801393600A4B98428A
:10385000F3D9084AD2F8183243F00203C2F81832FA
:1038600014B10022014BDA6330BD00BF00000350E9
:10387000005A620200C0075080F0FA022E4B9842B4
:103880004AD022D82D4B984240D014D82C4B984285
:1038900039D00AD82B4B984232D02B4B98422FD09C
:1038A0002A4B98422CD000207047294B9842FAD1DD
:1038B000284B186F7047284B98422AD0274B9842C4
:1038C000F1D1244BD3F880007047254B98422BD080
:1038D00009D8244B984223D0234B9842E3D11D4B67
:1038E000D3F88C007047214B984221D003F5740324
:1038F00003F510539842D6D1164BD3F89800704771
:10390000144B986D7047134B586E7047114B586F9E
:103910007047104B986F70470E4BD3F88400704778
:103920000C4BD3F8880070470A4BD3F890007047CF
:10393000084BD3F8940070470048E8010024F400D5
:10394000C0CF6A0080841E0000093D0040420F0085
:10395000405DC6000080E00FC0EA210180BA8C0102
:10396000007E560380D54302006CDC020090D00339
:1039700038B5134B0546D3F820010C4600F007007C
:1039800004281AD8DFE800F003090D1115000123FF
:1039900005B1286004B1236038BDFFF73BFB042369
:1039A000F6E7FFF773FB0323F2E7FFF789FB052335
:1039B000EEE7FFF781FB0223EAE700231846E7E77B
:1039C0000080005037B50C460021114B0191D3F80F
:1039D0008031054603F00303022B0ED0032B11D0D8
:1039E000012B03D101A8FFF7C3FF0D210DB1019BEE
:1039F0002B6004B1216003B030BDFFF761FB0521EE
:103A00000190F3E7FFF758FB02210190EEE700BFBA
:103A10000080005038B5104B0546D3F840310C46B5
:103A200003F00303022B0BD0032B0DD0012B0FD17E
:103A30001DF039FB082305B1286004B1236038BDAF
:103A4000FFF782FB0723F6E71DF030FB0923F2E7BF
:103A500001230020EFE700BF0080005038B5104B75
:103A60000546D3F860310C4603F00303022B0BD05C
:103A7000032B0DD0012B0FD11DF015FB082305B131
:103A8000286004B1236038BDFFF75EFB0723F6E72B
:103A90001DF00CFB0923F2E701230020EFE700BF34
:103AA0000080005038B5144B0546D3F800020C4690
:103AB00000F0070004281BD8DFE800F003090D110F
:103AC0001500012305B1286004B1236038BD1DF045
:103AD000EAFA0823F6E7FFF737FB0723F2E71DF0C2
:103AE000E5FA0923EEE7FFF7BBFA0C23800AE9E7C2
:103AF00000231846E6E700BF0080005038B5144B9D
:103B00000546D3F808020C4600F0070004281BD82D
:103B1000DFE800F003090D111500012305B128604D
:103B200004B1236038BD1DF0BEFA0823F6E7FFF7A5
:103B30000BFB0723F2E71DF0B9FA0923EEE7FFF7C5
:103B40008FFA0C23800AE9E700231846E6E700BF56
:103B50000080005038B5104B0546D3F840320C4673
:103B600003F00303022B0BD0032B0DD0012B0FD13D
:103B70001DF099FA082305B1286004B1236038BD0F
:103B8000FFF7E2FA0723F6E71DF090FA0923F2E7C0
:103B900000231846EFE700BF0080005038B5104BF7
:103BA0000546D3F800310C4603F00303022B0BD07B
:103BB000032B0DD0012B0FD1FFF768FA032305B1BA
:103BC000286004B1236038BDFFF7BEFA0723F6E78B
:103BD0001DF067FA0623F2E701230020EFE700BF9C
:103BE0000080005038B50C4605461DF062FA054BC2
:103BF0009A6A54402C4054409C62BDE838401DF005
:103C00005CBA00BF00C00050032814D005D80128BA
:103C100005D0022809D0002005E00F28FBD1084B71
:103C2000186FC0F3013001307047054BD3F8900096
:103C3000C0F30460F7E7024B186FC0F38020F2E78F
:103C4000008000501FB500230193252817D8DFE816
:103C500000F0131A1D272C363B51565B60656A78BD
:103C6000161A401616561A272C27361A5127783B53
:103C70003B3B3B2727275B60FFF7D8F90190019872
:103C800005B05DF804FBFFF7EBF9F7E7FFF7CEF9B6
:103C900002460220FFF7B8FFB2FBF0F20192EEE716
:103CA000FFF7DEF902460320F4E7FFF7D9F90246F1
:103CB0000320FFF7A9FFB2FBF0F25208EEE7002164
:103CC00001A8FFF77FFEDAE7002101A8FFF750FE09
:103CD000D5E702934FF0E0231B695B0705D5FFF79B
:103CE000BFF90290029B0193C9E703A902A8FFF75D
:103CF00091FEF7E7002101A8FFF78CFEBFE7002146
:103D000001A8FFF7ABFEBAE7002101A8FFF7CAFE42
:103D1000B5E7002101A8FFF7F1FEB0E7002101A8F7
:103D2000FFF73CFFABE7094BD3F8803003F0030308
:103D3000022BA8D0032B01D000209FE7FFF7C0F98A
:103D40009CE7002101A8FFF705FF98E700800050DD
:103D500008B50120FFF776FFBDE808400349884217
:103D600094BF01210221032000F002B880F0FA0282
:103D7000032810B50C4627D004D8012804D0022807
:103D800017D010BD0F28FCD11DF010FA1DF016FA47
:103D9000124A013C136F23F4405343EA0433136780
:103DA000FFF75EF90021FFF739FDBDE81040FFF78E
:103DB000CFBF0A4A4C1ED2F8903023F0F85343EAA2
:103DC0000463C2F89030DCE7044A4C1E136F23F4FE
:103DD000806343EA84231367D3E700BF0080005069
:103DE0001FB500230193252821D8DFE800F0132018
:103DF0002020202A2F454A4F54595E71202034201C
:103E0000204A202020202A204520712F2F2F2F20CC
:103E100020204F54314B1B6F03F00703013B032B52
:103E200005D8DFE803F00C02080A04230193019887
:103E300005B05DF804FB0323F8E70623F6E7022349
:103E4000F4E7002001A9FFF7BDFDF0E7002001A97C
:103E5000FFF78EFDEBE702934FF0E0231B695B0752
:103E600005D5FFF7FDF80B230393039BDEE703A9BA
:103E700002A8FFF7CFFDF8E7002001A9FFF7CAFD70
:103E8000D5E7002001A9FFF7E9FDD0E7002001A94F
:103E9000FFF708FECBE7002001A9FFF72FFEC6E7DA
:103EA000002001A9FFF77AFEC1E70C4BD3F8803060
:103EB00003F00303022B03D0032B05D00023B5E747
:103EC000FFF7CEF80B23B1E7FFF7FAF80523ADE7CC
:103ED000002001A9FFF73EFEA9E700BF00800050C7
:103EE000024A536A23F001035362704700C007502F
:103EF00008B5FFF775FF07280ABF024B4FF6FF70A2
:103F0000188808BD5832002008B5FFF769FF03285C
:103F10000ABF024B4FF6FF70188808BD56320020CA
:103F200038B50546FFF7AAFC204B04465A68012A1B
:103F300004D11F494A609A699207FCD10020FFF71B
:103F40004FFF042803D11DF031F91DF037F9194A4C
:103F500024F0407395421FD0174A95421FD0174A4C
:103F6000D16811F0060FFBD19068936091684B40C7
:103F700013F4F81F16D12846FFF752F80020FFF778
:103F80002FFF042810D1FFF76BF80021FFF746FC44
:103F9000BDE83840FFF7DCBE43F00073DFE743F0D5
:103FA0008073DCE79060E9E738BD00BF00C00150D6
:103FB00000E0015040420F0080841E0000000150CC
:103FC000F8B504460020FFF70BFF032800F08180BE
:103FD00045F60E0302213F4AC2F880303E4B9962FB
:103FE000012103F580539962936DD903FCD4D4E980
:103FF00000131B0543EA0163E17B94F820500B4357
:10400000217BE77E43EA0143617B6D0143EA013393
:10401000A17B43EA811313619169D4E904031B0670
:1040200043EA806301F000410B43A17E94F8230032
:104030000B43217E43EA0143617E43EA01239361FE
:10404000136AE66923F00D0394F8221043EA87030C
:1040500066BB1362966A94F8213045EA031326F092
:1040600033052B4343F0010393621C4D194A936DB2
:1040700035EA0303FBD10225174B9D62936D5B006C
:10408000FCD41369A56823F4700343EA0553136154
:104090004FF00042104B9A6119B9022203F5805388
:1040A0009A6278B901220E4B9A620BE0334343F0D7
:1040B00008031362936A23F0330303432B4343EA59
:1040C0004103936294F824301BB1024B054AC3F8B4
:1040D0008020F8BD00C0005000D000500300014017
:1040E00000E00050F1A7FFFF70B5184CFF28A66A4A
:1040F0002AD8A36D13F4803F18BF0122144B18BFB8
:104100009A6202229A62A56D15F08045FBD1114A90
:10411000A36992F9002023F47F03024423F47F4330
:1041200082F3080243EA002343EA0243A3613146D3
:104130000220FFF757FDA36DDB0303D531460120B5
:10414000FFF750FD284670BD2125FBE700C0005059
:1041500000D00050952D0020014B93F900007047CE
:10416000952D002001231248124A816A9362836DC3
:1041700003F00303032BFAD1022393620C4A936DDD
:104180005800FCD40C48936D30EA0303FBD10122A4
:10419000084B1A65A3F580539A6D9207FCD49A6D6B
:1041A0009007FCD59A6D9207FCD50320FFF71ABD46
:1041B00000C0005000D0005003000100F0B5D0E96D
:1041C00001434FF4D1560227164A417805785662CA
:1041D000154E4F2977604FF0010728BF4F2106F594
:1041E000805677601669F603FCD441EA05215161D7
:1041F0001B01417B43EA04230B43017B43EA410358
:104200009360C37B817B1B0143EA4113417C0B43D9
:10421000017C43EA41035360837C13B16FF4D153B3
:104220005362F0BD0000025000100250014B188094
:10423000704700BF58320020014B1880704700BF04
:1042400056320020284B984242D01AD8A3F5B70323
:10425000A3F55863984237D00CD8244B984225D008
:10426000234B98422AD0234B984217D00023224A4E
:1042700093607047214B9842F8D1214BD3F8BC3062
:104280001FE0204B984227D01F4B984228D01F4B4D
:104290009842EBD11A4BD3F8C83012E0184BD3F840
:1042A000A03023F0407343F00073E0E7144BD3F8E1
:1042B000A03023F0407343F08073D8E7104BD3F85D
:1042C000A03023F04073D2E70D4BD3F8B830F8E7B5
:1042D0000B4BD3F8C030F4E7094BD3F8CC30F0E700
:1042E000074BD3F8D030ECE7C0EA210180841E00F0
:1042F00000093D0040420F000040015A0024F40034
:104300000080E00F0048E801005A620280BA8C0188
:10431000034A0179D36E23F030030B43D366704711
:1043200000400050F8B504460D461F4616464AB1F7
:1043300001238B403021184A01FB0022F7B141F2E2
:104340001001535004EB4403072D4FF00F014FEAC7
:10435000031316D8A80006FA00F281400F4818444B
:104360001CF045FF4EB9012330210B4AAB4001FB45
:10437000042277B141F210015350F8BD42F210010E
:10438000DFE7A5F10800800006FA00F2814004484A
:10439000E5E742F21001EFE700C0035004C003500C
:1043A0000CC0035008B5152001F0CCFF0022FF21FE
:1043B000024B5A6599625A6008BD00BF0000045064
:1043C000044A054B002908BF1346012282401A60A7
:1043D000704700BF401004504020045010B5044600
:1043E000417802780120104B120658609A60A2783A
:1043F000152042EA01429A61FF229A6200229A63E2
:104400001A644FF000425A654FF0FF3203F5005333
:104410001A6501F0B7FF1520E17801F0C1FFBDE892
:104420001040152001F0A0BF00000450F8B5012590
:10443000C3B2DFF88CC0D1F800E09D408F7ACB7A10
:104440000C46097BCCF850500CF5005C4CF820E091
:104450004FF0300E184E1B050EFB006094F80DC097
:1044600043EA074343EA415322F00302C0F860C025
:10447000C36502671CF024FE104B5D65237A13B1FF
:10448000336C2B433364637A13B1B36B2B43B36345
:104490002279A37943EA0243094A93616179E37976
:1044A00043EA014305498B61034B55639D64BDE8B5
:1044B000F8401CF00BBE00BF000004500010045078
:1044C0000020045010B50124C0B284401CF0F8FD57
:1044D000044B5A6D22EA04025A659C62BDE8104002
:1044E0001CF0F4BD0000045010B50124C0B284409B
:1044F0001CF0E6FD074BDA6A224208D15B6B9C4355
:104500000CBF012400241CF0E1FD204610BD002456
:10451000F9E700BF0000045041F67132034BDA6343
:10452000012203F50053DA60704700BF000003501A
:1045300041F671320121044BDA6303F50052D16078
:104540000022DA63704700BF00000350CB784A783E
:1045500010B55B010C7843EA82030A79234343EAEE
:1045600002130C22424302F1B0421363012C02BF3A
:104570008A78024B43F8202010BD00BFD080035042
:1045800008B54FF0B0435A686AB958B15B680BB1CF
:104590001CF03DFE01210D4B59601CF038FE4FF020
:1045A000B043D96008BD5B680BB11CF030FE002839
:1045B000F0D11CF02CFE4FF0B0430222DA601CF068
:1045C00026FE0122024B5A60ECE700BF00100058A3
:1045D000002000584FF0B0414B6810B50BB11CF0F3
:1045E00016FE01220B4BC4785A608378934043EA4D
:1045F000840344782343047943EA0413447943EA67
:10460000C4038B60044B5A600378C3F10203CB6090
:1046100010BD00BF0020005800100058054B5B691A
:10462000C3F38512827003F03F021B0B42700370CC
:10463000704700BF00C0075040F6B732064B5B68BA
:104640009BB293429FBF4FF47A72B3FBF2F3034ADB
:10465000D05C88BF002070470080E00FC5C7030012
:10466000014B986CD96C70470080E00F0120034B20
:104670009B680A3303F01F03984070470080E00FE7
:104680000D4B984208D1A3F50033C3F88411C36DD4
:1046900043F08003C3657047084B984204D1A3F5EB
:1046A0001033C3F89411F2E7054B984204BFA3F509
:1046B0002033C3F8A411EAE70080055000C005507C
:1046C0000000065070B5054616461C4619B9032071
:1046D000FFF7B8FA0146402C1BD003D8DCB1202CE0
:1046E0001BD070BD602CFCD1042303FB06F25308E1
:1046F00003EB4113B3FBF2F3094A203B02EAC30385
:10470000AA6822F06002AA60AA681443AC60EB6158
:10471000E7E70623E9E71023E7E70823E5E700BF1B
:10472000F8FF7F00012200F580535A6040F6AA632B
:1047300041F20502436100230D498360C365C260F5
:1047400000F500520361C361C36491640949836544
:10475000884203D103650023436506E00649884289
:10476000F8D001F580418842F4D0012353607047AE
:10477000FFFF01000080055000C0055070B50D46D8
:10478000FFF7D0FF012300F580567360AB7C044631
:104790001BB1836843F080438360EB7C1BB12046F0
:1047A000297DFFF76DFF2A8A6B7B20461343EA8938
:1047B0001343E3602B7BD5E90112FFF783FF6B7D89
:1047C0001BB1A36843F48033A360AB7D1BB1A36826
:1047D00043F40043A360EB7D2A7E1B07120502F41D
:1047E000E00203F0E0431343A365697E1F4A8B1E7A
:1047F000012B1F4B1DD8944217D002F580429442E2
:1048000015D002F5804294420CBF02224FF0FF32D5
:1048100003EB4213022041F2AC520329985020D1FD
:104820000423F3652B78636170BD0022F0E7012259
:10483000EEE7944211D00F4A944210D002F5804224
:1048400094420CBF02224FF0FF3203EB42130220CE
:1048500042F2AC5201299850E1E70022F5E701222B
:10486000F3E7042204F50053DA65DBE70080055026
:1048700000C0035000C0055038B50446054D25F072
:1048800017FF0FCC0FC594E80F0085E80F0000203C
:1048900038BD00BF1817002047F6FF739A42F0B5E5
:1048A00072D0022972D83A4B5B5C022B6ED8394D1C
:1048B000DF0005EBC304A17815F83330012938BFB8
:1048C0000121012B13D10025E078401AA84202D81B
:1048D0000844C0B2F0BD431B6668A0EB530336F931
:1048E00013609642D4BF1D4603F1FF30EEE76068C7
:1048F0000028EFD0B0F90040944204DBB0F9024048
:104900009442B8BF144683883D44FF2B19BFC82288
:104910004FF0280CB0F90620B0F908C0A2EB040350
:104920000CBF0126002693FBFCF333446E781BB2C8
:104930009E4201DD002B01DA731E1BB24FF47A7C1C
:1049400001339BB2071D5D1E2DB24FEAC50E00EB71
:10495000C505EA88AD689E4214FB025222EAE27263
:1049600002F15C02B2FBFCF204DD37F83350013394
:104970009542E8D200EB0E039888904228BF10467B
:10498000884238BF0846A4E7FF20A3E70020A1E73C
:10499000C8C70300181700200229F0B560D8314BB2
:1049A000595C02295CD8304B13F83100012816D12C
:1049B00003EBC1039C78D878012C214638BF012134
:1049C000904294BFC1EB0001C1EB0201001BCAB2CF
:1049D0008242C8BF00225B6833F91200F0BD002A92
:1049E0003CD003EBC1035968002939D09878904234
:1049F00002D3B1F90200F1E7DC78B1F9000094428A
:104A0000ECD95C788B88013CA3F1FF06734201F17D
:104A10000405E4B2734101F10C07DEB2B44216D8CA
:104A200005EBC3034FF47A756A43B3F902405B6840
:104A3000D21A04EBD47302EB630292FBF4F29042BD
:104A4000CCDBB1F902009042C8DC10B2C6E737F8FF
:104A500033C05E1C9445E3D33346DEE70348BDE72D
:104A60000348BBE7C8C70300181700200CFEFFFF70
:104A70000080FFFF08B50448FFF7FEFEBDE80840D0
:104A8000012025F019BE00BFCCC7030000487047C5
:104A90005A3200207FB50222084B0949CDE9012393
:104AA0004FF00073CDE90313052301A94FF0FF3048
:104AB000059325F031FE07B05DF804FB006A18008D
:104AC000000204002DE9F0418CB08846DDE9127641
:104AD0001D460446002847D0002945D0002F43D06A
:104AE000002E41D013F00F033ED120482049A3608F
:104AF000002A08BF0146E361C4E90013404609A942
:104B00001CF00BFD68BB204609991CF04AFE2946A3
:104B100020461CF046FE694640461CF0ACFD00BB3A
:104B2000694620461CF029FE404603A91CF0AEFD54
:104B3000B8B9204603A91CF020FE0697012720469D
:104B400045F0005506A9079708951CF016FE20466B
:104B500009A909960A970B951CF019FE20461CF02E
:104B60000AFC0CB0BDE8F0812120FAE70001000446
:104B7000000101042DE9F0418CB0884616461D461F
:104B80000446129F00284BD0002949D0002A47D064
:104B9000002F45D00B68103B102B41D8214A22FA38
:104BA00003F3D9073CD500231F4A8360C0E90023E3
:104BB000C36109A940461CF0B0FC70BB20460999AE
:104BC0001CF0EFFD294620461CF0EBFD69464046EF
:104BD0001CF051FD08BB694620461CF0CEFD404646
:104BE00003A91CF053FDC0B9204603A91CF0C5FD64
:104BF00006960126204606A945F000550796089519
:104C00001CF0BBFD094B204609A909970A960B9396
:104C10001CF0BDFD20461CF0AEFB0CB0BDE8F081E1
:104C20002120FAE701010100000004041000002027
:104C3000F0B50C4617461E46054695B0002874D0C0
:104C4000002972D0002A70D0002B6ED0036B0F2B7E
:104C50005BD80023364A3846C4E90023A360E361E9
:104C600011A91CF05AFC00285BD1204611991CF0B8
:104C700098FD296B20460F2984BF01F00F011031E8
:104C80001CF08FFD384602A91CF0F5FC002848D125
:104C9000204602A91CF071FD384605A91CF0F6FC5F
:104CA00000283ED1204605A91CF067FD0122214BBA
:104CB000089509920A932B6B05F1100003F00F0180
:104CC00041F000510B900F2B0C920D910E900F9212
:104CD00043F00052109226D90A9B08A923F00053F2
:104CE00020460A931CF049FD0BA920461CF045FD07
:104CF0000123119612930F4B204611A913931CF018
:104D000046FD20461CF037FB0BE000F1200301902C
:104D100000930122102339462046FFF7D3FE0028D6
:104D200097D015B0F0BD0EA9DFE72120F9E700BF4D
:104D300000000404100000202DE9F04F9BB00C4649
:104D400090461F460546DDF89090002800F0B2809E
:104D5000002900F0AF80002A00F0AC80002B00F0AA
:104D6000A980026B02EB09031B09B3EB121F02F0CF
:104D70000F0600F0978000234F4A8B60C1E90023A3
:104D8000CB61404617A91CF0C8FB0346002840F041
:104D9000858006EB090B204617992BF00F0A1CF0B3
:104DA00000FD514620461CF0FCFC404602A91CF0C8
:104DB00062FC0346002871D1204602A91CF0DDFCEC
:104DC000404605A91CF062FC0346002866D14FF05E
:104DD0000108019005A920461CF0CFFC374A204667
:104DE00008A90895CDF824800A921CF0C6FC46F06C
:104DF0000051AAEB060605F1100346F000560B938E
:104E0000CDF830800D910E97CDF83C8010960D991D
:104E1000204621F000510D910BA900931CF0ADFC30
:104E200020460EA91CF0A9FC019B244A1193AAF16B
:104E3000100343F00053CDF84880139305F120038D
:104E40001493CDF854801692139B204643F0804370
:104E50001393139B11A923F0005313931CF097FC99
:104E6000204614A91CF093FC144A17A92046179554
:104E7000CDF8608019921CF08AFC20461CF07BFA69
:104E8000AAEB0B0149440190ABEB0A0200983944AC
:104E900026F0FCF8019B2A6B4A442A6318461BB093
:104EA000BDE8F08F10304A463946304426F0EEF81F
:104EB0000023F0E72123F1E70302000410000020A3
:104EC0002DE9FF474FF000080E4617460446CDF87F
:104ED0000080002859D022B90025284604B0BDE83A
:104EE000F087002951D032F0030902F0030A1FD0E5
:104EF0004FF0E063C0E9003801230191C0F8088059
:104F00000293C0F81C8049F0005301A903931CF0E0
:104F10003EFC494620461CF044FC20461CF02BFA7F
:104F2000054628B14A464146304626F0A4F8D4E763
:104F3000BAF1000FD0D04FF000084FF0E063C4E9A1
:104F400000380123CDF804D00293114B204601A96B
:104F5000C4F80880C4F81C8003931CF018FC0421DA
:104F600020461CF01EFC20461CF005FA054608B140
:104F70003A46D8E7009A4E44EB00013522FA03F393
:104F8000AA4506F8013BF7D1A6E72125A5E700BF12
:104F900004000020F0B50F4616461D46044693B0A7
:104FA00010B9212013B0F0BD0029FAD0002AF8D0A2
:104FB000002BF6D0002331461A4638461CF052FA30
:104FC0000028EFD1304602A91CF0F7F90028E9D1FA
:104FD00038683449029A88426B695ED19342E0D3C3
:104FE0002B68002BDDD14FF060623846C4E9002306
:104FF000A360E36101A91CF090FA0028D2D10199C5
:10500000204621F4F06101911CF0CBFB6946284653
:105010001CF083FA0028C5D1204600991CF0C1FB82
:10502000384609A91CF027FB0028BBD1204609A956
:105030001CF0A3FB38460CA91CF028FB0028B1D1BA
:1050400020460CA91CF099FBEB684BB1284606A939
:105050001CF011FB0028A5D1204606A91CF08DFBF1
:10506000304603A91CF012FB00289BD1204603A95F
:105070001CF083FB28460FA91CF008FB002891D1E7
:1050800020460FA91CF083FB032520461CF073F972
:10509000012887D1013DF8D184E7B3EB420F9FD2BD
:1050A0007FE700BF200000B070B50E4615460446ED
:1050B0008AB000285CD000295AD0002A58D0012399
:1050C00029461A4630461CF0CDF900284ED1B36867
:1050D00013F4C04F4CD0AB6803F4C043B3F5005F8A
:1050E00046D1254BA060C4E90030E06107A93046F5
:1050F0001CF013FA002839D1204607991CF051FB07
:10510000012302934FF00053204601A903931CF0A2
:1051100034FB304604A91CF0B9FA38BB204604A978
:105120001CF02BFBEB681BBBAB6803F4C043B3F56F
:10513000005F1DD1694628461CF062F9B0B9009B9A
:105140006A699A4216D32A6943F0005307920122F2
:10515000204607A90892032509931CF018FB204656
:105160001CF009F9012801D1013DF8D10AB070BD48
:105170002120FBE71D20F9E7000001021FB50446CE
:1051800098B191B100230A4A8360C0E90023C3614A
:10519000012301910293074B01A903931CF0F7FA35
:1051A00020461CF0E8F804B010BD2120FBE700BF4A
:1051B000000008430400002006289ABF014B185C39
:1051C00000207047B8C8030030B5154B87B0029374
:1051D000144B0390049346F611030D46059300F01B
:1051E00077F91428044616D168461CF090FB4FF05E
:1051F000A843032202A95A6319601D619A63DA6BFE
:105200009207FCD1142C02D168461CF08EFB00F0F2
:105210008FF9044601E00028E9D0204607B030BDF0
:1052200038170020040000202DE9F04FB1B00546EA
:105230008C469E46E8466F4EDDF8EC90409C06F1A9
:10524000100A474630687168083603C75645B846A5
:10525000F7D13E9B03EB0208C8F1000A0AF00F0ADF
:10526000B9F1000F00F09D80C9F1000707F00F07AA
:105270000121DDF8FCB044F00050C4F11006CDF877
:1052800010B005910690300200F4F85040F0210073
:105290000790B9F1000F40F08680CDF820D047F09C
:1052A0000050002D00F08480099121210A9041EAEC
:1052B00007210B9142F00050CDF830C03D9B08A96A
:1052C0004FEA0A2C0D910E904CF041000F90109374
:1052D000002A75D13E9B119143F0005312933C9BE1
:1052E0001390149310AB1593434B444A169340F616
:1052F00011031793424B0021002D08BF134618934A
:1053000014AB19933F4B10221A9311231B931CAB20
:10531000184625F0B0FE01221D92002246F080467C
:1053200003461E96239205B9EB46102CCDF880B0AB
:1053300024AE4BD1012322460021304621932294F2
:1053400025F099FE20AB002125938F4218BF3346EC
:1053500047F0804226923A9A2CA828922993B2FAD2
:1053600082F35B0949EA837310222B912A9325F07B
:1053700082FEB9F1000F00D028AED04448F080433F
:105380002CA918A82D962E93FFF71EFF30B92DB922
:105390000346A34225D1002818BF2C2031B0BDE818
:1053A000F08F102764E7CDF820E049F0005078E74F
:1053B000002C3FF479AF04A9099101210A9076E706
:1053C0003E9B0CAA11924120129388E710220021E3
:1053D00030462193229425F04EFE002CB2D10123B9
:1053E000B1E703F1C0026A4412F8C02C0133104344
:1053F000CFE700BFBFC8030010000020D4C80300DF
:10540000D8C8030004000020F0B5C0299FB0DDE932
:10541000244557D0B1F5807F04D0802948D0292079
:105420001FB0F0BD01265CB140F234470294102455
:1054300003960494212401970594069502AC0AE092
:1054400040F21447029410240396049421240594F6
:1054500001240197069507940125102408940995C5
:105460000A9221220B950C940D92174A0AAD0E92C6
:10547000164A0F95109242F611021192129313954B
:105480001494159201AA1692D3B112AB1793042368
:1054900018931123199316AB1A901B9340F611031E
:1054A000C9081C911AA806A91D93FFF78DFEB7E73E
:1054B000012614B94FF48267C4E74FF48667B5E755
:1054C0000EABE3E70F20ABE7D0C8030010000010DD
:1054D000144A38B5D2F8803243F00103C2F8803262
:1054E000114B5B68C3F3080343B14FF0A842D36B81
:1054F00013F0430FFBD11424204638BD4FF0A843CE
:10550000DC6B14F04304FBD1084D2B681BB904215C
:10551000284602F057FE2B68013343F000432B600E
:10552000EAE700BF0080005000ED00E038170020DF
:10553000014B00205B68704700ED00E0012300F0A4
:105540001F02A0F506200949A0F5506040099340CC
:1055500051F820201A4341F82020054951F8202015
:1055600022EA030241F82020704700BF50170020B4
:105570003C1700200121A0F506230E4AA3F5506335
:105580005B0900F01F00814052F82300014342F8FC
:1055900023100949D1E90030034488680344C868EE
:1055A000096903445B1802BFC2E90033C2E9023350
:1055B000136170473C170020501700202DE9F04F71
:1055C000A9B003921D4604460822339ECDE904018A
:1055D000414021FA02F34B40980702F1080218BF3C
:1055E0009B00202A1C44F4D18123B4FBF3F303EB8A
:1055F000C313E41A734B04F506241B7804F55064B6
:10560000002B3ED1FEF7B2F8074620B16FF09100B3
:1056100029B0BDE8F08F0146402208A825F02BFDF7
:105620004022394618A825F026FDDFF8B481DFF8BE
:10563000B491C3460BF10F0ACDF800A0102208A9BF
:105640005B46D9F8000024F0E4FD0022014608F191
:10565000100808AF914246D1CDF800A05B46102259
:10566000D9F8000018A924F0DDFD4FF0000A8346A8
:1056700018AFD34541D1544B9845DAD10122514B53
:105680001A704FF0810A4FF00008DFF85CB1A4F502
:105690000627A7F550635B095BF8232004F01F0180
:1056A000CA40D2073DD4494A52F82330CB40DB07E9
:1056B0002AD5B8F1000F08BFA0468123A7F6FF47FF
:1056C000B7FBF3F303EBC313FF1A07F50624BAF194
:1056D000010A04F55064DAD1039BBBB1B8F1000FA5
:1056E00014D0444619E057F8040BCDE90612FFF731
:1056F00025FF079A06990132ACE757F8040BFFF72C
:1057000039FF0AF1010AB4E7039B13B96FF08B006C
:105710007EE7B8F1000F18BF4446349B00201C60A0
:1057200076E7329B13B10023329A13600EB1002347
:1057300033601023DFF8AC9000932A460023214603
:10574000D9F8000012F096FF60BB32992A68204B0E
:10575000C9B99A4206D02146D9F8000013F022F8C0
:105760000028D3D1D5E90223DDE90410834208BF24
:105770008A42A2D1039B002BCFD06B68012BCCD1E6
:105780006FF0840044E7102032999A420860E2D119
:10579000002EE7D033462146D9F8000018AA12F0AF
:1057A000BDFF48B10B4B9842D5D00B4B9842D2D09D
:1057B0000A4B9842D6D029E7329A336812689B1A6E
:1057C0003360CFE7962D0020007108003C170020C1
:1057D000105D175EFFDF00F011E000F0FEDF00F06B
:1057E000006D080094300020501700202DE9F04F84
:1057F00087B08246894698461646DDF840B02AB101
:10580000002B4FD040F26C739A424ED8BBF1010F7F
:105810004ED8002406F110073946012005941CF0EB
:105820008DFE0546002846D021463A4625F023FC49
:1058300005ABCDE9014300942B4601225046494671
:10584000FFF7BCFE044680B110F18C0F08BF6FF06B
:105850008D043A460021284625F00DFC28461CF010
:105860004FFE204607B0BDE8F08F144BC5E902A9F2
:105870002B60C5F804B02EB13246414605F1100048
:1058800025F004FC059E0E483B462A46314600683A
:1058900012F058FE18B93046FFF750FED9E76FF006
:1058A0009104D6E76FF08604DBE76FF09104D8E748
:1058B0006FF08504D5E76FF08C04D2E7105D175EBA
:1058C000943000202DE9F0438DB08146DDE9147855
:1058D0000E4615461C469BB1B8F1000F05D16FF07E
:1058E000860630460DB0BDE8F083002FF7D0B7F143
:1058F000005FF4D3C3F1005303F5C0339F42EED8E9
:105900001022002108A825F0B6FB002207AB029365
:1059100005AB019306AB31460093484608ABCDE991
:105920000522FFF74BFE06460028DAD1059BA4B1FD
:10593000AB4215D853EA0504D1D1069B0B48C8F8F1
:10594000004000943A46079900682B4412F092FEFA
:10595000002818BF6FF09106C3E7AB42EDD2BEE757
:105960005B1B9C4228BF1C46E7E700BF9430002029
:1059700030B58DB00C4605461022002108A825F050
:105980007AFB002207AB029305AB019306AB2146DD
:105990000093284608ABCDE90522FFF70FFE044629
:1059A000D8B9099B012B1BD0079D104B29461868BD
:1059B00012F0F8FEB8B90122A5F506230C49A3F5AB
:1059C00050635B0905F01F00824051F823004240FC
:1059D000284641F82320FFF7CDFD20460DB030BD0D
:1059E0006FF08404F9E76FF09104F6E7943000203B
:1059F000501700202DE9F04F93B00446DDE91E75E5
:105A0000DDE920689346DDE91C028A46DDF88890CE
:105A100029B96FF08604204613B0BDE8F08FBBF1C2
:105A2000000FF6D00FB9002DF3D108B9002AF0D13C
:105A300016B9B8F1000FECD1B9F1000FE9D02C4A3A
:105A4000934251D12388B3F5105F4DD1202200211C
:105A500002A825F010FB202200210AA825F00BFB4C
:105A600002A81BF09BFC10B16FF09204D3E7204614
:105A70005A4651460AAB1BF0BAFF04460028CAD169
:105A80000A981BF0A8FF04460028C4D115B9C9F82C
:105A90000050C0E7B74224D27B199E4221D245452F
:105AA000B7D839462A46304625F0CBFA374615F0A6
:105AB0000F0AAED1CDE900762B4652460AA902A8BC
:105AC000FFF700F807460028E1D04246514630462D
:105AD00025F0D1FA012FC9F800A0C5D16FF08B04D1
:105AE00099E74545E3D994E76FF0850493E700BF54
:105AF000004440042DE9F04FB3B00C4605460021A8
:105B0000164602A8202298463C9FDDF8009125F019
:105B1000B2FA202200210AA825F0ADFA20220021A5
:105B200012A825F0A8FA202200211AA825F0A3FA2D
:105B300000213C2223A8229125F09DFA34B12EB1F8
:105B400027B13E9B13B1B9F1000F05D16FF0860468
:105B5000204633B0BDE8F08FB4F800B0B4F802A02E
:105B60000BF4E043B3F5804FF0D0384B384A2B406C
:105B700043F01063934202D06FF08504E8E70AF126
:105B80000703B8EBD30F4FEAD305DFD33F9B9D420A
:105B900058D81AA81BF002FC10B16FF09204D7E796
:105BA000002301A91AA80193FFF7E8FA0028F4D10D
:105BB000019B284A23F07F4393420193DCD947F2AB
:105BC00012139B45D8D1BAF5807FD5D1224B01372E
:105BD0000A933D9B0D90023323F003030F93402360
:105BE00017936B000E97159013932046424631464B
:105BF00022AF02AB16971BF0FAFE04460028A7D18D
:105C00000C9B129043F400531AA80C931BF0C6FB94
:105C10000028C2D112AB0AAA02A91AA8FFF7BAF942
:105C2000064610B1482891D1A6E72A4639463E9843
:105C300025F02CFA3346BB550136402EFBD1C9F86E
:105C4000005085E76FF0890482E700BF0000FFF68F
:105C5000000002090102010020000080F8B513468F
:105C600042880C460732072A4FEAD20101D0A142EE
:105C70004DD146680588C76820221846002125F0C6
:105C8000FAF9360A0346002E44D1002C3FD041F2E7
:105C90000102954205D0B5F5885F02D0B5F5905F59
:105CA00002D15C60002011E0B5F5105F07D1182C1F
:105CB00003D0202C01D0102C29D11C60F1E705F471
:105CC0004F42B2F5824F02D06FF08500F8BDEAB2C4
:105CD000122AF9D1202CF7D1104A25F0FF05B5F58D
:105CE000E24F02600CD0B5F5824F10D14FF4005254
:105CF00017F4705F09D017F4864F04D09A60E3E779
:105D00004FF48042F4E742F480629A60CAE76FF091
:105D10008600DBE76FF08B00D8E700BF2000008033
:105D20002DE9F04F9A460388144603F44F42B3B06E
:105D3000B2F5824F0F46DDF8F89002D06FF0850083
:105D400056E011B96FF0860052E0002CFAD0B9F19C
:105D5000000FF7D0DAB2122AF0D123F0FF03B3F527
:105D6000E24F34D14388C9F800305BBBE300C9F887
:105D70000030B3F5807FE1D10023184655493D1925
:105D8000214411F8016D15F8012D1043921B0CBF31
:105D90004FF0FF360026AF4203EA060343EA020350
:105DA000EFD10028CED0002BCCDA3C9B9C4200F2F5
:105DB0008E8022463946504625F068F93D9B0020EA
:105DC0001C6015E0DA1DB4EBD20FD2D0BAE7B3F500
:105DD000824F79D10B78042BB4D12022002101A865
:105DE00025F049F901A81BF0D9FA20B16FF0920013
:105DF00033B0BDE8F08F0090694601A8FFF7BEF907
:105E00000028F3D1009B344A23F07F43934295D975
:105E10004FF000083E22414622A8CDF8848025F0AC
:105E20002AF901234FF0420B2022414609A88DF8A0
:105E30008430651E25F01FF97B1C2022414611A8E5
:105E40000D9321AE0E9525F016F92022414619A892
:105E50001596CDF858B025F00EF9EA005208B2F5C3
:105E6000807FCDE91D6BC9F800200BD003D8E02A54
:105E70003FF464AF66E7B2F5C07F3FF45FAFB2F5C1
:105E8000047FF5E7154B09AA099311934FF40053CA
:105E90000B934FF480431393402311A91A9301A845
:105EA00019ABFFF777F8D9F800300733DB085A0051
:105EB00033B1531E013B86F8008006F10106F9D28A
:105EC00000283FF472AF3DE76FF0960090E76FF067
:105ED00089008DE7DCC8030001020100200000807A
:105EE0002DE9F04F8FB0DDF8608081460C46924678
:105EF0009B461A9FB8F1000F05D16FF0860420462B
:105F00000FB0BDE8F08F002FF7D00028F5D0202289
:105F1000002106A825F0AFF806A81BF03FFA10B143
:105F20006FF09204EBE714F47C1FC4F305452AD00C
:105F3000102DE2D8199B9D4233D81D4B24F47E14BA
:105F40009C4231D1002302AECDE90233CDE90433C6
:105F500052465B464946009606A8FEF70BFE0446ED
:105F600098B92A463146404625F090F823463355E5
:105F70000134102CFBD100243D6006A81BF018FA58
:105F80000028BCD0CCE71025D4E7212806D0012872
:105F900014BF6FF092046FF08B04EEE76FF086048D
:105FA000EBE76FF08904AAE76FF08504A7E700BF6D
:105FB0000002C00370B50E461446054610B96FF0D6
:105FC000860070BD0029FAD03822002125F053F850
:105FD000094B24F47E129A420AD13388B3F5105F3C
:105FE00006D1C4F30543102BE9D800202C60E8E764
:105FF0006FF08500E5E700BF0002C003F0B50F4673
:1060000016461D4604468BB088B302B97BBB2022DE
:10601000002102A825F02FF802A81BF0BFF920B13B
:106020006FF0920420460BB0F0BD2368114A23F4B0
:106030007E13934215D135B9002402A81BF0B8F99C
:106040000028EFD0ECE733463A46009502A9201D20
:10605000FEF772FE012807D00028EDD06FF0920401
:10606000EBE76FF08804E8E76FF08B04E5E76FF08B
:106070008604D7E70002C0032DE9F0418CB08846C2
:1060800016461D460446129F002840D0002A3ED0E6
:10609000002B3CD0002F3AD0102B036828BF1025CE
:1060A00013F47C1FC3F3054202D0954228BF154666
:1060B0001A4A23F47E1393422CD12022002104A8F3
:1060C00024F0D9FF002304A8CDE90033CDE9023341
:1060D0001BF064F940B96B46424604A9201DFEF747
:1060E000A7FD30B100233B606FF092000CB0BDE81B
:1060F000F08104A81BF05CF904460028F2D12A467E
:106100006946304624F0C2FF20463D60EEE76FF05E
:106110008600EBE76FF08800E8E700BF0002C003ED
:106120000023C36001F13803036120230A6843613F
:106130008B6D0B4922F47E128A42436003D001F535
:1061400080718A4208D1102B01D0182B02D1036034
:1061500000207047202BFAD06FF08800704700BFF6
:106160000001C00330B58BB06D46604C0FCC0FC53D
:1061700054F8043B68462B604FF07E6393F89C30E4
:106180006D46FF2B08BF25238DF80130FEF716F86A
:106190003220FEF74BF80FCC0FC50FCC0FC594E89B
:1061A000030085E80300524BD3F84C21110340F162
:1061B0008380A3F5FE431C884FF6FF739C4208BF03
:1061C00081248DF81940FDF7C7FF044484F30804C7
:1061D00048488DF81840FCF75FFF6846FDF7F0FE71
:1061E0003220FEF729F8444C4448FDF799FE444814
:1061F000FEF728F81AF0E6FF236F002023F00703CC
:1062000043F002032367236F23F4505343F4806366
:1062100023671AF0DEFF3B4BD3F8FC20D2014FD4AA
:10622000D4F8803023F0030343F00203C4F8803035
:10623000314BD3F8202122F0070242F00102C3F8CB
:106240002021D3F8802122F0030242F00102C3F89A
:106250008021D3F8402122F0030242F00202C3F869
:106260004021D3F8602122F0030242F00202C3F879
:106270006021D3F8402222F0030242F00202C3F868
:106280004022D3F8002222F0070242F00202C3F8B3
:106290000022D3F8082222F0070242F00202C3F8DB
:1062A0000822FDF71DFE4FF0E0220020136963F085
:1062B000040313610BB030BDD3F85041E4B280E762
:1062C000D3F8FC2022F08072C3F8FC20D4F88020A0
:1062D00022F0030242F00202C4F88020D3F8FC202E
:1062E00042F08072C3F8FC20A2E700BFFCC80300A4
:1062F0000080E00F00F049020080005000B4C404A8
:10630000C0EA210100ED00E06FF00403502110B558
:106310000A480B4C13F0800F03F1010206D123440D
:106320003D2A83F800131346F4D110BD03F00F0388
:10633000043B034419761346ECE700BF00ED00E090
:1063400000E100E000280CDB01220649430900F0CF
:106350001F008240203341F82320BFF34F8FBFF34B
:106360006F8F704700E100E0002807DB012341093F
:10637000034A00F01F00834042F82130704700BFFD
:1063800000E100E0002808DB01224309034900F096
:106390001F008240603341F82320704700E100E095
:1063A0000028ACBF00F16040064B4FEA0111C9B2B2
:1063B000ABBF00F5614000F00F0080F800131954E6
:1063C000704700BF14ED00E010B504461AF071FEEE
:1063D000024B1C601AF071FE002010BD64170020F3
:1063E00010B51AF066FE034B1C681AF066FE2046D4
:1063F00010BD00BF64170020034B02221868002361
:106400008068194619F056BB9831002030B5144603
:10641000054687B010461BF08FFE63690246834233
:106420003CBFD4E903315B181B1A7BB10F490494BC
:1064300003910021CDE90131012300932846D4E9DD
:1064400000131AF064FE002007B030BD012262760E
:1064500094F82D20002AF6D084F835301321E36912
:10646000204698472046636A9847ECE70D64010090
:106470002DE9F04788B004460F46164698461AF0B4
:106480001FFE8146002E7AD0237E03F0FF02002BF0
:1064900000F0A28020461BF04FFE6569A84205D19E
:1064A000637ED4E9033213445D1B01E0F9D9451B37
:1064B000B54228BF35461AF003FE94F82D308246C7
:1064C000002B6DD12A463846616924F0DFFD6369EF
:1064D0002E462B44636121E0037803F0FD0111296E
:1064E0005BD1216B814205D1A3F111014B424B419C
:1064F00084F83430013E6369216B01328B4203F131
:10650000010308BF2363636195426069E4D1D4E964
:106510000323216B1344994200D122630025D4E95F
:10652000032361691344994208BF6261207A65764A
:10653000FDF738F820461BF0FFFD6369834232D136
:10654000257694F82D30E568656103B12563204612
:10655000636A9847214B04940393002302932369B1
:106560002A4601930123009363682168207A1AF078
:10657000CEFD207AFDF736F850461AF0A7FD4846C2
:10658000C8F800601AF0A2FDD8F80030002B0CBF4C
:106590001B20002008B0BDE8F08707F8013BAAE700
:1065A0002E460022B0E70123207A23760DF11E014A
:1065B000FDF780F89DF81E30002BDAD00DF11F0199
:1065C000207AFDF74FF89DF81F100029D1D12246FF
:1065D000207AFFF71BFFCCE71646D0E70D640100D9
:1065E0002DE9F0410C461546064686B040220021B2
:1065F00020461F4624F03FFD95E8030000232A694A
:106600002376EB6884E80300C4E904232A7DE36071
:1066100084F82C20AA7D2363012384F8343084F885
:1066200035300C9B84F82D2023620D9BE76163625B
:106630000E9BA3622B7A84F836306B7A84F837305D
:106640002D4B346073602D4BB3602D4B33612D4B5C
:1066500073612D4BF360FCF771FF38B12B4B9842FF
:1066600004D01024204606B0BDE8F081002104F1DA
:106670000800FCF7EBFE07460028F2D14FF00108B6
:10668000234B3362234B84F83C80B361224BF3618C
:106690009DF8403084F8390084F83B309DF83C3058
:1066A000204684F83A30697D84F838801BF081FDFB
:1066B00095F90900FFF766FE95F90900FFF754FE0A
:1066C000164B0494CDE902732369CDE90083636816
:1066D000E2682168207A1AF01AFD04460028C0D129
:1066E00095F90800FFF74EFE95F90800FFF73CFE0C
:1066F0003046FFF769FEB5E703220300716401002D
:10670000272103002D21030059210300038000F0FD
:1067100001210300B3210300332103000D640100B4
:106720002DE9F0414FF001081C46574B86B002930B
:10673000564B0C9D0193564B174600930A46CDE9E4
:1067400003882946534BFFF74BFF0646002840F0CD
:106750009280236804222B64237985F84430A17940
:1067600085F84610607985F84500237A85F8483029
:10677000E37985F84730A37A85F84A30637A85F85B
:106780004930237B85F84C30E37A85F84B3043461B
:10679000FDF7C8FD43460222217AE079FDF7C2FDEC
:1067A0003E7039462068FDF7E9FF1421A27B3A4B81
:1067B00003EB4210C0F8AC1594F806C061792E3294
:1067C00003EB421341EA0C415960227AE37943EA30
:1067D0000243C0F8BC3585F84D607B7E032B50D852
:1067E000DFE803F03A4D021D022385F84D30002307
:1067F0000422217BE07AFDF795FD41F2AC520221A3
:10680000A37B5B0103F1A04303F570339950217B17
:10681000E27A42EA014241F2B8515A501CE00127A3
:1068200085F84D3002220023A17A607AFDF77AFDC7
:10683000A17A627AA37B42EA014241F2B4515B0140
:1068400003F1A04303F570335A500422236803F583
:106850008053DA65002FCAD163792A6C85F84530F8
:10686000A379052185F84630D36C206843F00403F2
:10687000D3641AF0E3FC304606B0BDE8F08100278F
:10688000CEE72326F7E700BF3123030025230300CB
:10689000B5230300A923030000C0035073B50024EF
:1068A000684600F0F1FA0C4B00981C600B4B0C4D45
:1068B0001C600C4E0C4B306018602C601BF05CFEB2
:1068C0002046019B3268013BDB0853802B68013373
:1068D0002B6002B070BD00BF6C170020681700204D
:1068E0007017002078170020741700202DE9F04F52
:1068F0000027924687B04A1C0E4614BF0C46082457
:1069000099460597002B00F0B0801F60002800F02A
:10691000AE80073020F007051AF0D2FB05AB3146F8
:106920000290009352463B46284600F0B7FA059E77
:10693000804606B130B902981AF0C8FB192007B09A
:10694000BDE8F08FDFF83CB17788DBF80010FB0082
:10695000C0EBC7070139272FCBF800106CD9BAF16B
:10696000000F48D1854205F1080740D02146304646
:106970001BF080FD04460590059B1F4438461BF024
:10698000FBFD059905F10F034A88C3F3CF03D21A23
:106990007A80CA88BB8062B3D31A9BB201EBC20271
:1069A000FB8093808B88ED08A380BB880022314652
:1069B00038466580E38000F0E9FA237843F001036C
:1069C0002370DBF800300133CBF800302B4A0298FB
:1069D0001368083443441360294A11688B4288BF06
:1069E00013601AF073FB0020C9F80040A7E7344693
:1069F000C2E7FA80D6E7F419204603931BF0BCFDEA
:106A000008F10702D20805996280FA1DD208A28017
:106A1000CA887AB1D200039BD01DC31A4344C3F382
:106A2000CF030A44E3809380A388013FFF084F808F
:106A3000CB80C2E7E280F7E7BAF1010F19D106F186
:106A40000803B3FBF4F204FB1233A3B12146304632
:106A50001BF010FD04462378012243F00103314668
:106A60002046237000F092FAB0E7222067E7212049
:106A700065E78542EAD13446EDE700BF6C17002098
:106A800068170020701700202DE9F3470446684678
:106A900000F0FAF9002C00F0C2801AF011FB14F893
:106AA000085CEB0704D534F806ECBEF1000F05D105
:106AB0001AF00CFB012002B0BDE8F087DFF870C1CE
:106AC00034F8041CDCF800800EF1010208F1010327
:106AD000A4F1080692B2CCF80030002938D0A6EB19
:106AE000C10393F800A0B3F806901AF0010F5F8875
:106AF00005F0020520D105BBA9EB0701012927D824
:106B00000EF102021744BAB2CCF8008034F8025CED
:106B100005BB14F8085C511E6FF3000504F8085C0F
:106B2000002589B224F8065C5980197865F30001C4
:106B300019700021D98031E055B111448AB214F89E
:106B4000081C6FF3410104F8081C00219980DDE75F
:106B50003346DBE706EBC508DDE900710F44B845B5
:106B6000D7D216F83560414616F001062ED014F83B
:106B7000086C551E6FF3000604F8086C002624F814
:106B8000066C1C78ADB266F300045D801C70C3F126
:106B900007040C44C4F3CF04DC808C80214C2168B2
:106BA00019B1994201D8498801B923601E4C216866
:106BB00019B1994201D3498801B923601B490B6877
:106BC0009B1A0B601AF082FA002074E7A5EB0E0501
:106BD000012DCCD8B8F80250A8F8026001352A443B
:106BE000B8F8065092B2C5B108EBC501DCF8005008
:106BF000013DCCF8005014F8085C6FF3000504F870
:106C0000085C002524F8065C541E5C801C7865F343
:106C100000041C700029BAD18BE72946E6E7222040
:106C200049E700BF78170020741700206C17002078
:106C3000701700202DE9F84F04460D469146002AB2
:106C400000F017810023136040B9002900F0138180
:106C500001462846BDE8F84F1BF04CBC19B9BDE809
:106C6000F84FFFF711BF1AF02BFA34F8063C07353E
:106C70004FEAC30825F00705A8450746A4F1080018
:106C800080F0848034F8022C002A65D000EBC20A20
:106C900010F83220D2075FD4BAF80210A8EB05062C
:106CA00016EBC10658D41F2E3DDDC5F3CF0304EB10
:106CB000050B24F8063C013324F8023C58461BF02F
:106CC0005BFC34F8023CC6F3CF06ABF80430BAF8EC
:106CD0000630ABF802601BB3BAF802209A1A1644C9
:106CE000B6B20AEBC303ABF806609E8000225146A1
:106CF000584600F04BF950461BF03EFCC9F80040E6
:106D00005E4A13682B44A3EB080313605C4A1168C6
:106D10008B4200D9136038461AF0D8F9002625E0D6
:106D2000ABF80630E2E7574E0B4432689BB2013AAB
:106D300032605A1C24F8062CBAF806204AB10233F5
:106D40009BB20AEBC20224F8023C93800122514616
:106D5000CFE724F8022CF9E74A46002128461BF029
:106D6000C9FB064628B138461AF0B0F93046BDE8EE
:106D7000F88F42462146D9F8000024F087F92046D2
:106D8000FFF782FE06460028BAD0ECE76ED934F849
:106D9000023CA8EB050B002B38D000EBC30610F823
:106DA0003330DB0733D4C5F3CF0304EB050A24F8F3
:106DB000063C013324F8023C50461BF0DDFB73888F
:106DC00034F8022C03EBDB03AAF80420F2889BB210
:106DD000AAF80230BAB101339BB206EBC202AAF89C
:106DE0000630938050460022314600F0CFF83046FE
:106DF0001BF0C2FB214BC9F800401A681544A5EBF3
:106E000008051D6087E7AAF80620EBE71E46BBF1E0
:106E1000270FEFD9C5F3CF0304EB050A24F8063C8E
:106E2000013324F8023C50461BF0A6FB34F8022C38
:106E3000CBF3CF03AAF80230AAF8042096B1F28867
:106E400082B101339BB206EBC206AAF80630B380CA
:106E50000C4A00211368504601331360012200F0F0
:106E600095F8C7E70023AAF80630F1E7C9F8004013
:106E700051E722267AE7212678E700BF6C17002029
:106E800068170020701700200249034A0160521A57
:106E9000426070479832002000800120F0B506461D
:106EA0000020059F4C1C08BF08213860BAB91F4854
:106EB0000568002D38D0B5F802E0DB0003EBCE0EFC
:106EC000C1F1000C2878C0070BD52ABBE888B0B107
:106ED00005EBC005B5F802E003EBCE0EF2E714486F
:106EE000E6E7B645F1D35AB905F10804B4FBF1F071
:106EF00001FB1044A0190CB17045E7D83D60F0BD0E
:106F000008290FD06C88013405EBC404A01B00EAEB
:106F10000C00201A8645F1D2A8880028EFD0A5EBF6
:106F2000C005D7E73046E9E72846E8E778170020AC
:106F300074170020134B13B51B6804460846FBB1B9
:106F400021B96846FFF7A0FF6CB900980378D9070C
:106F500007D55CB9C3889BB100EBC3000378DA079F
:106F6000F8D402B010BD084B1868EFE7012C07D128
:106F700083882BB1A0EBC3000378DB07F8D4F0E7DC
:106F80000020EEE77017002074170020F8B5124FAC
:106F900005460C463B68114EB2B1994209D041B149
:106FA0003368994204D129460120FFF7C3FF3060BE
:106FB000F8BD29460020FFF7BDFF33683860A342C3
:106FC000F1D0002CEFD0F3E79942336808BF386066
:106FD0008B4208BF3060EBE7781700207417002061
:106FE000BFF35F8F074B5A6A22F480325A62D3F89C
:106FF000942022F00102C3F89420BFF34F8FBFF317
:107000006F8F704700ED00E038B5FFF7E9FF284AC1
:107010002848D2F8C030284D23F0FF0343F0A003E6
:10702000C2F8C030254B04689D4204F101011ED115
:10703000234BC2F89840C2F89C3003F5BF3303F5E8
:10704000FF73C2F8A0300160BFF35F8F0522184BB9
:10705000C3F894205A6A42F480325A62BFF34F8FC9
:10706000BFF36F8FBFF34F8FBFF36F8F38BD23F028
:107070001F03203BB3F1005F09D3C2F89840104CC6
:1070800043F00103C2F89C40C2F8A03001600D4BF0
:107090000168074A23F01F0343F00303C2F8981066
:1070A000C2F89C30084B0131C2F8A030CBE700BFDA
:1070B00000ED00E07C17002040300020A02E0020D2
:1070C000030000205F300020E17F01202DE9F04126
:1070D0000D461146DFF8E080D8F80040B4F5807F17
:1070E00034BF00271A27FFF77BFF1F292ED9002165
:1070F000C2061CBF20F01F0020302E4EEB0618BF2A
:1071000025F01F05CBB29C4235D8D6F8C03020F010
:107110001F0023F47F4343F48073C6F8C03040F06F
:10712000030419F0CDFFD8F8003025F01F0141F01D
:107130000301C6F89830C6F89C40C6F8A01019F0B4
:10714000C5FFD8F800300133C8F80030BFF35F8FB7
:107150000522184BC3F894205A6A42F480325A62CE
:10716000BFF34F8FBFF36F8FBFF34F8FBFF36F8F9F
:107170003846BDE8F081C6F89830D6F89C30D6F88D
:10718000A02023F01F03984222F01F0201D1954254
:107190000BD0904201D89D4209D2D6F898300131E7
:1071A00023F0FF03C6F89830ACE70027CEE7282786
:1071B000CCE700BF00ED00E07C170020BFF34F8F4D
:1071C0000549064BCA6802F4E0621343CB60BFF383
:1071D0004F8F00BFFDE700BF00ED00E00400FA059F
:1071E000054B1A782AB95B78002B0CBF03200220CC
:1071F00070470120704700BF9C2D00200329F8B57F
:1072000098BF124B05460E468CBF00245C5C0328D9
:1072100005D8DFE800F002080B0E44F002040C4B26
:107220001F684FB9F8BD44F00804F8E744F02004A3
:10723000F5E744F08004F2E77B681A68144203D053
:10724000314628465B6898473F68EAE750C9030023
:107250008C17002038B5104D2B78ABB10F4C23782C
:107260001BB100F08DF90023237000201BF09AF968
:107270000B4C50B100F0D6F90023012120782B707F
:10728000FFF7BCFF0123237038BD0122054B1A70A4
:107290002278054B1A70F7E7992D0020982D0020D1
:1072A0009E2D00209A2D00209B2D002070B519F0F6
:1072B00000FF174E054617481AF056FE3378D3B92B
:1072C00000F0C4FA044620B1284619F0F6FE204624
:1072D00070BD114819F0FDFE00F01EFD0F4B1C6043
:1072E00000F056FB0E4B0F4A1860536F43F001033A
:1072F00053671BF05EF900F0B5F81BF055F90A4B27
:107300000024186001232846337019F0D6FEDEE70A
:107310009F2D00204CC903008C17002080170020EF
:107320008817002000400050841700202DE9F84302
:10733000284A0138135C39B1274F01333978135487
:10734000012904D8BDE8F883013B1354FAE7FFF79D
:1073500047FF0128044635D819F0ABFEDFF88480DA
:10736000054698F8003013B31C4E33781BB9012240
:1073700032701B4A1370DFF8709099F8003023B117
:1073800000F0FEF8002389F80030284619F095FE39
:1073900001201BF007F919F08CFE337805461BB16C
:1073A00000F040F900233370002388F800302846AD
:1073B00019F083FE38788442C4D02146FFF71EFFBF
:1073C0003C70BFE70329F5D10228F3D11BF0F0F898
:1073D000F0E700BF9C2D00209E2D0020972D00205F
:1073E0009A2D0020992D0020982D002038B519F0F5
:1073F00060FE094B05461B78012B04D819F05DFE91
:107400000024204638BD054B1C6800F033F90444C5
:10741000284619F052FEF4E79E2D00208017002028
:1074200038B54160044619F044FE0546214604483B
:1074300019F052FE2846BDE8384019F03EBE00BFA4
:107440008C170020054B1B685843054B00F5742032
:1074500000F23F20B0FBF3F0704700BF8817002018
:1074600040420F003B4A3C49136F70B503F00703DD
:107470000B60D2F80011394801F00301016038496E
:10748000384D8969032BC1F34001297059D0D2F8D6
:10749000203103F00703981E43424341D2F8802273
:1074A000314C02F0010213434FF4C8702370FFF710
:1074B000C9FF00222D4B2E4918602E4E0B68013259
:1074C000D2B20A2A46F8040BF9D1034400EBC000FB
:1074D00003440B602B78284D63B323781D4A3BB9D6
:1074E000D2F8003103F00303591E4B424B41237085
:1074F000D2F8003103F00303022B24D0032B25D054
:10750000012B17D1FBF7C2FD024698B1144B1B4E5D
:10751000DC6800231946C4F30B04013404EB840433
:107520000138E4FB060118F07FF8FFF78BFF2B68AA
:1075300003442B601F20FFF785FF2B6803442B605B
:1075400070BD0123AAE7FBF7FFFDDDE719F0A9FDF8
:10755000DAE700BF00800050C8170020CC170020D9
:1075600000C00150A22D0020A32D00209017002064
:107570009417002098170020C417002040420F00E5
:10758000F8B51F4B1B78002B39D01E4C2378B3B9AC
:107590001D4B9A6DD10302D5DA6D92072FD49B6DE6
:1075A000DB072CD41BF072F8184B194A1860136FC4
:1075B00023F0070343F003031367FBF751FD1BF0B0
:1075C00065F8124B134D1B68134EC01A2B78134FDE
:1075D00056F8232046F82300111A3A681048521A28
:1075E0000A213A600932B2FBF1F20133DBB20260E8
:1075F000B3FBF1F201FB12332B7000232370F8BDB3
:10760000A32D0020A12D002000C00050C017002095
:1076100000800050A02D0020981700209417002013
:107620009017002008B519F0E1FD0D4A0D49136FC0
:10763000096823F007030B4313670B49D2F8203185
:10764000096823F007030B43C2F82031074B1B786E
:1076500013B10122064B9A62BDE80840FBF700BD5A
:1076600000800050C8170020D0170020A32D002054
:1076700000E00050054B187818B1054B186800EB76
:10768000D000044B1B681844704700BFA32D002096
:1076900090170020C41700200122014B1A70704778
:1076A000A32D002038B51AF0FFFF0025084B094C28
:1076B0001A682368C31A2AB123B15169994203D3C6
:1076C000C91A5161206038BD55615B1A9268F2E7B2
:1076D000DC170020D8170020C38870B504460D467B
:1076E0003BB9FFF783FE8542064602D21AF04EFFF1
:1076F00035460E4965610B688BB90C60A3600DE0DF
:10770000AD1A9A68184665616AB113465A69AA4269
:10771000F6D930B18460521BA3605A6170BD00205D
:10772000F4E70C60F7E79C60A260F7E7DC17002045
:1077300038B5134D2B685B6993B1124A0220146867
:107740001C441AF0B8FF204600F06EFA00230E49E0
:107750002A680B70D088800709D501230B7038BDCB
:1077600002201AF0A8FF022000F0A8FAEEE79268C3
:10777000002AF4D050690344012BEBD9EFE700BF96
:10778000DC170020D8170020A52D002070B5164664
:107790009DF81420C0E903360271049ABDF8183030
:1077A0000260002204460D468260C380EEB91AF0E2
:1077B0007BFF2844A0619DB12E4619F07AFC054656
:1077C000FFF770FF31462046FFF786FF104B1B681E
:1077D000A34201D1FFF7ACFF284619F06EFC02E08E
:1077E000E36865617BB9002070BD1AF05DFF30442D
:1077F000A061002DE0D1E3686561002BDDD020465B
:1078000021689847D9E7204621689847EBE700BFF1
:10781000DC17002000220C490B687BB183420AD19F
:1078200083687AB1936083681BB15A6941690A44DD
:107830005A61002070471A469B68EEE70028EFD097
:10784000022070470B60EEE7DC17002070B519F0DE
:1078500037FC144E05463478FCB9134B1C60134BAF
:107860001C60134B1C8000F0A1F901201AF023FFCB
:1078700000F046FA0F4B0246186020B9284619F06E
:1078800025FC232070BD234640F2E7310A4817F05B
:10789000CBFE0A4B186001233370284619F016FC02
:1078A0000020EFE7A62D0020DC170020D8170020CD
:1078B00020250020E017002018FCFFFFD41700202F
:1078C00070B5044640B319F0F4FB144E0546FFF7BB
:1078D000E9FE3068A04209D02046FFF79BFF04462E
:1078E000B0B1284619F0E9FB204670BDFFF792FFC2
:1078F00004460028F5D133683BB9022000F0C6F9F0
:10790000284619F0DAFB0024EEE7FFF711FFF7E74E
:107910003368002BF4D1F0E72224E5E7DC170020E0
:1079200038B50C460546A8B1A1B100230B7019F07B
:10793000C7FB0121084B1B6833B919F0C7FB0020B6
:1079400038BD9D4204D121702278002AF9D0F4E795
:107950009B68F1E72220F3E7DC17002070B519F0EF
:10796000AFFB06461AF0A0FE084B04461D88012016
:10797000ADB21AF0ACFE18B11AF096FE044601350D
:10798000304619F0A3FB2046294670BD2025002073
:10799000014B1868704700BFE017002038B5002180
:1079A000044640F2E730054B4FF47A721D6800231D
:1079B000E5FB040117F038FE38BD00BFE0170020DA
:1079C000012300B58DB08DF80F30FFF7E7FF0023DE
:1079D0000146CDE90033074A0DF10F0304A81AF060
:1079E00031FE18B99DF80F30002BFBD10DB05DF8BA
:1079F00004FB00BFC9250300F8B50C4B05461B6806
:107A00000E4683420FD3002440F2E7302146084B54
:107A10004FF47A721F680023E5FB070117F004FE9C
:107A200030602046F8BD2120FCE700BFD4170020BD
:107A3000E01700200F4B10B51A689AB14FF47A7115
:107A4000531E1342A0FB01010ED1B2FA82F2C2F121
:107A50001F04531CD243E04001FA03F3184321FAF8
:107A600002F20243104610BD002317F0DDFD02466E
:107A7000F8E700BFE0170020C2072DE9F0470446F1
:107A80000BD5474A138801339BB21380FFF70AFED8
:107A9000444B1B680BB1FFF74BFEA3077ED519F0D3
:107AA0000FFB4FF0000905464E46FFF7FBFDC846A9
:107AB0003C4F3C680CB163698BB100223A4B012EFC
:107AC0001A7003D119F0020F18BF1E70002C61D07C
:107AD000FFF72EFE2846BDE8F04719F0F7BA234617
